{
  "contractName": "Asset",
  "abi": [
    {
      "inputs": [
        {
          "internalType": "string",
          "name": "name_",
          "type": "string"
        },
        {
          "internalType": "string",
          "name": "symbol_",
          "type": "string"
        }
      ],
      "stateMutability": "nonpayable",
      "type": "constructor"
    },
    {
      "inputs": [
        {
          "internalType": "address",
          "name": "sender",
          "type": "address"
        },
        {
          "internalType": "uint256",
          "name": "tokenId",
          "type": "uint256"
        },
        {
          "internalType": "address",
          "name": "owner",
          "type": "address"
        }
      ],
      "name": "ERC721IncorrectOwner",
      "type": "error"
    },
    {
      "inputs": [
        {
          "internalType": "address",
          "name": "operator",
          "type": "address"
        },
        {
          "internalType": "uint256",
          "name": "tokenId",
          "type": "uint256"
        }
      ],
      "name": "ERC721InsufficientApproval",
      "type": "error"
    },
    {
      "inputs": [
        {
          "internalType": "address",
          "name": "approver",
          "type": "address"
        }
      ],
      "name": "ERC721InvalidApprover",
      "type": "error"
    },
    {
      "inputs": [
        {
          "internalType": "address",
          "name": "operator",
          "type": "address"
        }
      ],
      "name": "ERC721InvalidOperator",
      "type": "error"
    },
    {
      "inputs": [
        {
          "internalType": "address",
          "name": "owner",
          "type": "address"
        }
      ],
      "name": "ERC721InvalidOwner",
      "type": "error"
    },
    {
      "inputs": [
        {
          "internalType": "address",
          "name": "receiver",
          "type": "address"
        }
      ],
      "name": "ERC721InvalidReceiver",
      "type": "error"
    },
    {
      "inputs": [
        {
          "internalType": "address",
          "name": "sender",
          "type": "address"
        }
      ],
      "name": "ERC721InvalidSender",
      "type": "error"
    },
    {
      "inputs": [
        {
          "internalType": "uint256",
          "name": "tokenId",
          "type": "uint256"
        }
      ],
      "name": "ERC721NonexistentToken",
      "type": "error"
    },
    {
      "inputs": [
        {
          "internalType": "address",
          "name": "owner",
          "type": "address"
        }
      ],
      "name": "OwnableInvalidOwner",
      "type": "error"
    },
    {
      "inputs": [
        {
          "internalType": "address",
          "name": "account",
          "type": "address"
        }
      ],
      "name": "OwnableUnauthorizedAccount",
      "type": "error"
    },
    {
      "anonymous": false,
      "inputs": [
        {
          "indexed": true,
          "internalType": "address",
          "name": "owner",
          "type": "address"
        },
        {
          "indexed": true,
          "internalType": "address",
          "name": "approved",
          "type": "address"
        },
        {
          "indexed": true,
          "internalType": "uint256",
          "name": "tokenId",
          "type": "uint256"
        }
      ],
      "name": "Approval",
      "type": "event"
    },
    {
      "anonymous": false,
      "inputs": [
        {
          "indexed": true,
          "internalType": "address",
          "name": "owner",
          "type": "address"
        },
        {
          "indexed": true,
          "internalType": "address",
          "name": "operator",
          "type": "address"
        },
        {
          "indexed": false,
          "internalType": "bool",
          "name": "approved",
          "type": "bool"
        }
      ],
      "name": "ApprovalForAll",
      "type": "event"
    },
    {
      "anonymous": false,
      "inputs": [
        {
          "indexed": false,
          "internalType": "uint256",
          "name": "_fromTokenId",
          "type": "uint256"
        },
        {
          "indexed": false,
          "internalType": "uint256",
          "name": "_toTokenId",
          "type": "uint256"
        }
      ],
      "name": "BatchMetadataUpdate",
      "type": "event"
    },
    {
      "anonymous": false,
      "inputs": [
        {
          "indexed": false,
          "internalType": "uint256",
          "name": "_tokenId",
          "type": "uint256"
        }
      ],
      "name": "MetadataUpdate",
      "type": "event"
    },
    {
      "anonymous": false,
      "inputs": [
        {
          "indexed": true,
          "internalType": "address",
          "name": "previousOwner",
          "type": "address"
        },
        {
          "indexed": true,
          "internalType": "address",
          "name": "newOwner",
          "type": "address"
        }
      ],
      "name": "OwnershipTransferred",
      "type": "event"
    },
    {
      "anonymous": false,
      "inputs": [
        {
          "indexed": true,
          "internalType": "address",
          "name": "from",
          "type": "address"
        },
        {
          "indexed": true,
          "internalType": "address",
          "name": "to",
          "type": "address"
        },
        {
          "indexed": true,
          "internalType": "uint256",
          "name": "tokenId",
          "type": "uint256"
        }
      ],
      "name": "Transfer",
      "type": "event"
    },
    {
      "inputs": [
        {
          "internalType": "address",
          "name": "to",
          "type": "address"
        },
        {
          "internalType": "uint256",
          "name": "tokenId",
          "type": "uint256"
        }
      ],
      "name": "approve",
      "outputs": [],
      "stateMutability": "nonpayable",
      "type": "function"
    },
    {
      "inputs": [
        {
          "internalType": "address",
          "name": "owner",
          "type": "address"
        }
      ],
      "name": "balanceOf",
      "outputs": [
        {
          "internalType": "uint256",
          "name": "",
          "type": "uint256"
        }
      ],
      "stateMutability": "view",
      "type": "function"
    },
    {
      "inputs": [
        {
          "internalType": "uint256",
          "name": "tokenId",
          "type": "uint256"
        }
      ],
      "name": "getApproved",
      "outputs": [
        {
          "internalType": "address",
          "name": "",
          "type": "address"
        }
      ],
      "stateMutability": "view",
      "type": "function"
    },
    {
      "inputs": [
        {
          "internalType": "address",
          "name": "owner",
          "type": "address"
        },
        {
          "internalType": "address",
          "name": "operator",
          "type": "address"
        }
      ],
      "name": "isApprovedForAll",
      "outputs": [
        {
          "internalType": "bool",
          "name": "",
          "type": "bool"
        }
      ],
      "stateMutability": "view",
      "type": "function"
    },
    {
      "inputs": [],
      "name": "name",
      "outputs": [
        {
          "internalType": "string",
          "name": "",
          "type": "string"
        }
      ],
      "stateMutability": "view",
      "type": "function"
    },
    {
      "inputs": [],
      "name": "owner",
      "outputs": [
        {
          "internalType": "address",
          "name": "",
          "type": "address"
        }
      ],
      "stateMutability": "view",
      "type": "function"
    },
    {
      "inputs": [
        {
          "internalType": "uint256",
          "name": "tokenId",
          "type": "uint256"
        }
      ],
      "name": "ownerOf",
      "outputs": [
        {
          "internalType": "address",
          "name": "",
          "type": "address"
        }
      ],
      "stateMutability": "view",
      "type": "function"
    },
    {
      "inputs": [],
      "name": "renounceOwnership",
      "outputs": [],
      "stateMutability": "nonpayable",
      "type": "function"
    },
    {
      "inputs": [
        {
          "internalType": "address",
          "name": "from",
          "type": "address"
        },
        {
          "internalType": "address",
          "name": "to",
          "type": "address"
        },
        {
          "internalType": "uint256",
          "name": "tokenId",
          "type": "uint256"
        }
      ],
      "name": "safeTransferFrom",
      "outputs": [],
      "stateMutability": "nonpayable",
      "type": "function"
    },
    {
      "inputs": [
        {
          "internalType": "address",
          "name": "from",
          "type": "address"
        },
        {
          "internalType": "address",
          "name": "to",
          "type": "address"
        },
        {
          "internalType": "uint256",
          "name": "tokenId",
          "type": "uint256"
        },
        {
          "internalType": "bytes",
          "name": "data",
          "type": "bytes"
        }
      ],
      "name": "safeTransferFrom",
      "outputs": [],
      "stateMutability": "nonpayable",
      "type": "function"
    },
    {
      "inputs": [
        {
          "internalType": "address",
          "name": "operator",
          "type": "address"
        },
        {
          "internalType": "bool",
          "name": "approved",
          "type": "bool"
        }
      ],
      "name": "setApprovalForAll",
      "outputs": [],
      "stateMutability": "nonpayable",
      "type": "function"
    },
    {
      "inputs": [
        {
          "internalType": "bytes4",
          "name": "interfaceId",
          "type": "bytes4"
        }
      ],
      "name": "supportsInterface",
      "outputs": [
        {
          "internalType": "bool",
          "name": "",
          "type": "bool"
        }
      ],
      "stateMutability": "view",
      "type": "function"
    },
    {
      "inputs": [],
      "name": "symbol",
      "outputs": [
        {
          "internalType": "string",
          "name": "",
          "type": "string"
        }
      ],
      "stateMutability": "view",
      "type": "function"
    },
    {
      "inputs": [
        {
          "internalType": "uint256",
          "name": "tokenId",
          "type": "uint256"
        }
      ],
      "name": "tokenURI",
      "outputs": [
        {
          "internalType": "string",
          "name": "",
          "type": "string"
        }
      ],
      "stateMutability": "view",
      "type": "function"
    },
    {
      "inputs": [
        {
          "internalType": "address",
          "name": "from",
          "type": "address"
        },
        {
          "internalType": "address",
          "name": "to",
          "type": "address"
        },
        {
          "internalType": "uint256",
          "name": "tokenId",
          "type": "uint256"
        }
      ],
      "name": "transferFrom",
      "outputs": [],
      "stateMutability": "nonpayable",
      "type": "function"
    },
    {
      "inputs": [
        {
          "internalType": "address",
          "name": "newOwner",
          "type": "address"
        }
      ],
      "name": "transferOwnership",
      "outputs": [],
      "stateMutability": "nonpayable",
      "type": "function"
    },
    {
      "inputs": [
        {
          "internalType": "address",
          "name": "assetCreator_",
          "type": "address"
        },
        {
          "internalType": "string",
          "name": "tokenURI_",
          "type": "string"
        },
        {
          "internalType": "enum Asset.AssetTypeEnum",
          "name": "assetType_",
          "type": "uint8"
        },
        {
          "internalType": "string",
          "name": "description_",
          "type": "string"
        },
        {
          "internalType": "enum Asset.FilmRatingEnum",
          "name": "filmRating_",
          "type": "uint8"
        },
        {
          "internalType": "bool",
          "name": "availableToUse_",
          "type": "bool"
        },
        {
          "internalType": "bool",
          "name": "availableToBuy_",
          "type": "bool"
        },
        {
          "internalType": "string[]",
          "name": "tags_",
          "type": "string[]"
        },
        {
          "internalType": "address[]",
          "name": "associations_",
          "type": "address[]"
        }
      ],
      "name": "createAsset",
      "outputs": [
        {
          "internalType": "uint256",
          "name": "",
          "type": "uint256"
        }
      ],
      "stateMutability": "nonpayable",
      "type": "function"
    },
    {
      "inputs": [],
      "name": "assetType",
      "outputs": [
        {
          "internalType": "enum Asset.AssetTypeEnum",
          "name": "",
          "type": "uint8"
        }
      ],
      "stateMutability": "view",
      "type": "function"
    },
    {
      "inputs": [],
      "name": "description",
      "outputs": [
        {
          "internalType": "string",
          "name": "",
          "type": "string"
        }
      ],
      "stateMutability": "view",
      "type": "function"
    },
    {
      "inputs": [],
      "name": "filmRating",
      "outputs": [
        {
          "internalType": "enum Asset.FilmRatingEnum",
          "name": "",
          "type": "uint8"
        }
      ],
      "stateMutability": "view",
      "type": "function"
    },
    {
      "inputs": [],
      "name": "availableToUse",
      "outputs": [
        {
          "internalType": "bool",
          "name": "",
          "type": "bool"
        }
      ],
      "stateMutability": "view",
      "type": "function"
    },
    {
      "inputs": [],
      "name": "availableToBuy",
      "outputs": [
        {
          "internalType": "bool",
          "name": "",
          "type": "bool"
        }
      ],
      "stateMutability": "view",
      "type": "function"
    },
    {
      "inputs": [],
      "name": "getTags",
      "outputs": [
        {
          "internalType": "string[]",
          "name": "",
          "type": "string[]"
        }
      ],
      "stateMutability": "view",
      "type": "function"
    },
    {
      "inputs": [],
      "name": "getAssociations",
      "outputs": [
        {
          "internalType": "address[]",
          "name": "",
          "type": "address[]"
        }
      ],
      "stateMutability": "view",
      "type": "function"
    },
    {
      "inputs": [
        {
          "internalType": "enum Asset.AssetTypeEnum",
          "name": "assetType_",
          "type": "uint8"
        }
      ],
      "name": "setAssetType",
      "outputs": [],
      "stateMutability": "nonpayable",
      "type": "function"
    },
    {
      "inputs": [
        {
          "internalType": "string",
          "name": "description_",
          "type": "string"
        }
      ],
      "name": "setDescription",
      "outputs": [],
      "stateMutability": "nonpayable",
      "type": "function"
    },
    {
      "inputs": [
        {
          "internalType": "enum Asset.FilmRatingEnum",
          "name": "filmRating_",
          "type": "uint8"
        }
      ],
      "name": "setFilmRating",
      "outputs": [],
      "stateMutability": "nonpayable",
      "type": "function"
    },
    {
      "inputs": [
        {
          "internalType": "bool",
          "name": "availableToUse_",
          "type": "bool"
        }
      ],
      "name": "setAvailableToUse",
      "outputs": [],
      "stateMutability": "nonpayable",
      "type": "function"
    },
    {
      "inputs": [
        {
          "internalType": "bool",
          "name": "availableToBuy_",
          "type": "bool"
        }
      ],
      "name": "setAvailableToBuy",
      "outputs": [],
      "stateMutability": "nonpayable",
      "type": "function"
    },
    {
      "inputs": [
        {
          "internalType": "string[]",
          "name": "tags_",
          "type": "string[]"
        }
      ],
      "name": "setTags",
      "outputs": [],
      "stateMutability": "nonpayable",
      "type": "function"
    },
    {
      "inputs": [
        {
          "internalType": "address[]",
          "name": "associations_",
          "type": "address[]"
        }
      ],
      "name": "setAssociations",
      "outputs": [],
      "stateMutability": "nonpayable",
      "type": "function"
    }
  ],
  "bytecode": "0x608060405234801562000010575f80fd5b5060405162003b8b38038062003b8b833981810160405281019062000036919062000333565b338282815f9081620000499190620005ed565b5080600190816200005b9190620005ed565b5050505f73ffffffffffffffffffffffffffffffffffffffff168173ffffffffffffffffffffffffffffffffffffffff1603620000d1575f6040517f1e4fbdf7000000000000000000000000000000000000000000000000000000008152600401620000c8919062000714565b60405180910390fd5b620000e281620000eb60201b60201c565b5050506200072f565b5f60075f9054906101000a900473ffffffffffffffffffffffffffffffffffffffff1690508160075f6101000a81548173ffffffffffffffffffffffffffffffffffffffff021916908373ffffffffffffffffffffffffffffffffffffffff1602179055508173ffffffffffffffffffffffffffffffffffffffff168173ffffffffffffffffffffffffffffffffffffffff167f8be0079c531659141344cd1fd0a4f28419497f9722a3daafe3b4186f6b6457e060405160405180910390a35050565b5f604051905090565b5f80fd5b5f80fd5b5f80fd5b5f80fd5b5f601f19601f8301169050919050565b7f4e487b71000000000000000000000000000000000000000000000000000000005f52604160045260245ffd5b6200020f82620001c7565b810181811067ffffffffffffffff82111715620002315762000230620001d7565b5b80604052505050565b5f62000245620001ae565b905062000253828262000204565b919050565b5f67ffffffffffffffff821115620002755762000274620001d7565b5b6200028082620001c7565b9050602081019050919050565b5f5b83811015620002ac5780820151818401526020810190506200028f565b5f8484015250505050565b5f620002cd620002c78462000258565b6200023a565b905082815260208101848484011115620002ec57620002eb620001c3565b5b620002f98482856200028d565b509392505050565b5f82601f830112620003185762000317620001bf565b5b81516200032a848260208601620002b7565b91505092915050565b5f80604083850312156200034c576200034b620001b7565b5b5f83015167ffffffffffffffff8111156200036c576200036b620001bb565b5b6200037a8582860162000301565b925050602083015167ffffffffffffffff8111156200039e576200039d620001bb565b5b620003ac8582860162000301565b9150509250929050565b5f81519050919050565b7f4e487b71000000000000000000000000000000000000000000000000000000005f52602260045260245ffd5b5f60028204905060018216806200040557607f821691505b6020821081036200041b576200041a620003c0565b5b50919050565b5f819050815f5260205f209050919050565b5f6020601f8301049050919050565b5f82821b905092915050565b5f600883026200047f7fffffffffffffffffffffffffffffffffffffffffffffffffffffffffffffffff8262000442565b6200048b868362000442565b95508019841693508086168417925050509392505050565b5f819050919050565b5f819050919050565b5f620004d5620004cf620004c984620004a3565b620004ac565b620004a3565b9050919050565b5f819050919050565b620004f083620004b5565b62000508620004ff82620004dc565b8484546200044e565b825550505050565b5f90565b6200051e62000510565b6200052b818484620004e5565b505050565b5b818110156200055257620005465f8262000514565b60018101905062000531565b5050565b601f821115620005a1576200056b8162000421565b620005768462000433565b8101602085101562000586578190505b6200059e620005958562000433565b83018262000530565b50505b505050565b5f82821c905092915050565b5f620005c35f1984600802620005a6565b1980831691505092915050565b5f620005dd8383620005b2565b9150826002028217905092915050565b620005f882620003b6565b67ffffffffffffffff811115620006145762000613620001d7565b5b620006208254620003ed565b6200062d82828562000556565b5f60209050601f83116001811462000663575f84156200064e578287015190505b6200065a8582620005d0565b865550620006c9565b601f198416620006738662000421565b5f5b828110156200069c5784890151825560018201915060208501945060208101905062000675565b86831015620006bc5784890151620006b8601f891682620005b2565b8355505b6001600288020188555050505b505050505050565b5f73ffffffffffffffffffffffffffffffffffffffff82169050919050565b5f620006fc82620006d1565b9050919050565b6200070e81620006f0565b82525050565b5f602082019050620007295f83018462000703565b92915050565b61344e806200073d5f395ff3fe608060405234801561000f575f80fd5b50600436106101e3575f3560e01c80637284e4161161010d578063c87b56dd116100a0578063e985e9c51161006f578063e985e9c514610551578063ee991a0314610581578063efda21b01461059f578063f2fde38b146105bd576101e3565b8063c87b56dd146104b9578063d7f51b05146104e9578063e1590b2114610519578063e19e4e6214610535576101e3565b806395d89b41116100dc57806395d89b4114610445578063995d9ab714610463578063a22cb46514610481578063b88d4fde1461049d576101e3565b80637284e416146103d1578063854963ad146103ef5780638da5cb5b1461040b57806390c3f38f14610429576101e3565b80633fe3347a116101855780636110127711610154578063611012771461034b5780636352211e1461036757806370a0823114610397578063715018a6146103c7576101e3565b80633fe3347a146102d957806342842e0e146102f75780634aebdb981461031357806356b6d1c61461032f576101e3565b8063095ea7b3116101c1578063095ea7b3146102655780630d630490146102815780630e29f1e11461029f57806323b872dd146102bd576101e3565b806301ffc9a7146101e757806306fdde0314610217578063081812fc14610235575b5f80fd5b61020160048036038101906101fc919061220a565b6105d9565b60405161020e919061224f565b60405180910390f35b61021f610639565b60405161022c91906122f2565b60405180910390f35b61024f600480360381019061024a9190612345565b6106c8565b60405161025c91906123af565b60405180910390f35b61027f600480360381019061027a91906123f2565b6106e3565b005b6102896106f9565b60405161029691906124a3565b60405180910390f35b6102a761070e565b6040516102b4919061224f565b60405180910390f35b6102d760048036038101906102d291906124bc565b610724565b005b6102e1610823565b6040516102ee9190612552565b60405180910390f35b610311600480360381019061030c91906124bc565b610838565b005b61032d60048036038101906103289190612595565b610857565b005b61034960048036038101906103449190612700565b61087c565b005b6103656004803603810190610360919061276a565b61089e565b005b610381600480360381019061037c9190612345565b6108d2565b60405161038e91906123af565b60405180910390f35b6103b160048036038101906103ac9190612795565b6108e3565b6040516103be91906127cf565b60405180910390f35b6103cf610999565b005b6103d96109ac565b6040516103e691906122f2565b60405180910390f35b61040960048036038101906104049190612976565b610a3c565b005b610413610a5e565b60405161042091906123af565b60405180910390f35b610443600480360381019061043e91906129bd565b610a86565b005b61044d610aa1565b60405161045a91906122f2565b60405180910390f35b61046b610b31565b6040516104789190612b07565b60405180910390f35b61049b60048036038101906104969190612b27565b610c05565b005b6104b760048036038101906104b29190612c03565b610c1b565b005b6104d360048036038101906104ce9190612345565b610c38565b6040516104e091906122f2565b60405180910390f35b61050360048036038101906104fe9190612ca6565b610d43565b60405161051091906127cf565b60405180910390f35b610533600480360381019061052e9190612595565b610e4e565b005b61054f600480360381019061054a9190612dda565b610e73565b005b61056b60048036038101906105669190612e05565b610ea7565b604051610578919061224f565b60405180910390f35b610589610f35565b604051610596919061224f565b60405180910390f35b6105a7610f4b565b6040516105b49190612efa565b60405180910390f35b6105d760048036038101906105d29190612795565b610fd6565b005b5f634906490660e01b7bffffffffffffffffffffffffffffffffffffffffffffffffffffffff1916827bffffffffffffffffffffffffffffffffffffffffffffffffffffffff1916148061063257506106318261105a565b5b9050919050565b60605f805461064790612f47565b80601f016020809104026020016040519081016040528092919081815260200182805461067390612f47565b80156106be5780601f10610695576101008083540402835291602001916106be565b820191905f5260205f20905b8154815290600101906020018083116106a157829003601f168201915b5050505050905090565b5f6106d28261113b565b506106dc826111c1565b9050919050565b6106f582826106f06111fa565b611201565b5050565b5f600b5f9054906101000a900460ff16905090565b5f600b60019054906101000a900460ff16905090565b5f73ffffffffffffffffffffffffffffffffffffffff168273ffffffffffffffffffffffffffffffffffffffff1603610794575f6040517f64a0ae9200000000000000000000000000000000000000000000000000000000815260040161078b91906123af565b60405180910390fd5b5f6107a783836107a26111fa565b611213565b90508373ffffffffffffffffffffffffffffffffffffffff168173ffffffffffffffffffffffffffffffffffffffff161461081d578382826040517f64283d7b00000000000000000000000000000000000000000000000000000000815260040161081493929190612f77565b60405180910390fd5b50505050565b5f60095f9054906101000a900460ff16905090565b61085283838360405180602001604052805f815250610c1b565b505050565b61085f61141e565b80600b60016101000a81548160ff02191690831515021790555050565b61088461141e565b80600d908051906020019061089a92919061204b565b5050565b6108a661141e565b80600b5f6101000a81548160ff021916908360048111156108ca576108c9612430565b5b021790555050565b5f6108dc8261113b565b9050919050565b5f8073ffffffffffffffffffffffffffffffffffffffff168273ffffffffffffffffffffffffffffffffffffffff1603610954575f6040517f89c62b6400000000000000000000000000000000000000000000000000000000815260040161094b91906123af565b60405180910390fd5b60035f8373ffffffffffffffffffffffffffffffffffffffff1673ffffffffffffffffffffffffffffffffffffffff1681526020019081526020015f20549050919050565b6109a161141e565b6109aa5f6114a5565b565b6060600a80546109bb90612f47565b80601f01602080910402602001604051908101604052809291908181526020018280546109e790612f47565b8015610a325780601f10610a0957610100808354040283529160200191610a32565b820191905f5260205f20905b815481529060010190602001808311610a1557829003601f168201915b5050505050905090565b610a4461141e565b80600c9080519060200190610a5a9291906120d2565b5050565b5f60075f9054906101000a900473ffffffffffffffffffffffffffffffffffffffff16905090565b610a8e61141e565b80600a9081610a9d9190613149565b5050565b606060018054610ab090612f47565b80601f0160208091040260200160405190810160405280929190818152602001828054610adc90612f47565b8015610b275780601f10610afe57610100808354040283529160200191610b27565b820191905f5260205f20905b815481529060010190602001808311610b0a57829003601f168201915b5050505050905090565b6060600c805480602002602001604051908101604052809291908181526020015f905b82821015610bfc578382905f5260205f20018054610b7190612f47565b80601f0160208091040260200160405190810160405280929190818152602001828054610b9d90612f47565b8015610be85780601f10610bbf57610100808354040283529160200191610be8565b820191905f5260205f20905b815481529060010190602001808311610bcb57829003601f168201915b505050505081526020019060010190610b54565b50505050905090565b610c17610c106111fa565b8383611568565b5050565b610c26848484610724565b610c32848484846116d1565b50505050565b6060610c438261113b565b505f60065f8481526020019081526020015f208054610c6190612f47565b80601f0160208091040260200160405190810160405280929190818152602001828054610c8d90612f47565b8015610cd85780601f10610caf57610100808354040283529160200191610cd8565b820191905f5260205f20905b815481529060010190602001808311610cbb57829003601f168201915b505050505090505f610ce8611883565b90505f815103610cfc578192505050610d3e565b5f82511115610d30578082604051602001610d18929190613252565b60405160208183030381529060405292505050610d3e565b610d3984611899565b925050505b919050565b5f610d4c61141e565b5f60085f815480929190610d5f906132a2565b919050559050610d6f8b826118ff565b610d79818b6119f2565b8860095f6101000a81548160ff02191690836006811115610d9d57610d9c612430565b5b021790555087600a9081610db19190613149565b5086600b5f6101000a81548160ff02191690836004811115610dd657610dd5612430565b5b021790555085600b60016101000a81548160ff02191690831515021790555084600b60026101000a81548160ff02191690831515021790555083600c9080519060200190610e259291906120d2565b5082600d9080519060200190610e3c92919061204b565b50809150509998505050505050505050565b610e5661141e565b80600b60026101000a81548160ff02191690831515021790555050565b610e7b61141e565b8060095f6101000a81548160ff02191690836006811115610e9f57610e9e612430565b5b021790555050565b5f60055f8473ffffffffffffffffffffffffffffffffffffffff1673ffffffffffffffffffffffffffffffffffffffff1681526020019081526020015f205f8373ffffffffffffffffffffffffffffffffffffffff1673ffffffffffffffffffffffffffffffffffffffff1681526020019081526020015f205f9054906101000a900460ff16905092915050565b5f600b60029054906101000a900460ff16905090565b6060600d805480602002602001604051908101604052809291908181526020018280548015610fcc57602002820191905f5260205f20905b815f9054906101000a900473ffffffffffffffffffffffffffffffffffffffff1673ffffffffffffffffffffffffffffffffffffffff1681526020019060010190808311610f83575b5050505050905090565b610fde61141e565b5f73ffffffffffffffffffffffffffffffffffffffff168173ffffffffffffffffffffffffffffffffffffffff160361104e575f6040517f1e4fbdf700000000000000000000000000000000000000000000000000000000815260040161104591906123af565b60405180910390fd5b611057816114a5565b50565b5f7f80ac58cd000000000000000000000000000000000000000000000000000000007bffffffffffffffffffffffffffffffffffffffffffffffffffffffff1916827bffffffffffffffffffffffffffffffffffffffffffffffffffffffff1916148061112457507f5b5e139f000000000000000000000000000000000000000000000000000000007bffffffffffffffffffffffffffffffffffffffffffffffffffffffff1916827bffffffffffffffffffffffffffffffffffffffffffffffffffffffff1916145b80611134575061113382611a4c565b5b9050919050565b5f8061114683611ab5565b90505f73ffffffffffffffffffffffffffffffffffffffff168173ffffffffffffffffffffffffffffffffffffffff16036111b857826040517f7e2732890000000000000000000000000000000000000000000000000000000081526004016111af91906127cf565b60405180910390fd5b80915050919050565b5f60045f8381526020019081526020015f205f9054906101000a900473ffffffffffffffffffffffffffffffffffffffff169050919050565b5f33905090565b61120e8383836001611aee565b505050565b5f8061121e84611ab5565b90505f73ffffffffffffffffffffffffffffffffffffffff168373ffffffffffffffffffffffffffffffffffffffff161461125f5761125e818486611cad565b5b5f73ffffffffffffffffffffffffffffffffffffffff168173ffffffffffffffffffffffffffffffffffffffff16146112ea5761129e5f855f80611aee565b600160035f8373ffffffffffffffffffffffffffffffffffffffff1673ffffffffffffffffffffffffffffffffffffffff1681526020019081526020015f205f82825403925050819055505b5f73ffffffffffffffffffffffffffffffffffffffff168573ffffffffffffffffffffffffffffffffffffffff161461136957600160035f8773ffffffffffffffffffffffffffffffffffffffff1673ffffffffffffffffffffffffffffffffffffffff1681526020019081526020015f205f82825401925050819055505b8460025f8681526020019081526020015f205f6101000a81548173ffffffffffffffffffffffffffffffffffffffff021916908373ffffffffffffffffffffffffffffffffffffffff160217905550838573ffffffffffffffffffffffffffffffffffffffff168273ffffffffffffffffffffffffffffffffffffffff167fddf252ad1be2c89b69c2b068fc378daa952ba7f163c4a11628f55a4df523b3ef60405160405180910390a4809150509392505050565b6114266111fa565b73ffffffffffffffffffffffffffffffffffffffff16611444610a5e565b73ffffffffffffffffffffffffffffffffffffffff16146114a3576114676111fa565b6040517f118cdaa700000000000000000000000000000000000000000000000000000000815260040161149a91906123af565b60405180910390fd5b565b5f60075f9054906101000a900473ffffffffffffffffffffffffffffffffffffffff1690508160075f6101000a81548173ffffffffffffffffffffffffffffffffffffffff021916908373ffffffffffffffffffffffffffffffffffffffff1602179055508173ffffffffffffffffffffffffffffffffffffffff168173ffffffffffffffffffffffffffffffffffffffff167f8be0079c531659141344cd1fd0a4f28419497f9722a3daafe3b4186f6b6457e060405160405180910390a35050565b5f73ffffffffffffffffffffffffffffffffffffffff168273ffffffffffffffffffffffffffffffffffffffff16036115d857816040517f5b08ba180000000000000000000000000000000000000000000000000000000081526004016115cf91906123af565b60405180910390fd5b8060055f8573ffffffffffffffffffffffffffffffffffffffff1673ffffffffffffffffffffffffffffffffffffffff1681526020019081526020015f205f8473ffffffffffffffffffffffffffffffffffffffff1673ffffffffffffffffffffffffffffffffffffffff1681526020019081526020015f205f6101000a81548160ff0219169083151502179055508173ffffffffffffffffffffffffffffffffffffffff168373ffffffffffffffffffffffffffffffffffffffff167f17307eab39ab6107e8899845ad3d59bd9653f200f220920489ca2b5937696c31836040516116c4919061224f565b60405180910390a3505050565b5f8373ffffffffffffffffffffffffffffffffffffffff163b111561187d578273ffffffffffffffffffffffffffffffffffffffff1663150b7a026117146111fa565b8685856040518563ffffffff1660e01b8152600401611736949392919061333b565b6020604051808303815f875af192505050801561177157506040513d601f19601f8201168201806040525081019061176e9190613399565b60015b6117f2573d805f811461179f576040519150601f19603f3d011682016040523d82523d5f602084013e6117a4565b606091505b505f8151036117ea57836040517f64a0ae920000000000000000000000000000000000000000000000000000000081526004016117e191906123af565b60405180910390fd5b805181602001fd5b63150b7a0260e01b7bffffffffffffffffffffffffffffffffffffffffffffffffffffffff1916817bffffffffffffffffffffffffffffffffffffffffffffffffffffffff19161461187b57836040517f64a0ae9200000000000000000000000000000000000000000000000000000000815260040161187291906123af565b60405180910390fd5b505b50505050565b606060405180602001604052805f815250905090565b60606118a48261113b565b505f6118ae611883565b90505f8151116118cc5760405180602001604052805f8152506118f7565b806118d684611d70565b6040516020016118e7929190613252565b6040516020818303038152906040525b915050919050565b5f73ffffffffffffffffffffffffffffffffffffffff168273ffffffffffffffffffffffffffffffffffffffff160361196f575f6040517f64a0ae9200000000000000000000000000000000000000000000000000000000815260040161196691906123af565b60405180910390fd5b5f61197b83835f611213565b90505f73ffffffffffffffffffffffffffffffffffffffff168173ffffffffffffffffffffffffffffffffffffffff16146119ed575f6040517f73c6ac6e0000000000000000000000000000000000000000000000000000000081526004016119e491906123af565b60405180910390fd5b505050565b8060065f8481526020019081526020015f209081611a109190613149565b507ff8e1a15aba9398e019f0b49df1a4fde98ee17ae345cb5f6b5e2c27f5033e8ce782604051611a4091906127cf565b60405180910390a15050565b5f7f01ffc9a7000000000000000000000000000000000000000000000000000000007bffffffffffffffffffffffffffffffffffffffffffffffffffffffff1916827bffffffffffffffffffffffffffffffffffffffffffffffffffffffff1916149050919050565b5f60025f8381526020019081526020015f205f9054906101000a900473ffffffffffffffffffffffffffffffffffffffff169050919050565b8080611b2657505f73ffffffffffffffffffffffffffffffffffffffff168273ffffffffffffffffffffffffffffffffffffffff1614155b15611c58575f611b358461113b565b90505f73ffffffffffffffffffffffffffffffffffffffff168373ffffffffffffffffffffffffffffffffffffffff1614158015611b9f57508273ffffffffffffffffffffffffffffffffffffffff168173ffffffffffffffffffffffffffffffffffffffff1614155b8015611bb25750611bb08184610ea7565b155b15611bf457826040517fa9fbf51f000000000000000000000000000000000000000000000000000000008152600401611beb91906123af565b60405180910390fd5b8115611c5657838573ffffffffffffffffffffffffffffffffffffffff168273ffffffffffffffffffffffffffffffffffffffff167f8c5be1e5ebec7d5bd14f71427d1e84f3dd0314c0f7b2291e5b200ac8c7c3b92560405160405180910390a45b505b8360045f8581526020019081526020015f205f6101000a81548173ffffffffffffffffffffffffffffffffffffffff021916908373ffffffffffffffffffffffffffffffffffffffff16021790555050505050565b611cb8838383611e3a565b611d6b575f73ffffffffffffffffffffffffffffffffffffffff168373ffffffffffffffffffffffffffffffffffffffff1603611d2c57806040517f7e273289000000000000000000000000000000000000000000000000000000008152600401611d2391906127cf565b60405180910390fd5b81816040517f177e802f000000000000000000000000000000000000000000000000000000008152600401611d629291906133c4565b60405180910390fd5b505050565b60605f6001611d7e84611efa565b0190505f8167ffffffffffffffff811115611d9c57611d9b6125c4565b5b6040519080825280601f01601f191660200182016040528015611dce5781602001600182028036833780820191505090505b5090505f82602001820190505b600115611e2f578080600190039150507f3031323334353637383961626364656600000000000000000000000000000000600a86061a8153600a8581611e2457611e236133eb565b5b0494505f8503611ddb575b819350505050919050565b5f8073ffffffffffffffffffffffffffffffffffffffff168373ffffffffffffffffffffffffffffffffffffffff1614158015611ef157508273ffffffffffffffffffffffffffffffffffffffff168473ffffffffffffffffffffffffffffffffffffffff161480611eb25750611eb18484610ea7565b5b80611ef057508273ffffffffffffffffffffffffffffffffffffffff16611ed8836111c1565b73ffffffffffffffffffffffffffffffffffffffff16145b5b90509392505050565b5f805f90507a184f03e93ff9f4daa797ed6e38ed64bf6a1f0100000000000000008310611f56577a184f03e93ff9f4daa797ed6e38ed64bf6a1f0100000000000000008381611f4c57611f4b6133eb565b5b0492506040810190505b6d04ee2d6d415b85acef81000000008310611f93576d04ee2d6d415b85acef81000000008381611f8957611f886133eb565b5b0492506020810190505b662386f26fc100008310611fc257662386f26fc100008381611fb857611fb76133eb565b5b0492506010810190505b6305f5e1008310611feb576305f5e1008381611fe157611fe06133eb565b5b0492506008810190505b6127108310612010576127108381612006576120056133eb565b5b0492506004810190505b606483106120335760648381612029576120286133eb565b5b0492506002810190505b600a8310612042576001810190505b80915050919050565b828054828255905f5260205f209081019282156120c1579160200282015b828111156120c0578251825f6101000a81548173ffffffffffffffffffffffffffffffffffffffff021916908373ffffffffffffffffffffffffffffffffffffffff16021790555091602001919060010190612069565b5b5090506120ce9190612129565b5090565b828054828255905f5260205f20908101928215612118579160200282015b828111156121175782518290816121079190613149565b50916020019190600101906120f0565b5b5090506121259190612144565b5090565b5b80821115612140575f815f90555060010161212a565b5090565b5b80821115612163575f818161215a9190612167565b50600101612145565b5090565b50805461217390612f47565b5f825580601f1061218457506121a1565b601f0160209004905f5260205f20908101906121a09190612129565b5b50565b5f604051905090565b5f80fd5b5f80fd5b5f7fffffffff0000000000000000000000000000000000000000000000000000000082169050919050565b6121e9816121b5565b81146121f3575f80fd5b50565b5f81359050612204816121e0565b92915050565b5f6020828403121561221f5761221e6121ad565b5b5f61222c848285016121f6565b91505092915050565b5f8115159050919050565b61224981612235565b82525050565b5f6020820190506122625f830184612240565b92915050565b5f81519050919050565b5f82825260208201905092915050565b5f5b8381101561229f578082015181840152602081019050612284565b5f8484015250505050565b5f601f19601f8301169050919050565b5f6122c482612268565b6122ce8185612272565b93506122de818560208601612282565b6122e7816122aa565b840191505092915050565b5f6020820190508181035f83015261230a81846122ba565b905092915050565b5f819050919050565b61232481612312565b811461232e575f80fd5b50565b5f8135905061233f8161231b565b92915050565b5f6020828403121561235a576123596121ad565b5b5f61236784828501612331565b91505092915050565b5f73ffffffffffffffffffffffffffffffffffffffff82169050919050565b5f61239982612370565b9050919050565b6123a98161238f565b82525050565b5f6020820190506123c25f8301846123a0565b92915050565b6123d18161238f565b81146123db575f80fd5b50565b5f813590506123ec816123c8565b92915050565b5f8060408385031215612408576124076121ad565b5b5f612415858286016123de565b925050602061242685828601612331565b9150509250929050565b7f4e487b71000000000000000000000000000000000000000000000000000000005f52602160045260245ffd5b6005811061246e5761246d612430565b5b50565b5f81905061247e8261245d565b919050565b5f61248d82612471565b9050919050565b61249d81612483565b82525050565b5f6020820190506124b65f830184612494565b92915050565b5f805f606084860312156124d3576124d26121ad565b5b5f6124e0868287016123de565b93505060206124f1868287016123de565b925050604061250286828701612331565b9150509250925092565b6007811061251d5761251c612430565b5b50565b5f81905061252d8261250c565b919050565b5f61253c82612520565b9050919050565b61254c81612532565b82525050565b5f6020820190506125655f830184612543565b92915050565b61257481612235565b811461257e575f80fd5b50565b5f8135905061258f8161256b565b92915050565b5f602082840312156125aa576125a96121ad565b5b5f6125b784828501612581565b91505092915050565b5f80fd5b7f4e487b71000000000000000000000000000000000000000000000000000000005f52604160045260245ffd5b6125fa826122aa565b810181811067ffffffffffffffff82111715612619576126186125c4565b5b80604052505050565b5f61262b6121a4565b905061263782826125f1565b919050565b5f67ffffffffffffffff821115612656576126556125c4565b5b602082029050602081019050919050565b5f80fd5b5f61267d6126788461263c565b612622565b905080838252602082019050602084028301858111156126a05761269f612667565b5b835b818110156126c957806126b588826123de565b8452602084019350506020810190506126a2565b5050509392505050565b5f82601f8301126126e7576126e66125c0565b5b81356126f784826020860161266b565b91505092915050565b5f60208284031215612715576127146121ad565b5b5f82013567ffffffffffffffff811115612732576127316121b1565b5b61273e848285016126d3565b91505092915050565b60058110612753575f80fd5b50565b5f8135905061276481612747565b92915050565b5f6020828403121561277f5761277e6121ad565b5b5f61278c84828501612756565b91505092915050565b5f602082840312156127aa576127a96121ad565b5b5f6127b7848285016123de565b91505092915050565b6127c981612312565b82525050565b5f6020820190506127e25f8301846127c0565b92915050565b5f67ffffffffffffffff821115612802576128016125c4565b5b602082029050602081019050919050565b5f80fd5b5f67ffffffffffffffff821115612831576128306125c4565b5b61283a826122aa565b9050602081019050919050565b828183375f83830152505050565b5f61286761286284612817565b612622565b90508281526020810184848401111561288357612882612813565b5b61288e848285612847565b509392505050565b5f82601f8301126128aa576128a96125c0565b5b81356128ba848260208601612855565b91505092915050565b5f6128d56128d0846127e8565b612622565b905080838252602082019050602084028301858111156128f8576128f7612667565b5b835b8181101561293f57803567ffffffffffffffff81111561291d5761291c6125c0565b5b80860161292a8982612896565b855260208501945050506020810190506128fa565b5050509392505050565b5f82601f83011261295d5761295c6125c0565b5b813561296d8482602086016128c3565b91505092915050565b5f6020828403121561298b5761298a6121ad565b5b5f82013567ffffffffffffffff8111156129a8576129a76121b1565b5b6129b484828501612949565b91505092915050565b5f602082840312156129d2576129d16121ad565b5b5f82013567ffffffffffffffff8111156129ef576129ee6121b1565b5b6129fb84828501612896565b91505092915050565b5f81519050919050565b5f82825260208201905092915050565b5f819050602082019050919050565b5f82825260208201905092915050565b5f612a4782612268565b612a518185612a2d565b9350612a61818560208601612282565b612a6a816122aa565b840191505092915050565b5f612a808383612a3d565b905092915050565b5f602082019050919050565b5f612a9e82612a04565b612aa88185612a0e565b935083602082028501612aba85612a1e565b805f5b85811015612af55784840389528151612ad68582612a75565b9450612ae183612a88565b925060208a01995050600181019050612abd565b50829750879550505050505092915050565b5f6020820190508181035f830152612b1f8184612a94565b905092915050565b5f8060408385031215612b3d57612b3c6121ad565b5b5f612b4a858286016123de565b9250506020612b5b85828601612581565b9150509250929050565b5f67ffffffffffffffff821115612b7f57612b7e6125c4565b5b612b88826122aa565b9050602081019050919050565b5f612ba7612ba284612b65565b612622565b905082815260208101848484011115612bc357612bc2612813565b5b612bce848285612847565b509392505050565b5f82601f830112612bea57612be96125c0565b5b8135612bfa848260208601612b95565b91505092915050565b5f805f8060808587031215612c1b57612c1a6121ad565b5b5f612c28878288016123de565b9450506020612c39878288016123de565b9350506040612c4a87828801612331565b925050606085013567ffffffffffffffff811115612c6b57612c6a6121b1565b5b612c7787828801612bd6565b91505092959194509250565b60078110612c8f575f80fd5b50565b5f81359050612ca081612c83565b92915050565b5f805f805f805f805f6101208a8c031215612cc457612cc36121ad565b5b5f612cd18c828d016123de565b99505060208a013567ffffffffffffffff811115612cf257612cf16121b1565b5b612cfe8c828d01612896565b9850506040612d0f8c828d01612c92565b97505060608a013567ffffffffffffffff811115612d3057612d2f6121b1565b5b612d3c8c828d01612896565b9650506080612d4d8c828d01612756565b95505060a0612d5e8c828d01612581565b94505060c0612d6f8c828d01612581565b93505060e08a013567ffffffffffffffff811115612d9057612d8f6121b1565b5b612d9c8c828d01612949565b9250506101008a013567ffffffffffffffff811115612dbe57612dbd6121b1565b5b612dca8c828d016126d3565b9150509295985092959850929598565b5f60208284031215612def57612dee6121ad565b5b5f612dfc84828501612c92565b91505092915050565b5f8060408385031215612e1b57612e1a6121ad565b5b5f612e28858286016123de565b9250506020612e39858286016123de565b9150509250929050565b5f81519050919050565b5f82825260208201905092915050565b5f819050602082019050919050565b612e758161238f565b82525050565b5f612e868383612e6c565b60208301905092915050565b5f602082019050919050565b5f612ea882612e43565b612eb28185612e4d565b9350612ebd83612e5d565b805f5b83811015612eed578151612ed48882612e7b565b9750612edf83612e92565b925050600181019050612ec0565b5085935050505092915050565b5f6020820190508181035f830152612f128184612e9e565b905092915050565b7f4e487b71000000000000000000000000000000000000000000000000000000005f52602260045260245ffd5b5f6002820490506001821680612f5e57607f821691505b602082108103612f7157612f70612f1a565b5b50919050565b5f606082019050612f8a5f8301866123a0565b612f9760208301856127c0565b612fa460408301846123a0565b949350505050565b5f819050815f5260205f209050919050565b5f6020601f8301049050919050565b5f82821b905092915050565b5f600883026130087fffffffffffffffffffffffffffffffffffffffffffffffffffffffffffffffff82612fcd565b6130128683612fcd565b95508019841693508086168417925050509392505050565b5f819050919050565b5f61304d61304861304384612312565b61302a565b612312565b9050919050565b5f819050919050565b61306683613033565b61307a61307282613054565b848454612fd9565b825550505050565b5f90565b61308e613082565b61309981848461305d565b505050565b5b818110156130bc576130b15f82613086565b60018101905061309f565b5050565b601f821115613101576130d281612fac565b6130db84612fbe565b810160208510156130ea578190505b6130fe6130f685612fbe565b83018261309e565b50505b505050565b5f82821c905092915050565b5f6131215f1984600802613106565b1980831691505092915050565b5f6131398383613112565b9150826002028217905092915050565b61315282612268565b67ffffffffffffffff81111561316b5761316a6125c4565b5b6131758254612f47565b6131808282856130c0565b5f60209050601f8311600181146131b1575f841561319f578287015190505b6131a9858261312e565b865550613210565b601f1984166131bf86612fac565b5f5b828110156131e6578489015182556001820191506020850194506020810190506131c1565b8683101561320357848901516131ff601f891682613112565b8355505b6001600288020188555050505b505050505050565b5f81905092915050565b5f61322c82612268565b6132368185613218565b9350613246818560208601612282565b80840191505092915050565b5f61325d8285613222565b91506132698284613222565b91508190509392505050565b7f4e487b71000000000000000000000000000000000000000000000000000000005f52601160045260245ffd5b5f6132ac82612312565b91507fffffffffffffffffffffffffffffffffffffffffffffffffffffffffffffffff82036132de576132dd613275565b5b600182019050919050565b5f81519050919050565b5f82825260208201905092915050565b5f61330d826132e9565b61331781856132f3565b9350613327818560208601612282565b613330816122aa565b840191505092915050565b5f60808201905061334e5f8301876123a0565b61335b60208301866123a0565b61336860408301856127c0565b818103606083015261337a8184613303565b905095945050505050565b5f81519050613393816121e0565b92915050565b5f602082840312156133ae576133ad6121ad565b5b5f6133bb84828501613385565b91505092915050565b5f6040820190506133d75f8301856123a0565b6133e460208301846127c0565b9392505050565b7f4e487b71000000000000000000000000000000000000000000000000000000005f52601260045260245ffdfea26469706673582212204384485e2750b520f740176a58947d0f1dccb96bcb559484fd38a653810bfcd064736f6c63430008140033",
  "immutableReferences": {},
  "source": "// contracts/JeskeiAsset.sol\n// SPDX-License-Identifier: MIT\npragma solidity ^0.8.20;\n\nimport \"@openzeppelin/contracts/token/ERC721/extensions/ERC721URIStorage.sol\";\nimport \"@openzeppelin/contracts/access/Ownable.sol\";\n\ncontract Asset is ERC721URIStorage, Ownable {\n    enum AssetTypeEnum { Video, Audio, Script, Object, Film_Score, Physical_Asset, Other }\n    enum FilmRatingEnum { G, PG, PG13, R, NC17 }\n\n    uint256 private _nextTokenId;\n    AssetTypeEnum private _assetType;\n    string private _description;\n    FilmRatingEnum private _filmRating;\n    bool private _availableToUse;\n    bool private _availableToBuy;\n    string[] private _tags;\n    address[] private _associations; // List of Productions that have rights to use this asset\n\n    constructor(string memory name_, string memory symbol_) ERC721(name_, symbol_) Ownable(msg.sender) {}\n\n    function createAsset(\n        address assetCreator_,\n        string memory tokenURI_,\n        AssetTypeEnum assetType_,\n        string memory description_,\n        FilmRatingEnum filmRating_,\n        bool availableToUse_,\n        bool availableToBuy_,\n        string[] memory tags_,\n        address[] memory associations_\n    ) public onlyOwner returns (uint256) {\n        uint256 tokenId = _nextTokenId++;\n        _mint(assetCreator_, tokenId);\n        _setTokenURI(tokenId, tokenURI_);\n        _assetType = assetType_;\n        _description = description_;\n        _filmRating = filmRating_;\n        _availableToUse = availableToUse_;\n        _availableToBuy = availableToBuy_;\n        _tags = tags_;\n        _associations = associations_;\n        \n        return tokenId;\n    }\n\n    // Getter functions for public view\n    function assetType() public view returns (AssetTypeEnum) {\n        return _assetType;\n    }\n\n    function description() public view returns (string memory) {\n        return _description;\n    }\n\n    function filmRating() public view returns (FilmRatingEnum) {\n        return _filmRating;\n    }\n\n    function availableToUse() public view returns (bool) {\n        return _availableToUse;\n    }\n\n    function availableToBuy() public view returns (bool) {\n        return _availableToBuy;\n    }\n\n    function getTags() public view returns (string[] memory) {\n        return _tags;\n    }\n\n    function getAssociations() public view returns (address[] memory) {\n        return _associations;\n    }\n\n    // Setter functions with access control for the owner\n    function setAssetType(AssetTypeEnum assetType_) public onlyOwner {\n        _assetType = assetType_;\n    }\n\n    function setDescription(string memory description_) public onlyOwner {\n        _description = description_;\n    }\n\n    function setFilmRating(FilmRatingEnum filmRating_) public onlyOwner {\n        _filmRating = filmRating_;\n    }\n\n    function setAvailableToUse(bool availableToUse_) public onlyOwner {\n        _availableToUse = availableToUse_;\n    }\n\n    function setAvailableToBuy(bool availableToBuy_) public onlyOwner {\n        _availableToBuy = availableToBuy_;\n    }\n\n    function setTags(string[] memory tags_) public onlyOwner {\n        _tags = tags_;\n    }\n\n    function setAssociations(address[] memory associations_) public onlyOwner {\n        _associations = associations_;\n    }\n}\n",
  "sourcePath": "/home/eagle/Source/Jeskei/Jeskei-Solidity/contracts/JeskeiAsset.sol",
  "compiler": {
    "name": "solc",
    "version": "0.8.20+commit.a1b79de6.Emscripten.clang"
  },
  "schemaVersion": "3.4.16",
  "updatedAt": "2024-08-02T12:28:45.310Z",
  "devdoc": {
    "errors": {
      "ERC721IncorrectOwner(address,uint256,address)": [
        {
          "details": "Indicates an error related to the ownership over a particular token. Used in transfers.",
          "params": {
            "owner": "Address of the current owner of a token.",
            "sender": "Address whose tokens are being transferred.",
            "tokenId": "Identifier number of a token."
          }
        }
      ],
      "ERC721InsufficientApproval(address,uint256)": [
        {
          "details": "Indicates a failure with the `operator`s approval. Used in transfers.",
          "params": {
            "operator": "Address that may be allowed to operate on tokens without being their owner.",
            "tokenId": "Identifier number of a token."
          }
        }
      ],
      "ERC721InvalidApprover(address)": [
        {
          "details": "Indicates a failure with the `approver` of a token to be approved. Used in approvals.",
          "params": {
            "approver": "Address initiating an approval operation."
          }
        }
      ],
      "ERC721InvalidOperator(address)": [
        {
          "details": "Indicates a failure with the `operator` to be approved. Used in approvals.",
          "params": {
            "operator": "Address that may be allowed to operate on tokens without being their owner."
          }
        }
      ],
      "ERC721InvalidOwner(address)": [
        {
          "details": "Indicates that an address can't be an owner. For example, `address(0)` is a forbidden owner in EIP-20. Used in balance queries.",
          "params": {
            "owner": "Address of the current owner of a token."
          }
        }
      ],
      "ERC721InvalidReceiver(address)": [
        {
          "details": "Indicates a failure with the token `receiver`. Used in transfers.",
          "params": {
            "receiver": "Address to which tokens are being transferred."
          }
        }
      ],
      "ERC721InvalidSender(address)": [
        {
          "details": "Indicates a failure with the token `sender`. Used in transfers.",
          "params": {
            "sender": "Address whose tokens are being transferred."
          }
        }
      ],
      "ERC721NonexistentToken(uint256)": [
        {
          "details": "Indicates a `tokenId` whose `owner` is the zero address.",
          "params": {
            "tokenId": "Identifier number of a token."
          }
        }
      ],
      "OwnableInvalidOwner(address)": [
        {
          "details": "The owner is not a valid owner account. (eg. `address(0)`)"
        }
      ],
      "OwnableUnauthorizedAccount(address)": [
        {
          "details": "The caller account is not authorized to perform an operation."
        }
      ]
    },
    "events": {
      "Approval(address,address,uint256)": {
        "details": "Emitted when `owner` enables `approved` to manage the `tokenId` token."
      },
      "ApprovalForAll(address,address,bool)": {
        "details": "Emitted when `owner` enables or disables (`approved`) `operator` to manage all of its assets."
      },
      "BatchMetadataUpdate(uint256,uint256)": {
        "details": "This event emits when the metadata of a range of tokens is changed. So that the third-party platforms such as NFT market could timely update the images and related attributes of the NFTs."
      },
      "MetadataUpdate(uint256)": {
        "details": "This event emits when the metadata of a token is changed. So that the third-party platforms such as NFT market could timely update the images and related attributes of the NFT."
      },
      "Transfer(address,address,uint256)": {
        "details": "Emitted when `tokenId` token is transferred from `from` to `to`."
      }
    },
    "kind": "dev",
    "methods": {
      "approve(address,uint256)": {
        "details": "See {IERC721-approve}."
      },
      "balanceOf(address)": {
        "details": "See {IERC721-balanceOf}."
      },
      "getApproved(uint256)": {
        "details": "See {IERC721-getApproved}."
      },
      "isApprovedForAll(address,address)": {
        "details": "See {IERC721-isApprovedForAll}."
      },
      "name()": {
        "details": "See {IERC721Metadata-name}."
      },
      "owner()": {
        "details": "Returns the address of the current owner."
      },
      "ownerOf(uint256)": {
        "details": "See {IERC721-ownerOf}."
      },
      "renounceOwnership()": {
        "details": "Leaves the contract without owner. It will not be possible to call `onlyOwner` functions. Can only be called by the current owner. NOTE: Renouncing ownership will leave the contract without an owner, thereby disabling any functionality that is only available to the owner."
      },
      "safeTransferFrom(address,address,uint256)": {
        "details": "See {IERC721-safeTransferFrom}."
      },
      "safeTransferFrom(address,address,uint256,bytes)": {
        "details": "See {IERC721-safeTransferFrom}."
      },
      "setApprovalForAll(address,bool)": {
        "details": "See {IERC721-setApprovalForAll}."
      },
      "supportsInterface(bytes4)": {
        "details": "See {IERC165-supportsInterface}"
      },
      "symbol()": {
        "details": "See {IERC721Metadata-symbol}."
      },
      "tokenURI(uint256)": {
        "details": "See {IERC721Metadata-tokenURI}."
      },
      "transferFrom(address,address,uint256)": {
        "details": "See {IERC721-transferFrom}."
      },
      "transferOwnership(address)": {
        "details": "Transfers ownership of the contract to a new account (`newOwner`). Can only be called by the current owner."
      }
    },
    "version": 1
  },
  "userdoc": {
    "kind": "user",
    "methods": {},
    "version": 1
  }
}