{
  "contractName": "HelperLib",
  "abi": [
    {
      "inputs": [
        {
          "internalType": "uint256",
          "name": "amount",
          "type": "uint256"
        },
        {
          "internalType": "uint256",
          "name": "conversionRate",
          "type": "uint256"
        }
      ],
      "name": "convert",
      "outputs": [
        {
          "internalType": "uint256",
          "name": "convertedAmount",
          "type": "uint256"
        }
      ],
      "stateMutability": "pure",
      "type": "function"
    },
    {
      "inputs": [
        {
          "internalType": "string",
          "name": "str1",
          "type": "string"
        },
        {
          "internalType": "string",
          "name": "str2",
          "type": "string"
        }
      ],
      "name": "concatenate",
      "outputs": [
        {
          "internalType": "string",
          "name": "",
          "type": "string"
        }
      ],
      "stateMutability": "pure",
      "type": "function"
    }
  ],
  "bytecode": "0x6104db61004e600b8282823980515f1a607314610042577f4e487b71000000000000000000000000000000000000000000000000000000005f525f60045260245ffd5b305f52607381538281f3fe730000000000000000000000000000000000000000301460806040526004361061003f575f3560e01c8063266001d31461004357806396e4ee3d14610073575b5f80fd5b61005d60048036038101906100589190610231565b6100a3565b60405161006a9190610321565b60405180910390f35b61008d60048036038101906100889190610374565b6100cf565b60405161009a91906103c1565b60405180910390f35b606082826040516020016100b8929190610414565b604051602081830303815290604052905092915050565b5f81836100dc9190610464565b905092915050565b5f604051905090565b5f80fd5b5f80fd5b5f80fd5b5f80fd5b5f601f19601f8301169050919050565b7f4e487b71000000000000000000000000000000000000000000000000000000005f52604160045260245ffd5b610143826100fd565b810181811067ffffffffffffffff821117156101625761016161010d565b5b80604052505050565b5f6101746100e4565b9050610180828261013a565b919050565b5f67ffffffffffffffff82111561019f5761019e61010d565b5b6101a8826100fd565b9050602081019050919050565b828183375f83830152505050565b5f6101d56101d084610185565b61016b565b9050828152602081018484840111156101f1576101f06100f9565b5b6101fc8482856101b5565b509392505050565b5f82601f830112610218576102176100f5565b5b81356102288482602086016101c3565b91505092915050565b5f8060408385031215610247576102466100ed565b5b5f83013567ffffffffffffffff811115610264576102636100f1565b5b61027085828601610204565b925050602083013567ffffffffffffffff811115610291576102906100f1565b5b61029d85828601610204565b9150509250929050565b5f81519050919050565b5f82825260208201905092915050565b5f5b838110156102de5780820151818401526020810190506102c3565b5f8484015250505050565b5f6102f3826102a7565b6102fd81856102b1565b935061030d8185602086016102c1565b610316816100fd565b840191505092915050565b5f6020820190508181035f83015261033981846102e9565b905092915050565b5f819050919050565b61035381610341565b811461035d575f80fd5b50565b5f8135905061036e8161034a565b92915050565b5f806040838503121561038a576103896100ed565b5b5f61039785828601610360565b92505060206103a885828601610360565b9150509250929050565b6103bb81610341565b82525050565b5f6020820190506103d45f8301846103b2565b92915050565b5f81905092915050565b5f6103ee826102a7565b6103f881856103da565b93506104088185602086016102c1565b80840191505092915050565b5f61041f82856103e4565b915061042b82846103e4565b91508190509392505050565b7f4e487b71000000000000000000000000000000000000000000000000000000005f52601160045260245ffd5b5f61046e82610341565b915061047983610341565b925082820261048781610341565b9150828204841483151761049e5761049d610437565b5b509291505056fea264697066735822122010ece91367ad472b0390c89d349aa6c2177144d0ead94bf3093158a9d85c027a64736f6c63430008140033",
  "immutableReferences": {},
  "source": "// SPDX-License-Identifier: MIT\npragma solidity ^0.8.20;\n\n// A library is like a contract with reusable code, which can be called by other contracts.\n// Deploying common code can reduce gas costs.\nlibrary HelperLib{\n\t\n\tfunction convert(uint amount, uint conversionRate) public pure returns (uint convertedAmount)\n\t{\n\t\treturn amount * conversionRate;\n\t}\n\n\t// Converts a uint256 to its ASCII string decimal representation\n    function toString(uint256 value) internal pure returns (string memory) {\n        // If the value is zero, return \"0\"\n        if (value == 0) {\n            return \"0\";\n        }\n        uint256 temp = value;\n        uint256 digits;\n        // Count the number of digits in the number\n        while (temp != 0) {\n            digits++;\n            temp /= 10;\n        }\n        // Create a buffer to hold the number as a string\n        bytes memory buffer = new bytes(digits);\n        // Convert each digit to a character\n        while (value != 0) {\n            digits -= 1;\n            buffer[digits] = bytes1(uint8(48 + uint256(value % 10)));\n            value /= 10;\n        }\n        // Return the final string\n        return string(buffer);\n    }\n\n    // Concatenates two strings and returns the result\n    function concatenate(string memory str1, string memory str2) public pure returns (string memory) {\n        return string(abi.encodePacked(str1, str2));\n    }\n}\n",
  "sourcePath": "/home/eagle/Source/Jeskei/Jeskei-Solidity/contracts/lib/HelperLib.sol",
  "compiler": {
    "name": "solc",
    "version": "0.8.20+commit.a1b79de6.Emscripten.clang"
  },
  "schemaVersion": "3.4.16",
  "updatedAt": "2024-08-02T20:26:52.521Z",
  "devdoc": {
    "kind": "dev",
    "methods": {},
    "version": 1
  },
  "userdoc": {
    "kind": "user",
    "methods": {},
    "version": 1
  }
}