{
  "contractName": "JeskeiStudio",
  "abi": [
    {
      "anonymous": false,
      "inputs": [
        {
          "indexed": false,
          "internalType": "bytes32",
          "name": "id",
          "type": "bytes32"
        },
        {
          "indexed": false,
          "internalType": "string",
          "name": "name",
          "type": "string"
        },
        {
          "indexed": false,
          "internalType": "string",
          "name": "description",
          "type": "string"
        },
        {
          "indexed": false,
          "internalType": "address",
          "name": "logoNft",
          "type": "address"
        }
      ],
      "name": "StudioRegistered",
      "type": "event"
    },
    {
      "inputs": [
        {
          "internalType": "string",
          "name": "name",
          "type": "string"
        },
        {
          "internalType": "string",
          "name": "description",
          "type": "string"
        },
        {
          "internalType": "address",
          "name": "logoNft",
          "type": "address"
        }
      ],
      "name": "register",
      "outputs": [],
      "stateMutability": "nonpayable",
      "type": "function"
    },
    {
      "inputs": [],
      "name": "getStudios",
      "outputs": [
        {
          "internalType": "bytes32[]",
          "name": "",
          "type": "bytes32[]"
        }
      ],
      "stateMutability": "view",
      "type": "function"
    }
  ],
  "bytecode": "0x608060405234801561000f575f80fd5b50610c7e8061001d5f395ff3fe608060405234801561000f575f80fd5b5060043610610034575f3560e01c80635664d69c146100385780637c78c1cb14610054575b5f80fd5b610052600480360381019061004d9190610579565b610072565b005b61005c61037c565b60405161006991906106c1565b60405180910390f35b5f8383836001436100839190610717565b40604051602001610097949392919061081b565b6040516020818303038152906040528051906020012090505f801b5f808381526020019081526020015f205f015414610105576040517f08c379a00000000000000000000000000000000000000000000000000000000081526004016100fc906108ba565b60405180910390fd5b5f805f8381526020019081526020015f20905081815f0181905550848160010190816101319190610ad2565b50838160020190816101439190610ad2565b5082816003015f6101000a81548173ffffffffffffffffffffffffffffffffffffffff021916908373ffffffffffffffffffffffffffffffffffffffff1602179055508060040133908060018154018082558091505060019003905f5260205f20015f9091909190916101000a81548173ffffffffffffffffffffffffffffffffffffffff021916908373ffffffffffffffffffffffffffffffffffffffff1602179055508060050133908060018154018082558091505060019003905f5260205f20015f9091909190916101000a81548173ffffffffffffffffffffffffffffffffffffffff021916908373ffffffffffffffffffffffffffffffffffffffff160217905550600182908060018154018082558091505060019003905f5260205f20015f9091909190915055600160025f8481526020019081526020015f205f3373ffffffffffffffffffffffffffffffffffffffff1673ffffffffffffffffffffffffffffffffffffffff1681526020019081526020015f205f6101000a81548160ff021916908315150217905550600160035f8481526020019081526020015f205f3373ffffffffffffffffffffffffffffffffffffffff1673ffffffffffffffffffffffffffffffffffffffff1681526020019081526020015f205f6101000a81548160ff0219169083151502179055507ff08ac2deb9fbc9662b1cf91d5c9b47a07f836d568081aa0c088064a4ad71e07b8286868660405161036d9493929190610bf7565b60405180910390a15050505050565b606060018054806020026020016040519081016040528092919081815260200182805480156103c857602002820191905f5260205f20905b8154815260200190600101908083116103b4575b5050505050905090565b5f604051905090565b5f80fd5b5f80fd5b5f80fd5b5f80fd5b5f601f19601f8301169050919050565b7f4e487b71000000000000000000000000000000000000000000000000000000005f52604160045260245ffd5b610431826103eb565b810181811067ffffffffffffffff821117156104505761044f6103fb565b5b80604052505050565b5f6104626103d2565b905061046e8282610428565b919050565b5f67ffffffffffffffff82111561048d5761048c6103fb565b5b610496826103eb565b9050602081019050919050565b828183375f83830152505050565b5f6104c36104be84610473565b610459565b9050828152602081018484840111156104df576104de6103e7565b5b6104ea8482856104a3565b509392505050565b5f82601f830112610506576105056103e3565b5b81356105168482602086016104b1565b91505092915050565b5f73ffffffffffffffffffffffffffffffffffffffff82169050919050565b5f6105488261051f565b9050919050565b6105588161053e565b8114610562575f80fd5b50565b5f813590506105738161054f565b92915050565b5f805f606084860312156105905761058f6103db565b5b5f84013567ffffffffffffffff8111156105ad576105ac6103df565b5b6105b9868287016104f2565b935050602084013567ffffffffffffffff8111156105da576105d96103df565b5b6105e6868287016104f2565b92505060406105f786828701610565565b9150509250925092565b5f81519050919050565b5f82825260208201905092915050565b5f819050602082019050919050565b5f819050919050565b61063c8161062a565b82525050565b5f61064d8383610633565b60208301905092915050565b5f602082019050919050565b5f61066f82610601565b610679818561060b565b93506106848361061b565b805f5b838110156106b457815161069b8882610642565b97506106a683610659565b925050600181019050610687565b5085935050505092915050565b5f6020820190508181035f8301526106d98184610665565b905092915050565b5f819050919050565b7f4e487b71000000000000000000000000000000000000000000000000000000005f52601160045260245ffd5b5f610721826106e1565b915061072c836106e1565b9250828203905081811115610744576107436106ea565b5b92915050565b5f81519050919050565b5f81905092915050565b5f5b8381101561077b578082015181840152602081019050610760565b5f8484015250505050565b5f6107908261074a565b61079a8185610754565b93506107aa81856020860161075e565b80840191505092915050565b5f8160601b9050919050565b5f6107cc826107b6565b9050919050565b5f6107dd826107c2565b9050919050565b6107f56107f08261053e565b6107d3565b82525050565b5f819050919050565b6108156108108261062a565b6107fb565b82525050565b5f6108268287610786565b91506108328286610786565b915061083e82856107e4565b60148201915061084e8284610804565b60208201915081905095945050505050565b5f82825260208201905092915050565b7f53747564696f20616c72656164792065786973747300000000000000000000005f82015250565b5f6108a4601583610860565b91506108af82610870565b602082019050919050565b5f6020820190508181035f8301526108d181610898565b9050919050565b7f4e487b71000000000000000000000000000000000000000000000000000000005f52602260045260245ffd5b5f600282049050600182168061091c57607f821691505b60208210810361092f5761092e6108d8565b5b50919050565b5f819050815f5260205f209050919050565b5f6020601f8301049050919050565b5f82821b905092915050565b5f600883026109917fffffffffffffffffffffffffffffffffffffffffffffffffffffffffffffffff82610956565b61099b8683610956565b95508019841693508086168417925050509392505050565b5f819050919050565b5f6109d66109d16109cc846106e1565b6109b3565b6106e1565b9050919050565b5f819050919050565b6109ef836109bc565b610a036109fb826109dd565b848454610962565b825550505050565b5f90565b610a17610a0b565b610a228184846109e6565b505050565b5b81811015610a4557610a3a5f82610a0f565b600181019050610a28565b5050565b601f821115610a8a57610a5b81610935565b610a6484610947565b81016020851015610a73578190505b610a87610a7f85610947565b830182610a27565b50505b505050565b5f82821c905092915050565b5f610aaa5f1984600802610a8f565b1980831691505092915050565b5f610ac28383610a9b565b9150826002028217905092915050565b610adb8261074a565b67ffffffffffffffff811115610af457610af36103fb565b5b610afe8254610905565b610b09828285610a49565b5f60209050601f831160018114610b3a575f8415610b28578287015190505b610b328582610ab7565b865550610b99565b601f198416610b4886610935565b5f5b82811015610b6f57848901518255600182019150602085019450602081019050610b4a565b86831015610b8c5784890151610b88601f891682610a9b565b8355505b6001600288020188555050505b505050505050565b610baa8161062a565b82525050565b5f610bba8261074a565b610bc48185610860565b9350610bd481856020860161075e565b610bdd816103eb565b840191505092915050565b610bf18161053e565b82525050565b5f608082019050610c0a5f830187610ba1565b8181036020830152610c1c8186610bb0565b90508181036040830152610c308185610bb0565b9050610c3f6060830184610be8565b9594505050505056fea2646970667358221220aab1f1db9b61d01ec69378db6414f0e7a68be51e5625621f61247b68e7a4a4de64736f6c63430008140033",
  "immutableReferences": {},
  "source": "// SPDX-License-Identifier: MIT\npragma solidity ^0.8.20;\n\ncontract JeskeiStudio {\n\n    enum StudioType { Incorporated, Digital, Other }\n\n    struct Studio {\n        bytes32 id;\n        string name;\n        string description;\n        address logoNft;\n        address[] associates;\n        address[] administrators;\n        bytes32[] productions;\n    }\n\n    mapping(bytes32 => Studio) private studios;\n    bytes32[] private studioIds;\n    mapping(bytes32 => mapping(address => bool)) private isAssociate;\n    mapping(bytes32 => mapping(address => bool)) private isAdministrator;\n\n    event StudioRegistered(bytes32 id, string name, string description, address logoNft);\n\n    function register(string memory name, string memory description, address logoNft) public {\n        bytes32 id = keccak256(abi.encodePacked(name, description, logoNft, blockhash(block.number - 1)));\n\n        require(studios[id].id == 0, \"Studio already exists\");\n\n        Studio storage newStudio = studios[id];\n        newStudio.id = id;\n        newStudio.name = name;\n        newStudio.description = description;\n        newStudio.logoNft = logoNft;\n        newStudio.associates.push(msg.sender);\n        newStudio.administrators.push(msg.sender);\n\n        studioIds.push(id);\n        isAssociate[id][msg.sender] = true;\n        isAdministrator[id][msg.sender] = true;\n\n        emit StudioRegistered(id, name, description, logoNft);\n    }\n\n    function getStudios() public view returns (bytes32[] memory) {\n        return studioIds;\n    }\n\n    modifier checkStudioAssociate(bytes32 studio) {\n        require(isAssociate[studio][msg.sender], \"Not an associate\");\n        _;\n    }\n\n    modifier checkStudioAdministrator(bytes32 studio) {\n        require(isAdministrator[studio][msg.sender], \"Not an administrator\");\n        _;\n    }\n}\n",
  "sourcePath": "/home/eagle/Source/Jeskei/Jeskei-Solidity/contracts/JeskeiStudio.sol",
  "compiler": {
    "name": "solc",
    "version": "0.8.20+commit.a1b79de6.Emscripten.clang"
  },
  "schemaVersion": "3.4.16",
  "updatedAt": "2024-08-02T09:24:01.748Z",
  "devdoc": {
    "kind": "dev",
    "methods": {},
    "version": 1
  },
  "userdoc": {
    "kind": "user",
    "methods": {},
    "version": 1
  }
}