{
  "contractName": "JeskeiAccount",
  "abi": [
    {
      "inputs": [],
      "stateMutability": "nonpayable",
      "type": "constructor"
    },
    {
      "inputs": [
        {
          "internalType": "bool",
          "name": "producer",
          "type": "bool"
        },
        {
          "internalType": "bool",
          "name": "consumer",
          "type": "bool"
        },
        {
          "internalType": "bool",
          "name": "investor",
          "type": "bool"
        },
        {
          "internalType": "string",
          "name": "email",
          "type": "string"
        },
        {
          "internalType": "string",
          "name": "name",
          "type": "string"
        },
        {
          "internalType": "string",
          "name": "description",
          "type": "string"
        },
        {
          "internalType": "address",
          "name": "profileNft",
          "type": "address"
        }
      ],
      "name": "register",
      "outputs": [],
      "stateMutability": "nonpayable",
      "type": "function"
    }
  ],
  "bytecode": "0x608060405234801561000f575f80fd5b506107f48061001d5f395ff3fe608060405234801561000f575f80fd5b5060043610610029575f3560e01c8063baab91251461002d575b5f80fd5b610047600480360381019061004291906103f1565b610049565b005b5f6040518061010001604052803373ffffffffffffffffffffffffffffffffffffffff1681526020018915158152602001881515815260200187151581526020018681526020018581526020018481526020018373ffffffffffffffffffffffffffffffffffffffff1681525090505f81908060018154018082558091505060019003905f5260205f2090600502015f909190919091505f820151815f015f6101000a81548173ffffffffffffffffffffffffffffffffffffffff021916908373ffffffffffffffffffffffffffffffffffffffff1602179055506020820151815f0160146101000a81548160ff0219169083151502179055506040820151815f0160156101000a81548160ff0219169083151502179055506060820151815f0160166101000a81548160ff021916908315150217905550608082015181600101908161019691906106ef565b5060a08201518160020190816101ac91906106ef565b5060c08201518160030190816101c291906106ef565b5060e0820151816004015f6101000a81548173ffffffffffffffffffffffffffffffffffffffff021916908373ffffffffffffffffffffffffffffffffffffffff16021790555050505050505050505050565b5f604051905090565b5f80fd5b5f80fd5b5f8115159050919050565b61023a81610226565b8114610244575f80fd5b50565b5f8135905061025581610231565b92915050565b5f80fd5b5f80fd5b5f601f19601f8301169050919050565b7f4e487b71000000000000000000000000000000000000000000000000000000005f52604160045260245ffd5b6102a982610263565b810181811067ffffffffffffffff821117156102c8576102c7610273565b5b80604052505050565b5f6102da610215565b90506102e682826102a0565b919050565b5f67ffffffffffffffff82111561030557610304610273565b5b61030e82610263565b9050602081019050919050565b828183375f83830152505050565b5f61033b610336846102eb565b6102d1565b9050828152602081018484840111156103575761035661025f565b5b61036284828561031b565b509392505050565b5f82601f83011261037e5761037d61025b565b5b813561038e848260208601610329565b91505092915050565b5f73ffffffffffffffffffffffffffffffffffffffff82169050919050565b5f6103c082610397565b9050919050565b6103d0816103b6565b81146103da575f80fd5b50565b5f813590506103eb816103c7565b92915050565b5f805f805f805f60e0888a03121561040c5761040b61021e565b5b5f6104198a828b01610247565b975050602061042a8a828b01610247565b965050604061043b8a828b01610247565b955050606088013567ffffffffffffffff81111561045c5761045b610222565b5b6104688a828b0161036a565b945050608088013567ffffffffffffffff81111561048957610488610222565b5b6104958a828b0161036a565b93505060a088013567ffffffffffffffff8111156104b6576104b5610222565b5b6104c28a828b0161036a565b92505060c06104d38a828b016103dd565b91505092959891949750929550565b5f81519050919050565b7f4e487b71000000000000000000000000000000000000000000000000000000005f52602260045260245ffd5b5f600282049050600182168061053057607f821691505b602082108103610543576105426104ec565b5b50919050565b5f819050815f5260205f209050919050565b5f6020601f8301049050919050565b5f82821b905092915050565b5f600883026105a57fffffffffffffffffffffffffffffffffffffffffffffffffffffffffffffffff8261056a565b6105af868361056a565b95508019841693508086168417925050509392505050565b5f819050919050565b5f819050919050565b5f6105f36105ee6105e9846105c7565b6105d0565b6105c7565b9050919050565b5f819050919050565b61060c836105d9565b610620610618826105fa565b848454610576565b825550505050565b5f90565b610634610628565b61063f818484610603565b505050565b5b81811015610662576106575f8261062c565b600181019050610645565b5050565b601f8211156106a75761067881610549565b6106818461055b565b81016020851015610690578190505b6106a461069c8561055b565b830182610644565b50505b505050565b5f82821c905092915050565b5f6106c75f19846008026106ac565b1980831691505092915050565b5f6106df83836106b8565b9150826002028217905092915050565b6106f8826104e2565b67ffffffffffffffff81111561071157610710610273565b5b61071b8254610519565b610726828285610666565b5f60209050601f831160018114610757575f8415610745578287015190505b61074f85826106d4565b8655506107b6565b601f19841661076586610549565b5f5b8281101561078c57848901518255600182019150602085019450602081019050610767565b868310156107a957848901516107a5601f8916826106b8565b8355505b6001600288020188555050505b50505050505056fea2646970667358221220fd0d38587e459ef96dfea12d87229ab5fec1e11b90b4ec2647601bb3b4776c9d64736f6c63430008140033",
  "immutableReferences": {},
  "source": "// SPDX-License-Identifier: MIT\npragma solidity ^0.8.20;\n\ncontract JeskeiAccount {\n    Account[] accounts;\n\n    struct Account {\n        address account_address;\n        bool bProducer;\n        bool bConsumer;\n        bool bInvestor;\n        string email;\n        string name;\n        string profile_description;\n        address profileNft;\n    }\n\n    constructor() {\n    }\n\n    function register(bool producer, bool consumer, bool investor, string memory email, string memory name, string memory description, address profileNft) public {\n        Account memory newAccount = Account(msg.sender, producer, consumer, investor, email, name, description, profileNft);\n        accounts.push(newAccount);\n    }\n}",
  "sourcePath": "/home/eagle/Source/Jeskei/Jeskei-Solidity/contracts/JeskeiAccount.sol",
  "compiler": {
    "name": "solc",
    "version": "0.8.20+commit.a1b79de6.Emscripten.clang"
  },
  "schemaVersion": "3.4.16",
  "updatedAt": "2024-08-02T09:24:01.689Z",
  "devdoc": {
    "kind": "dev",
    "methods": {},
    "version": 1
  },
  "userdoc": {
    "kind": "user",
    "methods": {},
    "version": 1
  }
}