{
  "contractName": "JeskeiProduction",
  "abi": [
    {
      "inputs": [
        {
          "internalType": "bytes32",
          "name": "studio",
          "type": "bytes32"
        },
        {
          "internalType": "string",
          "name": "name",
          "type": "string"
        },
        {
          "internalType": "string",
          "name": "description",
          "type": "string"
        },
        {
          "internalType": "enum JeskeiProduction.AgeRating",
          "name": "age_Rating",
          "type": "uint8"
        }
      ],
      "name": "createProduction",
      "outputs": [],
      "stateMutability": "nonpayable",
      "type": "function"
    },
    {
      "inputs": [
        {
          "internalType": "bytes32",
          "name": "productionId",
          "type": "bytes32"
        }
      ],
      "name": "deleteProduction",
      "outputs": [],
      "stateMutability": "nonpayable",
      "type": "function"
    },
    {
      "inputs": [
        {
          "internalType": "bytes32",
          "name": "productionId",
          "type": "bytes32"
        },
        {
          "internalType": "bytes32",
          "name": "targetStudio",
          "type": "bytes32"
        }
      ],
      "name": "transferProduction",
      "outputs": [],
      "stateMutability": "nonpayable",
      "type": "function"
    },
    {
      "inputs": [
        {
          "internalType": "bytes32",
          "name": "productionId",
          "type": "bytes32"
        },
        {
          "internalType": "bytes32",
          "name": "assetId",
          "type": "bytes32"
        }
      ],
      "name": "addAsset",
      "outputs": [],
      "stateMutability": "nonpayable",
      "type": "function"
    },
    {
      "inputs": [
        {
          "internalType": "bytes32",
          "name": "productionId",
          "type": "bytes32"
        },
        {
          "internalType": "bytes32[]",
          "name": "assetIds",
          "type": "bytes32[]"
        }
      ],
      "name": "addAssets",
      "outputs": [],
      "stateMutability": "nonpayable",
      "type": "function"
    },
    {
      "inputs": [
        {
          "internalType": "bytes32",
          "name": "productionId",
          "type": "bytes32"
        },
        {
          "internalType": "bytes32",
          "name": "assetId",
          "type": "bytes32"
        }
      ],
      "name": "removeAsset",
      "outputs": [],
      "stateMutability": "nonpayable",
      "type": "function"
    },
    {
      "inputs": [
        {
          "internalType": "bytes32",
          "name": "studioId",
          "type": "bytes32"
        }
      ],
      "name": "getStudioProductions",
      "outputs": [
        {
          "internalType": "bytes32[]",
          "name": "",
          "type": "bytes32[]"
        }
      ],
      "stateMutability": "view",
      "type": "function"
    }
  ],
  "bytecode": "0x608060405234801561000f575f80fd5b506118708061001d5f395ff3fe608060405234801561000f575f80fd5b506004361061007b575f3560e01c8063785368e311610059578063785368e3146100d35780637e98620c146100ef5780638062196c1461010b578063e9ac5fa6146101275761007b565b806318ea8e371461007f5780631ebd0da21461009b5780631f4c1d96146100b7575b5f80fd5b61009960048036038101906100949190610cef565b610157565b005b6100b560048036038101906100b09190610cef565b610247565b005b6100d160048036038101906100cc9190610d2d565b610401565b005b6100ed60048036038101906100e89190610cef565b610667565b005b61010960048036038101906101049190610eb7565b610738565b005b61012560048036038101906101209190611017565b6108b7565b005b610141600480360381019061013c9190610d2d565b6109e0565b60405161014e9190611128565b60405180910390f35b815f60015f8381526020019081526020015f20541415806101a757505f80805490501180156101a65750805f808154811061019557610194611148565b5b905f5260205f2090600702015f0154145b5b6101e6576040517f08c379a00000000000000000000000000000000000000000000000000000000081526004016101dd906111cf565b60405180910390fd5b5f60015f8581526020019081526020015f205490505f818154811061020e5761020d611148565b5b905f5260205f20906007020160040183908060018154018082558091505060019003905f5260205f20015f909190919091505550505050565b815f60015f8381526020019081526020015f205414158061029757505f80805490501180156102965750805f808154811061028557610284611148565b5b905f5260205f2090600702015f0154145b5b6102d6576040517f08c379a00000000000000000000000000000000000000000000000000000000081526004016102cd906111cf565b60405180910390fd5b5f60015f8581526020019081526020015f205490505f80808381548110610300576102ff611148565b5b905f5260205f20906007020160040190505f5b818054905081101561035c578582828154811061033357610332611148565b5b905f5260205f200154036103495780925061035c565b808061035490611223565b915050610313565b505f8290505b60018280549050610373919061126a565b8110156103d45781600182610388919061129d565b8154811061039957610398611148565b5b905f5260205f2001548282815481106103b5576103b4611148565b5b905f5260205f20018190555080806103cc90611223565b915050610362565b50808054806103e6576103e56112d0565b5b600190038181905f5260205f20015f90559055505050505050565b805f60015f8381526020019081526020015f205414158061045157505f80805490501180156104505750805f808154811061043f5761043e611148565b5b905f5260205f2090600702015f0154145b5b610490576040517f08c379a0000000000000000000000000000000000000000000000000000000008152600401610487906111cf565b60405180910390fd5b5f60015f8481526020019081526020015f205490505f60015f805490506104b7919061126a565b90508082146105d1575f81815481106104d3576104d2611148565b5b905f5260205f2090600702015f83815481106104f2576104f1611148565b5b905f5260205f2090600702015f820154815f01556001820181600101908161051a919061150c565b506002820181600201908161052f919061150c565b50600382015f9054906101000a900460ff16816003015f6101000a81548160ff02191690836004811115610566576105656115f1565b5b02179055506004820181600401908054610581929190610b30565b5060058201548160050155600682015481600601559050508160015f8085815481106105b0576105af611148565b5b905f5260205f2090600702015f015481526020019081526020015f20819055505b5f8054806105e2576105e16112d0565b5b600190038181905f5260205f2090600702015f8082015f9055600182015f61060a9190610b7e565b600282015f6106199190610b7e565b600382015f6101000a81549060ff0219169055600482015f61063b9190610bbb565b600582015f9055600682015f90555050905560015f8581526020019081526020015f205f905550505050565b815f60015f8381526020019081526020015f20541415806106b757505f80805490501180156106b65750805f80815481106106a5576106a4611148565b5b905f5260205f2090600702015f0154145b5b6106f6576040517f08c379a00000000000000000000000000000000000000000000000000000000081526004016106ed906111cf565b60405180910390fd5b5f60015f8581526020019081526020015f20549050825f828154811061071f5761071e611148565b5b905f5260205f2090600702016005018190555050505050565b5f8383838760014361074a919061126a565b4060405160200161075f959493929190611715565b60405160208183030381529060405280519060200120905061077f610bd9565b81815f01818152505084816020018190525082816060019060048111156107a9576107a86115f1565b5b908160048111156107bd576107bc6115f1565b5b81525050858160a00181815250505f81908060018154018082558091505060019003905f5260205f2090600702015f909190919091505f820151815f01556020820151816001019081610810919061176b565b506040820151816002019081610826919061176b565b506060820151816003015f6101000a81548160ff02191690836004811115610851576108506115f1565b5b02179055506080820151816004019080519060200190610872929190610c2a565b5060a0820151816005015560c08201518160060155505060015f8054905061089a919061126a565b60015f8481526020019081526020015f2081905550505050505050565b815f60015f8381526020019081526020015f205414158061090757505f80805490501180156109065750805f80815481106108f5576108f4611148565b5b905f5260205f2090600702015f0154145b5b610946576040517f08c379a000000000000000000000000000000000000000000000000000000000815260040161093d906111cf565b60405180910390fd5b5f60015f8581526020019081526020015f205490505f5b83518110156109d9575f828154811061097957610978611148565b5b905f5260205f20906007020160040184828151811061099b5761099a611148565b5b6020026020010151908060018154018082558091505060019003905f5260205f20015f909190919091505580806109d190611223565b91505061095d565b5050505050565b60605f805b5f80549050811015610a3c57835f8281548110610a0557610a04611148565b5b905f5260205f2090600702016005015403610a29578180610a2590611223565b9250505b8080610a3490611223565b9150506109e5565b505f8167ffffffffffffffff811115610a5857610a57610d70565b5b604051908082528060200260200182016040528015610a865781602001602082028036833780820191505090505b5090505f805b5f80549050811015610b2457855f8281548110610aac57610aab611148565b5b905f5260205f2090600702016005015403610b11575f8181548110610ad457610ad3611148565b5b905f5260205f2090600702015f0154838381518110610af657610af5611148565b5b6020026020010181815250508180610b0d90611223565b9250505b8080610b1c90611223565b915050610a8c565b50819350505050919050565b828054828255905f5260205f20908101928215610b6d575f5260205f209182015b82811115610b6c578254825591600101919060010190610b51565b5b509050610b7a9190610c75565b5090565b508054610b8a9061132a565b5f825580601f10610b9b5750610bb8565b601f0160209004905f5260205f2090810190610bb79190610c90565b5b50565b5080545f8255905f5260205f2090810190610bd69190610c75565b50565b6040518060e001604052805f801916815260200160608152602001606081526020015f6004811115610c0e57610c0d6115f1565b5b8152602001606081526020015f80191681526020015f81525090565b828054828255905f5260205f20908101928215610c64579160200282015b82811115610c63578251825591602001919060010190610c48565b5b509050610c719190610c75565b5090565b5b80821115610c8c575f815f905550600101610c76565b5090565b5b80821115610ca7575f815f905550600101610c91565b5090565b5f604051905090565b5f80fd5b5f80fd5b5f819050919050565b610cce81610cbc565b8114610cd8575f80fd5b50565b5f81359050610ce981610cc5565b92915050565b5f8060408385031215610d0557610d04610cb4565b5b5f610d1285828601610cdb565b9250506020610d2385828601610cdb565b9150509250929050565b5f60208284031215610d4257610d41610cb4565b5b5f610d4f84828501610cdb565b91505092915050565b5f80fd5b5f80fd5b5f601f19601f8301169050919050565b7f4e487b71000000000000000000000000000000000000000000000000000000005f52604160045260245ffd5b610da682610d60565b810181811067ffffffffffffffff82111715610dc557610dc4610d70565b5b80604052505050565b5f610dd7610cab565b9050610de38282610d9d565b919050565b5f67ffffffffffffffff821115610e0257610e01610d70565b5b610e0b82610d60565b9050602081019050919050565b828183375f83830152505050565b5f610e38610e3384610de8565b610dce565b905082815260208101848484011115610e5457610e53610d5c565b5b610e5f848285610e18565b509392505050565b5f82601f830112610e7b57610e7a610d58565b5b8135610e8b848260208601610e26565b91505092915050565b60058110610ea0575f80fd5b50565b5f81359050610eb181610e94565b92915050565b5f805f8060808587031215610ecf57610ece610cb4565b5b5f610edc87828801610cdb565b945050602085013567ffffffffffffffff811115610efd57610efc610cb8565b5b610f0987828801610e67565b935050604085013567ffffffffffffffff811115610f2a57610f29610cb8565b5b610f3687828801610e67565b9250506060610f4787828801610ea3565b91505092959194509250565b5f67ffffffffffffffff821115610f6d57610f6c610d70565b5b602082029050602081019050919050565b5f80fd5b5f610f94610f8f84610f53565b610dce565b90508083825260208201905060208402830185811115610fb757610fb6610f7e565b5b835b81811015610fe05780610fcc8882610cdb565b845260208401935050602081019050610fb9565b5050509392505050565b5f82601f830112610ffe57610ffd610d58565b5b813561100e848260208601610f82565b91505092915050565b5f806040838503121561102d5761102c610cb4565b5b5f61103a85828601610cdb565b925050602083013567ffffffffffffffff81111561105b5761105a610cb8565b5b61106785828601610fea565b9150509250929050565b5f81519050919050565b5f82825260208201905092915050565b5f819050602082019050919050565b6110a381610cbc565b82525050565b5f6110b4838361109a565b60208301905092915050565b5f602082019050919050565b5f6110d682611071565b6110e0818561107b565b93506110eb8361108b565b805f5b8381101561111b57815161110288826110a9565b975061110d836110c0565b9250506001810190506110ee565b5085935050505092915050565b5f6020820190508181035f83015261114081846110cc565b905092915050565b7f4e487b71000000000000000000000000000000000000000000000000000000005f52603260045260245ffd5b5f82825260208201905092915050565b7f50726f64756374696f6e20646f6573206e6f74206578697374000000000000005f82015250565b5f6111b9601983611175565b91506111c482611185565b602082019050919050565b5f6020820190508181035f8301526111e6816111ad565b9050919050565b7f4e487b71000000000000000000000000000000000000000000000000000000005f52601160045260245ffd5b5f819050919050565b5f61122d8261121a565b91507fffffffffffffffffffffffffffffffffffffffffffffffffffffffffffffffff820361125f5761125e6111ed565b5b600182019050919050565b5f6112748261121a565b915061127f8361121a565b9250828203905081811115611297576112966111ed565b5b92915050565b5f6112a78261121a565b91506112b28361121a565b92508282019050808211156112ca576112c96111ed565b5b92915050565b7f4e487b71000000000000000000000000000000000000000000000000000000005f52603160045260245ffd5b7f4e487b71000000000000000000000000000000000000000000000000000000005f52602260045260245ffd5b5f600282049050600182168061134157607f821691505b602082108103611354576113536112fd565b5b50919050565b5f815490506113688161132a565b9050919050565b5f819050815f5260205f209050919050565b5f6020601f8301049050919050565b5f82821b905092915050565b5f600883026113cb7fffffffffffffffffffffffffffffffffffffffffffffffffffffffffffffffff82611390565b6113d58683611390565b95508019841693508086168417925050509392505050565b5f819050919050565b5f61141061140b6114068461121a565b6113ed565b61121a565b9050919050565b5f819050919050565b611429836113f6565b61143d61143582611417565b84845461139c565b825550505050565b5f90565b611451611445565b61145c818484611420565b505050565b5b8181101561147f576114745f82611449565b600181019050611462565b5050565b601f8211156114c4576114958161136f565b61149e84611381565b810160208510156114ad578190505b6114c16114b985611381565b830182611461565b50505b505050565b5f82821c905092915050565b5f6114e45f19846008026114c9565b1980831691505092915050565b5f6114fc83836114d5565b9150826002028217905092915050565b81810361151a5750506115ef565b6115238261135a565b67ffffffffffffffff81111561153c5761153b610d70565b5b611546825461132a565b611551828285611483565b5f601f83116001811461157e575f841561156c578287015490505b61157685826114f1565b8655506115e8565b601f19841661158c8761136f565b96506115978661136f565b5f5b828110156115be57848901548255600182019150600185019450602081019050611599565b868310156115db57848901546115d7601f8916826114d5565b8355505b6001600288020188555050505b5050505050505b565b7f4e487b71000000000000000000000000000000000000000000000000000000005f52602160045260245ffd5b5f81519050919050565b5f81905092915050565b5f5b8381101561164f578082015181840152602081019050611634565b5f8484015250505050565b5f6116648261161e565b61166e8185611628565b935061167e818560208601611632565b80840191505092915050565b6005811061169b5761169a6115f1565b5b50565b5f8190506116ab8261168a565b919050565b5f6116ba8261169e565b9050919050565b5f8160f81b9050919050565b5f6116d7826116c1565b9050919050565b6116ef6116ea826116b0565b6116cd565b82525050565b5f819050919050565b61170f61170a82610cbc565b6116f5565b82525050565b5f611720828861165a565b915061172c828761165a565b915061173882866116de565b60018201915061174882856116fe565b60208201915061175882846116fe565b6020820191508190509695505050505050565b6117748261161e565b67ffffffffffffffff81111561178d5761178c610d70565b5b611797825461132a565b6117a2828285611483565b5f60209050601f8311600181146117d3575f84156117c1578287015190505b6117cb85826114f1565b865550611832565b601f1984166117e18661136f565b5f5b82811015611808578489015182556001820191506020850194506020810190506117e3565b868310156118255784890151611821601f8916826114d5565b8355505b6001600288020188555050505b50505050505056fea264697066735822122084dabc9f338fdeb8920c232de20908487ed1f243855382438d3c12db854b0cf364736f6c63430008140033",
  "immutableReferences": {},
  "source": "// SPDX-License-Identifier: MIT\npragma solidity ^0.8.20;\n\nimport \"./JeskeiAsset.sol\";\nimport \"./JeskeiStudio.sol\";\n\ncontract JeskeiProduction {\n\n    enum AgeRating{ G, PG, PG13, R, NC17 }\n\n    struct Production {\n        bytes32 id;\n        string name;\n        string description;\n        AgeRating ageRating;\n        bytes32[] assets;\n        bytes32 studio;\n        uint256 view_Wei;\n    }\n\n    Production[] private productions;\n    mapping(bytes32 => uint) private productionIndex;\n    mapping(bytes32 => uint) private fees;\n\n    modifier onlyExistingProduction(bytes32 productionId) {\n        require(productionIndex[productionId] != 0 || (productions.length > 0 && productions[0].id == productionId), \"Production does not exist\");\n        _;\n    }\n\n    function createProduction(bytes32 studio, string memory name, string memory description, AgeRating age_Rating) public {\n        bytes32 id = keccak256(abi.encodePacked(name, description, age_Rating, studio, blockhash(block.number - 1)));\n        Production memory newProduction;\n        newProduction.id = id;\n        newProduction.name = name;\n        newProduction.ageRating = age_Rating;\n        newProduction.studio = studio;\n        productions.push(newProduction);\n        productionIndex[id] = productions.length - 1;\n    }\n\n    function deleteProduction(bytes32 productionId) public onlyExistingProduction(productionId) {\n        uint index = productionIndex[productionId];\n        uint lastIndex = productions.length - 1;\n\n        if (index != lastIndex) {\n            productions[index] = productions[lastIndex];\n            productionIndex[productions[index].id] = index;\n        }\n\n        productions.pop();\n        delete productionIndex[productionId];\n    }\n\n    function transferProduction(bytes32 productionId, bytes32 targetStudio) public onlyExistingProduction(productionId) {\n        uint index = productionIndex[productionId];\n        productions[index].studio = targetStudio;\n    }\n\n    function addAsset(bytes32 productionId, bytes32 assetId) public onlyExistingProduction(productionId) {\n        uint index = productionIndex[productionId];\n        productions[index].assets.push(assetId);\n    }\n\n    function addAssets(bytes32 productionId, bytes32[] memory assetIds) public onlyExistingProduction(productionId) {\n        uint index = productionIndex[productionId];\n        for (uint i = 0; i < assetIds.length; i++) {\n            productions[index].assets.push(assetIds[i]);\n        }\n    }\n\n    function removeAsset(bytes32 productionId, bytes32 assetId) public onlyExistingProduction(productionId) {\n        uint index = productionIndex[productionId];\n        uint assetIndex = 0;\n        bytes32[] storage assets = productions[index].assets;\n\n        for (uint i = 0; i < assets.length; i++) {\n            if (assets[i] == assetId) {\n                assetIndex = i;\n                break;\n            }\n        }\n\n        for (uint i = assetIndex; i < assets.length - 1; i++) {\n            assets[i] = assets[i + 1];\n        }\n        assets.pop();\n    }\n\n    function getStudioProductions(bytes32 studioId) public view returns (bytes32[] memory) {\n        uint count = 0;\n        for (uint i = 0; i < productions.length; i++) {\n            if (productions[i].studio == studioId) {\n                count++;\n            }\n        }\n\n        bytes32[] memory studioProductions = new bytes32[](count);\n        uint index = 0;\n        for (uint i = 0; i < productions.length; i++) {\n            if (productions[i].studio == studioId) {\n                studioProductions[index] = productions[i].id;\n                index++;\n            }\n        }\n\n        return studioProductions;\n    }\n}\n",
  "sourcePath": "/home/eagle/Source/Jeskei/Jeskei-Solidity/contracts/JeskeiProduction.sol",
  "compiler": {
    "name": "solc",
    "version": "0.8.20+commit.a1b79de6.Emscripten.clang"
  },
  "schemaVersion": "3.4.16",
  "updatedAt": "2024-08-02T12:28:45.338Z",
  "devdoc": {
    "kind": "dev",
    "methods": {},
    "version": 1
  },
  "userdoc": {
    "kind": "user",
    "methods": {},
    "version": 1
  }
}