{
  "contractName": "JeskeiProduction",
  "abi": [
    {
      "inputs": [
        {
          "internalType": "bytes32",
          "name": "studio",
          "type": "bytes32"
        },
        {
          "internalType": "string",
          "name": "name",
          "type": "string"
        },
        {
          "internalType": "string",
          "name": "description",
          "type": "string"
        },
        {
          "internalType": "enum JeskeiProduction.AgeRating",
          "name": "age_Rating",
          "type": "uint8"
        }
      ],
      "name": "createProduction",
      "outputs": [],
      "stateMutability": "nonpayable",
      "type": "function"
    },
    {
      "inputs": [
        {
          "internalType": "bytes32",
          "name": "productionId",
          "type": "bytes32"
        }
      ],
      "name": "deleteProduction",
      "outputs": [],
      "stateMutability": "nonpayable",
      "type": "function"
    },
    {
      "inputs": [
        {
          "internalType": "bytes32",
          "name": "productionId",
          "type": "bytes32"
        },
        {
          "internalType": "bytes32",
          "name": "targetStudio",
          "type": "bytes32"
        }
      ],
      "name": "transferProduction",
      "outputs": [],
      "stateMutability": "nonpayable",
      "type": "function"
    },
    {
      "inputs": [
        {
          "internalType": "bytes32",
          "name": "productionId",
          "type": "bytes32"
        },
        {
          "internalType": "bytes32",
          "name": "assetId",
          "type": "bytes32"
        }
      ],
      "name": "addAsset",
      "outputs": [],
      "stateMutability": "nonpayable",
      "type": "function"
    },
    {
      "inputs": [
        {
          "internalType": "bytes32",
          "name": "productionId",
          "type": "bytes32"
        },
        {
          "internalType": "bytes32[]",
          "name": "assetIds",
          "type": "bytes32[]"
        }
      ],
      "name": "addAssets",
      "outputs": [],
      "stateMutability": "nonpayable",
      "type": "function"
    },
    {
      "inputs": [
        {
          "internalType": "bytes32",
          "name": "productionId",
          "type": "bytes32"
        },
        {
          "internalType": "bytes32",
          "name": "assetId",
          "type": "bytes32"
        }
      ],
      "name": "removeAsset",
      "outputs": [],
      "stateMutability": "nonpayable",
      "type": "function"
    },
    {
      "inputs": [
        {
          "internalType": "bytes32",
          "name": "studioId",
          "type": "bytes32"
        }
      ],
      "name": "getStudioProductions",
      "outputs": [
        {
          "internalType": "bytes32[]",
          "name": "",
          "type": "bytes32[]"
        }
      ],
      "stateMutability": "view",
      "type": "function"
    }
  ],
  "bytecode": "0x608060405234801561001057600080fd5b50611759806100206000396000f3fe608060405234801561001057600080fd5b506004361061007d5760003560e01c8063785368e31161005b578063785368e3146100d65780637e98620c146100f25780638062196c1461010e578063e9ac5fa61461012a5761007d565b806318ea8e37146100825780631ebd0da21461009e5780631f4c1d96146100ba575b600080fd5b61009c60048036038101906100979190610ed2565b61015a565b005b6100b860048036038101906100b39190610ed2565b61025b565b005b6100d460048036038101906100cf9190610f12565b61042e565b005b6100f060048036038101906100eb9190610ed2565b6106d4565b005b61010c600480360381019061010791906110aa565b6107b3565b005b61012860048036038101906101239190611211565b61094c565b005b610144600480360381019061013f9190610f12565b610a87565b604051610151919061132b565b60405180910390f35b81600060016000838152602001908152602001600020541415806101b25750600080805490501180156101b15750806000808154811061019d5761019c61134d565b5b906000526020600020906007020160000154145b5b6101f1576040517f08c379a00000000000000000000000000000000000000000000000000000000081526004016101e8906113d9565b60405180910390fd5b6000600160008581526020019081526020016000205490506000818154811061021d5761021c61134d565b5b906000526020600020906007020160040183908060018154018082558091505060019003906000526020600020016000909190919091505550505050565b81600060016000838152602001908152602001600020541415806102b35750600080805490501180156102b25750806000808154811061029e5761029d61134d565b5b906000526020600020906007020160000154145b5b6102f2576040517f08c379a00000000000000000000000000000000000000000000000000000000081526004016102e9906113d9565b60405180910390fd5b6000600160008581526020019081526020016000205490506000808083815481106103205761031f61134d565b5b9060005260206000209060070201600401905060005b818054905081101561038157858282815481106103565761035561134d565b5b90600052602060002001540361036e57809250610381565b808061037990611432565b915050610336565b5060008290505b60018280549050610399919061147a565b8110156103fe57816001826103ae91906114ae565b815481106103bf576103be61134d565b5b90600052602060002001548282815481106103dd576103dc61134d565b5b906000526020600020018190555080806103f690611432565b915050610388565b50808054806104105761040f611504565b5b60019003818190600052602060002001600090559055505050505050565b8060006001600083815260200190815260200160002054141580610486575060008080549050118015610485575080600080815481106104715761047061134d565b5b906000526020600020906007020160000154145b5b6104c5576040517f08c379a00000000000000000000000000000000000000000000000000000000081526004016104bc906113d9565b60405180910390fd5b600060016000848152602001908152602001600020549050600060016000805490506104f1919061147a565b9050808214610630576000818154811061050e5761050d61134d565b5b9060005260206000209060070201600083815481106105305761052f61134d565b5b906000526020600020906007020160008201548160000155600182018160010190805461055c90611562565b610567929190610be6565b50600282018160020190805461057c90611562565b610587929190610be6565b506003820160009054906101000a900460ff168160030160006101000a81548160ff021916908360048111156105c0576105bf611593565b5b021790555060048201816004019080546105db929190610c73565b506005820154816005015560068201548160060155905050816001600080858154811061060b5761060a61134d565b5b9060005260206000209060070201600001548152602001908152602001600020819055505b600080548061064257610641611504565b5b600190038181906000526020600020906007020160008082016000905560018201600061066f9190610cc5565b60028201600061067f9190610cc5565b6003820160006101000a81549060ff02191690556004820160006106a39190610d05565b6005820160009055600682016000905550509055600160008581526020019081526020016000206000905550505050565b816000600160008381526020019081526020016000205414158061072c57506000808054905011801561072b575080600080815481106107175761071661134d565b5b906000526020600020906007020160000154145b5b61076b576040517f08c379a0000000000000000000000000000000000000000000000000000000008152600401610762906113d9565b60405180910390fd5b60006001600085815260200190815260200160002054905082600082815481106107985761079761134d565b5b90600052602060002090600702016005018190555050505050565b6000838383876001436107c6919061147a565b406040516020016107db9594939291906116cc565b6040516020818303038152906040528051906020012090506107fb610d26565b81816000018181525050848160200181905250828160600190600481111561082657610825611593565b5b9081600481111561083a57610839611593565b5b81525050858160a0018181525050600081908060018154018082558091505060019003906000526020600020906007020160009091909190915060008201518160000155602082015181600101908051906020019061089a929190610d7b565b5060408201518160020190805190602001906108b7929190610d7b565b5060608201518160030160006101000a81548160ff021916908360048111156108e3576108e2611593565b5b02179055506080820151816004019080519060200190610904929190610e01565b5060a0820151816005015560c082015181600601555050600160008054905061092d919061147a565b6001600084815260200190815260200160002081905550505050505050565b81600060016000838152602001908152602001600020541415806109a45750600080805490501180156109a35750806000808154811061098f5761098e61134d565b5b906000526020600020906007020160000154145b5b6109e3576040517f08c379a00000000000000000000000000000000000000000000000000000000081526004016109da906113d9565b60405180910390fd5b60006001600085815260200190815260200160002054905060005b8351811015610a805760008281548110610a1b57610a1a61134d565b5b9060005260206000209060070201600401848281518110610a3f57610a3e61134d565b5b602002602001015190806001815401808255809150506001900390600052602060002001600090919091909150558080610a7890611432565b9150506109fe565b5050505050565b60606000805b600080549050811015610ae8578360008281548110610aaf57610aae61134d565b5b90600052602060002090600702016005015403610ad5578180610ad190611432565b9250505b8080610ae090611432565b915050610a8d565b5060008167ffffffffffffffff811115610b0557610b04610f5a565b5b604051908082528060200260200182016040528015610b335781602001602082028036833780820191505090505b5090506000805b600080549050811015610bda578560008281548110610b5c57610b5b61134d565b5b90600052602060002090600702016005015403610bc75760008181548110610b8757610b8661134d565b5b906000526020600020906007020160000154838381518110610bac57610bab61134d565b5b6020026020010181815250508180610bc390611432565b9250505b8080610bd290611432565b915050610b3a565b50819350505050919050565b828054610bf290611562565b90600052602060002090601f016020900481019282610c145760008555610c62565b82601f10610c255780548555610c62565b82800160010185558215610c6257600052602060002091601f016020900482015b82811115610c61578254825591600101919060010190610c46565b5b509050610c6f9190610e4e565b5090565b828054828255906000526020600020908101928215610cb45760005260206000209182015b82811115610cb3578254825591600101919060010190610c98565b5b509050610cc19190610e6b565b5090565b508054610cd190611562565b6000825580601f10610ce35750610d02565b601f016020900490600052602060002090810190610d019190610e4e565b5b50565b5080546000825590600052602060002090810190610d239190610e6b565b50565b6040518060e0016040528060008019168152602001606081526020016060815260200160006004811115610d5d57610d5c611593565b5b81526020016060815260200160008019168152602001600081525090565b828054610d8790611562565b90600052602060002090601f016020900481019282610da95760008555610df0565b82601f10610dc257805160ff1916838001178555610df0565b82800160010185558215610df0579182015b82811115610def578251825591602001919060010190610dd4565b5b509050610dfd9190610e4e565b5090565b828054828255906000526020600020908101928215610e3d579160200282015b82811115610e3c578251825591602001919060010190610e21565b5b509050610e4a9190610e6b565b5090565b5b80821115610e67576000816000905550600101610e4f565b5090565b5b80821115610e84576000816000905550600101610e6c565b5090565b6000604051905090565b600080fd5b600080fd5b6000819050919050565b610eaf81610e9c565b8114610eba57600080fd5b50565b600081359050610ecc81610ea6565b92915050565b60008060408385031215610ee957610ee8610e92565b5b6000610ef785828601610ebd565b9250506020610f0885828601610ebd565b9150509250929050565b600060208284031215610f2857610f27610e92565b5b6000610f3684828501610ebd565b91505092915050565b600080fd5b600080fd5b6000601f19601f8301169050919050565b7f4e487b7100000000000000000000000000000000000000000000000000000000600052604160045260246000fd5b610f9282610f49565b810181811067ffffffffffffffff82111715610fb157610fb0610f5a565b5b80604052505050565b6000610fc4610e88565b9050610fd08282610f89565b919050565b600067ffffffffffffffff821115610ff057610fef610f5a565b5b610ff982610f49565b9050602081019050919050565b82818337600083830152505050565b600061102861102384610fd5565b610fba565b90508281526020810184848401111561104457611043610f44565b5b61104f848285611006565b509392505050565b600082601f83011261106c5761106b610f3f565b5b813561107c848260208601611015565b91505092915050565b6005811061109257600080fd5b50565b6000813590506110a481611085565b92915050565b600080600080608085870312156110c4576110c3610e92565b5b60006110d287828801610ebd565b945050602085013567ffffffffffffffff8111156110f3576110f2610e97565b5b6110ff87828801611057565b935050604085013567ffffffffffffffff8111156111205761111f610e97565b5b61112c87828801611057565b925050606061113d87828801611095565b91505092959194509250565b600067ffffffffffffffff82111561116457611163610f5a565b5b602082029050602081019050919050565b600080fd5b600061118d61118884611149565b610fba565b905080838252602082019050602084028301858111156111b0576111af611175565b5b835b818110156111d957806111c58882610ebd565b8452602084019350506020810190506111b2565b5050509392505050565b600082601f8301126111f8576111f7610f3f565b5b813561120884826020860161117a565b91505092915050565b6000806040838503121561122857611227610e92565b5b600061123685828601610ebd565b925050602083013567ffffffffffffffff81111561125757611256610e97565b5b611263858286016111e3565b9150509250929050565b600081519050919050565b600082825260208201905092915050565b6000819050602082019050919050565b6112a281610e9c565b82525050565b60006112b48383611299565b60208301905092915050565b6000602082019050919050565b60006112d88261126d565b6112e28185611278565b93506112ed83611289565b8060005b8381101561131e57815161130588826112a8565b9750611310836112c0565b9250506001810190506112f1565b5085935050505092915050565b6000602082019050818103600083015261134581846112cd565b905092915050565b7f4e487b7100000000000000000000000000000000000000000000000000000000600052603260045260246000fd5b600082825260208201905092915050565b7f50726f64756374696f6e20646f6573206e6f7420657869737400000000000000600082015250565b60006113c360198361137c565b91506113ce8261138d565b602082019050919050565b600060208201905081810360008301526113f2816113b6565b9050919050565b7f4e487b7100000000000000000000000000000000000000000000000000000000600052601160045260246000fd5b6000819050919050565b600061143d82611428565b91507fffffffffffffffffffffffffffffffffffffffffffffffffffffffffffffffff820361146f5761146e6113f9565b5b600182019050919050565b600061148582611428565b915061149083611428565b9250828210156114a3576114a26113f9565b5b828203905092915050565b60006114b982611428565b91506114c483611428565b9250827fffffffffffffffffffffffffffffffffffffffffffffffffffffffffffffffff038211156114f9576114f86113f9565b5b828201905092915050565b7f4e487b7100000000000000000000000000000000000000000000000000000000600052603160045260246000fd5b7f4e487b7100000000000000000000000000000000000000000000000000000000600052602260045260246000fd5b6000600282049050600182168061157a57607f821691505b60208210810361158d5761158c611533565b5b50919050565b7f4e487b7100000000000000000000000000000000000000000000000000000000600052602160045260246000fd5b600081519050919050565b600081905092915050565b60005b838110156115f65780820151818401526020810190506115db565b83811115611605576000848401525b50505050565b6000611616826115c2565b61162081856115cd565b93506116308185602086016115d8565b80840191505092915050565b6005811061164d5761164c611593565b5b50565b600081905061165e8261163c565b919050565b600061166e82611650565b9050919050565b60008160f81b9050919050565b600061168d82611675565b9050919050565b6116a56116a082611663565b611682565b82525050565b6000819050919050565b6116c66116c182610e9c565b6116ab565b82525050565b60006116d8828861160b565b91506116e4828761160b565b91506116f08286611694565b60018201915061170082856116b5565b60208201915061171082846116b5565b602082019150819050969550505050505056fea2646970667358221220bc02713e10c3f433d3e184c7228486ea7954ded7f6e4a389214f5d5fce093d8d64736f6c634300080d0033",
  "immutableReferences": {},
  "source": "// SPDX-License-Identifier: MIT\npragma solidity ^0.8.13;\n\nimport \"./Asset.sol\";\nimport \"./Studio.sol\";\n\ncontract JeskeiProduction {\n\n    enum AgeRating{ G, PG, PG13, R, NC17 }\n\n    struct Production {\n        bytes32 id;\n        string name;\n        string description;\n        AgeRating ageRating;\n        bytes32[] assets;\n        bytes32 studio;\n        uint256 view_Wei;\n    }\n\n    Production[] private productions;\n    mapping(bytes32 => uint) private productionIndex;\n    mapping(bytes32 => uint) private fees;\n\n    modifier onlyExistingProduction(bytes32 productionId) {\n        require(productionIndex[productionId] != 0 || (productions.length > 0 && productions[0].id == productionId), \"Production does not exist\");\n        _;\n    }\n\n    function createProduction(bytes32 studio, string memory name, string memory description, AgeRating age_Rating) public {\n        bytes32 id = keccak256(abi.encodePacked(name, description, age_Rating, studio, blockhash(block.number - 1)));\n        Production memory newProduction;\n        newProduction.id = id;\n        newProduction.name = name;\n        newProduction.ageRating = age_Rating;\n        newProduction.studio = studio;\n        productions.push(newProduction);\n        productionIndex[id] = productions.length - 1;\n    }\n\n    function deleteProduction(bytes32 productionId) public onlyExistingProduction(productionId) {\n        uint index = productionIndex[productionId];\n        uint lastIndex = productions.length - 1;\n\n        if (index != lastIndex) {\n            productions[index] = productions[lastIndex];\n            productionIndex[productions[index].id] = index;\n        }\n\n        productions.pop();\n        delete productionIndex[productionId];\n    }\n\n    function transferProduction(bytes32 productionId, bytes32 targetStudio) public onlyExistingProduction(productionId) {\n        uint index = productionIndex[productionId];\n        productions[index].studio = targetStudio;\n    }\n\n    function addAsset(bytes32 productionId, bytes32 assetId) public onlyExistingProduction(productionId) {\n        uint index = productionIndex[productionId];\n        productions[index].assets.push(assetId);\n    }\n\n    function addAssets(bytes32 productionId, bytes32[] memory assetIds) public onlyExistingProduction(productionId) {\n        uint index = productionIndex[productionId];\n        for (uint i = 0; i < assetIds.length; i++) {\n            productions[index].assets.push(assetIds[i]);\n        }\n    }\n\n    function removeAsset(bytes32 productionId, bytes32 assetId) public onlyExistingProduction(productionId) {\n        uint index = productionIndex[productionId];\n        uint assetIndex = 0;\n        bytes32[] storage assets = productions[index].assets;\n\n        for (uint i = 0; i < assets.length; i++) {\n            if (assets[i] == assetId) {\n                assetIndex = i;\n                break;\n            }\n        }\n\n        for (uint i = assetIndex; i < assets.length - 1; i++) {\n            assets[i] = assets[i + 1];\n        }\n        assets.pop();\n    }\n\n    function getStudioProductions(bytes32 studioId) public view returns (bytes32[] memory) {\n        uint count = 0;\n        for (uint i = 0; i < productions.length; i++) {\n            if (productions[i].studio == studioId) {\n                count++;\n            }\n        }\n\n        bytes32[] memory studioProductions = new bytes32[](count);\n        uint index = 0;\n        for (uint i = 0; i < productions.length; i++) {\n            if (productions[i].studio == studioId) {\n                studioProductions[index] = productions[i].id;\n                index++;\n            }\n        }\n\n        return studioProductions;\n    }\n}\n",
  "sourcePath": "/home/eagle/Source/Jeskei/Jeskei-Solidity/contracts/Production.sol",
  "compiler": {
    "name": "solc",
    "version": "0.8.13+commit.abaa5c0e.Emscripten.clang"
  },
  "schemaVersion": "3.4.16",
  "updatedAt": "2024-07-23T09:47:28.807Z",
  "devdoc": {
    "kind": "dev",
    "methods": {},
    "version": 1
  },
  "userdoc": {
    "kind": "user",
    "methods": {},
    "version": 1
  }
}