{
  "contractName": "JeskeiAsset",
  "abi": [
    {
      "inputs": [
        {
          "internalType": "enum JeskeiAsset.AssetType",
          "name": "_asset_type",
          "type": "uint8"
        },
        {
          "internalType": "address",
          "name": "_owner",
          "type": "address"
        },
        {
          "internalType": "uint256",
          "name": "_locationType",
          "type": "uint256"
        },
        {
          "internalType": "string",
          "name": "_location",
          "type": "string"
        }
      ],
      "name": "register",
      "outputs": [],
      "stateMutability": "nonpayable",
      "type": "function"
    }
  ],
  "bytecode": "0x608060405234801561001057600080fd5b50610877806100206000396000f3fe608060405234801561001057600080fd5b506004361061002b5760003560e01c8063b68ca00214610030575b600080fd5b61004a600480360381019061004591906104f4565b61004c565b005b60008484848460014361005f91906105a6565b40604051602001610074959493929190610786565b60405160208183030381529060405280519060200120905060006060600085036100a157600091506100d3565b600185036100b257600191506100d2565b600285036100c357600291506100d1565b600385036100d057600391505b5b5b5b60006040518060a001604052808581526020018960068111156100f9576100f86105da565b5b81526020018873ffffffffffffffffffffffffffffffffffffffff16815260200184600381111561012d5761012c6105da565b5b815260200183815250905060008190806001815401808255809150506001900390600052602060002090600302016000909190919091506000820151816000015560208201518160010160006101000a81548160ff02191690836006811115610199576101986105da565b5b021790555060408201518160010160016101000a81548173ffffffffffffffffffffffffffffffffffffffff021916908373ffffffffffffffffffffffffffffffffffffffff16021790555060608201518160010160156101000a81548160ff021916908360038111156102105761020f6105da565b5b0217905550608082015181600201908051906020019061023192919061023e565b5050505050505050505050565b82805461024a90610810565b90600052602060002090601f01602090048101928261026c57600085556102b3565b82601f1061028557805160ff19168380011785556102b3565b828001600101855582156102b3579182015b828111156102b2578251825591602001919060010190610297565b5b5090506102c091906102c4565b5090565b5b808211156102dd5760008160009055506001016102c5565b5090565b6000604051905090565b600080fd5b600080fd5b6007811061030257600080fd5b50565b600081359050610314816102f5565b92915050565b600073ffffffffffffffffffffffffffffffffffffffff82169050919050565b60006103458261031a565b9050919050565b6103558161033a565b811461036057600080fd5b50565b6000813590506103728161034c565b92915050565b6000819050919050565b61038b81610378565b811461039657600080fd5b50565b6000813590506103a881610382565b92915050565b600080fd5b600080fd5b6000601f19601f8301169050919050565b7f4e487b7100000000000000000000000000000000000000000000000000000000600052604160045260246000fd5b610401826103b8565b810181811067ffffffffffffffff821117156104205761041f6103c9565b5b80604052505050565b60006104336102e1565b905061043f82826103f8565b919050565b600067ffffffffffffffff82111561045f5761045e6103c9565b5b610468826103b8565b9050602081019050919050565b82818337600083830152505050565b600061049761049284610444565b610429565b9050828152602081018484840111156104b3576104b26103b3565b5b6104be848285610475565b509392505050565b600082601f8301126104db576104da6103ae565b5b81356104eb848260208601610484565b91505092915050565b6000806000806080858703121561050e5761050d6102eb565b5b600061051c87828801610305565b945050602061052d87828801610363565b935050604061053e87828801610399565b925050606085013567ffffffffffffffff81111561055f5761055e6102f0565b5b61056b878288016104c6565b91505092959194509250565b7f4e487b7100000000000000000000000000000000000000000000000000000000600052601160045260246000fd5b60006105b182610378565b91506105bc83610378565b9250828210156105cf576105ce610577565b5b828203905092915050565b7f4e487b7100000000000000000000000000000000000000000000000000000000600052602160045260246000fd5b6007811061061a576106196105da565b5b50565b600081905061062b82610609565b919050565b600061063b8261061d565b9050919050565b60008160f81b9050919050565b600061065a82610642565b9050919050565b61067261066d82610630565b61064f565b82525050565b60008160601b9050919050565b600061069082610678565b9050919050565b60006106a282610685565b9050919050565b6106ba6106b58261033a565b610697565b82525050565b6000819050919050565b6106db6106d682610378565b6106c0565b82525050565b600081519050919050565b600081905092915050565b60005b838110156107155780820151818401526020810190506106fa565b83811115610724576000848401525b50505050565b6000610735826106e1565b61073f81856106ec565b935061074f8185602086016106f7565b80840191505092915050565b6000819050919050565b6000819050919050565b61078061077b8261075b565b610765565b82525050565b60006107928288610661565b6001820191506107a282876106a9565b6014820191506107b282866106ca565b6020820191506107c2828561072a565b91506107ce828461076f565b6020820191508190509695505050505050565b7f4e487b7100000000000000000000000000000000000000000000000000000000600052602260045260246000fd5b6000600282049050600182168061082857607f821691505b60208210810361083b5761083a6107e1565b5b5091905056fea2646970667358221220d2b7569c00b86fb7a47d968da5e34def247e1861db37de46235d7e2f00fcc3dd64736f6c634300080d0033",
  "immutableReferences": {},
  "source": "// SPDX-License-Identifier: MIT\npragma solidity ^0.8.13;\n\ncontract JeskeiAsset {\n    enum AssetType{ Video, Audio, Script, Object, Film_Score, Physical_Asset, Other }\n\n    struct Asset {\n        bytes32 id;\n        AssetType asset_type;\n        address owner;\n        LocationType locationType;\n        string location;\n    }\n\n    enum LocationType{ Onchain, IPFS, Offchain, Other }\n    Asset[] assets;\n\n    function register(AssetType _asset_type, address _owner, uint _locationType, string memory _location) public {\n        \n        bytes32 id = keccak256(abi.encodePacked(_asset_type, _owner, _locationType, _location, blockhash(block.number - 1)));\n\n        LocationType locationType;\n        string memory location;\n\n        if (_locationType == 0) {\n            locationType = LocationType.Onchain;\n            location = location;\n        } else if (_locationType == 1) {\n            locationType = LocationType.IPFS;\n            location = location;\n        } else if (_locationType == 2) {\n            locationType = LocationType.Offchain;\n            location = location;\n        } else if (_locationType == 3) {\n            locationType = LocationType.Other;\n            location = location;\n        }\n        \n        Asset memory newAsset = Asset(id, _asset_type, _owner, locationType, location);\n\n        assets.push(newAsset);\n    }\n}\n",
  "sourcePath": "/home/eagle/Source/Jeskei/Jeskei-Solidity/contracts/Asset.sol",
  "compiler": {
    "name": "solc",
    "version": "0.8.13+commit.abaa5c0e.Emscripten.clang"
  },
  "schemaVersion": "3.4.16",
  "updatedAt": "2024-07-22T08:18:24.211Z",
  "devdoc": {
    "kind": "dev",
    "methods": {},
    "version": 1
  },
  "userdoc": {
    "kind": "user",
    "methods": {},
    "version": 1
  }
}