{
  "contractName": "JeskeiAssetX",
  "abi": [
    {
      "inputs": [
        {
          "internalType": "enum JeskeiAssetX.AssetType",
          "name": "_asset_type",
          "type": "uint8"
        },
        {
          "internalType": "address",
          "name": "_owner",
          "type": "address"
        },
        {
          "internalType": "uint256",
          "name": "_locationType",
          "type": "uint256"
        },
        {
          "internalType": "string",
          "name": "_location",
          "type": "string"
        }
      ],
      "name": "register",
      "outputs": [],
      "stateMutability": "nonpayable",
      "type": "function"
    }
  ],
  "bytecode": "0x608060405234801561000f575f80fd5b506109f08061001d5f395ff3fe608060405234801561000f575f80fd5b5060043610610029575f3560e01c8063b68ca0021461002d575b5f80fd5b61004760048036038101906100429190610425565b610049565b005b5f8484848460014361005b91906104d2565b40604051602001610070959493929190610697565b6040516020818303038152906040528051906020012090505f60605f850361009a575f91506100cc565b600185036100ab57600191506100cb565b600285036100bc57600291506100ca565b600385036100c957600391505b5b5b5b5f6040518060a001604052808581526020018960068111156100f1576100f0610505565b5b81526020018873ffffffffffffffffffffffffffffffffffffffff16815260200184600381111561012557610124610505565b5b81526020018381525090505f81908060018154018082558091505060019003905f5260205f2090600302015f909190919091505f820151815f01556020820151816001015f6101000a81548160ff0219169083600681111561018a57610189610505565b5b021790555060408201518160010160016101000a81548173ffffffffffffffffffffffffffffffffffffffff021916908373ffffffffffffffffffffffffffffffffffffffff16021790555060608201518160010160156101000a81548160ff0219169083600381111561020157610200610505565b5b0217905550608082015181600201908161021b91906108eb565b5050505050505050505050565b5f604051905090565b5f80fd5b5f80fd5b60078110610245575f80fd5b50565b5f8135905061025681610239565b92915050565b5f73ffffffffffffffffffffffffffffffffffffffff82169050919050565b5f6102858261025c565b9050919050565b6102958161027b565b811461029f575f80fd5b50565b5f813590506102b08161028c565b92915050565b5f819050919050565b6102c8816102b6565b81146102d2575f80fd5b50565b5f813590506102e3816102bf565b92915050565b5f80fd5b5f80fd5b5f601f19601f8301169050919050565b7f4e487b71000000000000000000000000000000000000000000000000000000005f52604160045260245ffd5b610337826102f1565b810181811067ffffffffffffffff8211171561035657610355610301565b5b80604052505050565b5f610368610228565b9050610374828261032e565b919050565b5f67ffffffffffffffff82111561039357610392610301565b5b61039c826102f1565b9050602081019050919050565b828183375f83830152505050565b5f6103c96103c484610379565b61035f565b9050828152602081018484840111156103e5576103e46102ed565b5b6103f08482856103a9565b509392505050565b5f82601f83011261040c5761040b6102e9565b5b813561041c8482602086016103b7565b91505092915050565b5f805f806080858703121561043d5761043c610231565b5b5f61044a87828801610248565b945050602061045b878288016102a2565b935050604061046c878288016102d5565b925050606085013567ffffffffffffffff81111561048d5761048c610235565b5b610499878288016103f8565b91505092959194509250565b7f4e487b71000000000000000000000000000000000000000000000000000000005f52601160045260245ffd5b5f6104dc826102b6565b91506104e7836102b6565b92508282039050818111156104ff576104fe6104a5565b5b92915050565b7f4e487b71000000000000000000000000000000000000000000000000000000005f52602160045260245ffd5b6007811061054357610542610505565b5b50565b5f81905061055382610532565b919050565b5f61056282610546565b9050919050565b5f8160f81b9050919050565b5f61057f82610569565b9050919050565b61059761059282610558565b610575565b82525050565b5f8160601b9050919050565b5f6105b38261059d565b9050919050565b5f6105c4826105a9565b9050919050565b6105dc6105d78261027b565b6105ba565b82525050565b5f819050919050565b6105fc6105f7826102b6565b6105e2565b82525050565b5f81519050919050565b5f81905092915050565b5f5b83811015610633578082015181840152602081019050610618565b5f8484015250505050565b5f61064882610602565b610652818561060c565b9350610662818560208601610616565b80840191505092915050565b5f819050919050565b5f819050919050565b61069161068c8261066e565b610677565b82525050565b5f6106a28288610586565b6001820191506106b282876105cb565b6014820191506106c282866105eb565b6020820191506106d2828561063e565b91506106de8284610680565b6020820191508190509695505050505050565b7f4e487b71000000000000000000000000000000000000000000000000000000005f52602260045260245ffd5b5f600282049050600182168061073557607f821691505b602082108103610748576107476106f1565b5b50919050565b5f819050815f5260205f209050919050565b5f6020601f8301049050919050565b5f82821b905092915050565b5f600883026107aa7fffffffffffffffffffffffffffffffffffffffffffffffffffffffffffffffff8261076f565b6107b4868361076f565b95508019841693508086168417925050509392505050565b5f819050919050565b5f6107ef6107ea6107e5846102b6565b6107cc565b6102b6565b9050919050565b5f819050919050565b610808836107d5565b61081c610814826107f6565b84845461077b565b825550505050565b5f90565b610830610824565b61083b8184846107ff565b505050565b5b8181101561085e576108535f82610828565b600181019050610841565b5050565b601f8211156108a3576108748161074e565b61087d84610760565b8101602085101561088c578190505b6108a061089885610760565b830182610840565b50505b505050565b5f82821c905092915050565b5f6108c35f19846008026108a8565b1980831691505092915050565b5f6108db83836108b4565b9150826002028217905092915050565b6108f482610602565b67ffffffffffffffff81111561090d5761090c610301565b5b610917825461071e565b610922828285610862565b5f60209050601f831160018114610953575f8415610941578287015190505b61094b85826108d0565b8655506109b2565b601f1984166109618661074e565b5f5b8281101561098857848901518255600182019150602085019450602081019050610963565b868310156109a557848901516109a1601f8916826108b4565b8355505b6001600288020188555050505b50505050505056fea2646970667358221220d6d5dbc19b04f16b3f73b09cc4fccc2edd0d76503a35f7edefa8121eff74052564736f6c63430008140033",
  "immutableReferences": {},
  "source": "// SPDX-License-Identifier: MIT\npragma solidity ^0.8.20;\n\ncontract JeskeiAssetX {\n    enum AssetType{ Video, Audio, Script, Object, Film_Score, Physical_Asset, Other }\n\n    struct Asset {\n        bytes32 id;\n        AssetType asset_type;\n        address owner;\n        LocationType locationType;\n        string location;\n    }\n\n    enum LocationType{ Onchain, IPFS, Offchain, Other }\n    Asset[] assets;\n\n    function register(AssetType _asset_type, address _owner, uint _locationType, string memory _location) public {\n        \n        bytes32 id = keccak256(abi.encodePacked(_asset_type, _owner, _locationType, _location, blockhash(block.number - 1)));\n\n        LocationType locationType;\n        string memory location;\n\n        if (_locationType == 0) {\n            locationType = LocationType.Onchain;\n            location = location;\n        } else if (_locationType == 1) {\n            locationType = LocationType.IPFS;\n            location = location;\n        } else if (_locationType == 2) {\n            locationType = LocationType.Offchain;\n            location = location;\n        } else if (_locationType == 3) {\n            locationType = LocationType.Other;\n            location = location;\n        }\n        \n        Asset memory newAsset = Asset(id, _asset_type, _owner, locationType, location);\n\n        assets.push(newAsset);\n    }\n}\n",
  "sourcePath": "/home/eagle/Source/Jeskei/Jeskei-Solidity/contracts/JeskeiAssetX.sol",
  "compiler": {
    "name": "solc",
    "version": "0.8.20+commit.a1b79de6.Emscripten.clang"
  },
  "schemaVersion": "3.4.16",
  "updatedAt": "2024-08-02T09:24:01.721Z",
  "devdoc": {
    "kind": "dev",
    "methods": {},
    "version": 1
  },
  "userdoc": {
    "kind": "user",
    "methods": {},
    "version": 1
  }
}