{
  "contractName": "JeskeiAccount",
  "abi": [
    {
      "inputs": [],
      "stateMutability": "nonpayable",
      "type": "constructor"
    },
    {
      "inputs": [
        {
          "internalType": "bool",
          "name": "producer",
          "type": "bool"
        },
        {
          "internalType": "bool",
          "name": "consumer",
          "type": "bool"
        },
        {
          "internalType": "bool",
          "name": "investor",
          "type": "bool"
        },
        {
          "internalType": "string",
          "name": "email",
          "type": "string"
        },
        {
          "internalType": "string",
          "name": "name",
          "type": "string"
        },
        {
          "internalType": "string",
          "name": "description",
          "type": "string"
        },
        {
          "internalType": "address",
          "name": "profileNft",
          "type": "address"
        }
      ],
      "name": "register",
      "outputs": [],
      "stateMutability": "nonpayable",
      "type": "function"
    }
  ],
  "bytecode": "0x608060405234801561001057600080fd5b50610658806100206000396000f3fe608060405234801561001057600080fd5b506004361061002b5760003560e01c8063baab912514610030575b600080fd5b61004a600480360381019061004591906104cc565b61004c565b005b60006040518061010001604052803373ffffffffffffffffffffffffffffffffffffffff1681526020018915158152602001881515815260200187151581526020018681526020018581526020018481526020018373ffffffffffffffffffffffffffffffffffffffff168152509050600081908060018154018082558091505060019003906000526020600020906005020160009091909190915060008201518160000160006101000a81548173ffffffffffffffffffffffffffffffffffffffff021916908373ffffffffffffffffffffffffffffffffffffffff16021790555060208201518160000160146101000a81548160ff02191690831515021790555060408201518160000160156101000a81548160ff02191690831515021790555060608201518160000160166101000a81548160ff02191690831515021790555060808201518160010190805190602001906101ab929190610239565b5060a08201518160020190805190602001906101c8929190610239565b5060c08201518160030190805190602001906101e5929190610239565b5060e08201518160040160006101000a81548173ffffffffffffffffffffffffffffffffffffffff021916908373ffffffffffffffffffffffffffffffffffffffff16021790555050505050505050505050565b828054610245906105f1565b90600052602060002090601f01602090048101928261026757600085556102ae565b82601f1061028057805160ff19168380011785556102ae565b828001600101855582156102ae579182015b828111156102ad578251825591602001919060010190610292565b5b5090506102bb91906102bf565b5090565b5b808211156102d85760008160009055506001016102c0565b5090565b6000604051905090565b600080fd5b600080fd5b60008115159050919050565b610305816102f0565b811461031057600080fd5b50565b600081359050610322816102fc565b92915050565b600080fd5b600080fd5b6000601f19601f8301169050919050565b7f4e487b7100000000000000000000000000000000000000000000000000000000600052604160045260246000fd5b61037b82610332565b810181811067ffffffffffffffff8211171561039a57610399610343565b5b80604052505050565b60006103ad6102dc565b90506103b98282610372565b919050565b600067ffffffffffffffff8211156103d9576103d8610343565b5b6103e282610332565b9050602081019050919050565b82818337600083830152505050565b600061041161040c846103be565b6103a3565b90508281526020810184848401111561042d5761042c61032d565b5b6104388482856103ef565b509392505050565b600082601f83011261045557610454610328565b5b81356104658482602086016103fe565b91505092915050565b600073ffffffffffffffffffffffffffffffffffffffff82169050919050565b60006104998261046e565b9050919050565b6104a98161048e565b81146104b457600080fd5b50565b6000813590506104c6816104a0565b92915050565b600080600080600080600060e0888a0312156104eb576104ea6102e6565b5b60006104f98a828b01610313565b975050602061050a8a828b01610313565b965050604061051b8a828b01610313565b955050606088013567ffffffffffffffff81111561053c5761053b6102eb565b5b6105488a828b01610440565b945050608088013567ffffffffffffffff811115610569576105686102eb565b5b6105758a828b01610440565b93505060a088013567ffffffffffffffff811115610596576105956102eb565b5b6105a28a828b01610440565b92505060c06105b38a828b016104b7565b91505092959891949750929550565b7f4e487b7100000000000000000000000000000000000000000000000000000000600052602260045260246000fd5b6000600282049050600182168061060957607f821691505b60208210810361061c5761061b6105c2565b5b5091905056fea2646970667358221220886ece7433d3d34b39de3c790dbf98398f26a41dcbea51f3d1ad87e766d322bd64736f6c634300080d0033",
  "immutableReferences": {},
  "source": "// SPDX-License-Identifier: MIT\npragma solidity ^0.8.13;\n\ncontract JeskeiAccount {\n    Account[] accounts;\n\n    struct Account {\n        address account_address;\n        bool bProducer;\n        bool bConsumer;\n        bool bInvestor;\n        string email;\n        string name;\n        string profile_description;\n        address profileNft;\n    }\n\n    constructor() {\n    }\n\n    function register(bool producer, bool consumer, bool investor, string memory email, string memory name, string memory description, address profileNft) public {\n        Account memory newAccount = Account(msg.sender, producer, consumer, investor, email, name, description, profileNft);\n        accounts.push(newAccount);\n    }\n}",
  "sourcePath": "/home/eagle/Source/Jeskei/Jeskei-Solidity/contracts/Account.sol",
  "compiler": {
    "name": "solc",
    "version": "0.8.13+commit.abaa5c0e.Emscripten.clang"
  },
  "schemaVersion": "3.4.16",
  "updatedAt": "2024-07-22T08:18:24.209Z",
  "devdoc": {
    "kind": "dev",
    "methods": {},
    "version": 1
  },
  "userdoc": {
    "kind": "user",
    "methods": {},
    "version": 1
  }
}