{
  "contractName": "JeskeiStudio",
  "abi": [
    {
      "anonymous": false,
      "inputs": [
        {
          "indexed": false,
          "internalType": "bytes32",
          "name": "id",
          "type": "bytes32"
        },
        {
          "indexed": false,
          "internalType": "string",
          "name": "name",
          "type": "string"
        },
        {
          "indexed": false,
          "internalType": "string",
          "name": "description",
          "type": "string"
        },
        {
          "indexed": false,
          "internalType": "address",
          "name": "logoNft",
          "type": "address"
        }
      ],
      "name": "StudioRegistered",
      "type": "event"
    },
    {
      "inputs": [
        {
          "internalType": "string",
          "name": "name",
          "type": "string"
        },
        {
          "internalType": "string",
          "name": "description",
          "type": "string"
        },
        {
          "internalType": "address",
          "name": "logoNft",
          "type": "address"
        }
      ],
      "name": "register",
      "outputs": [],
      "stateMutability": "nonpayable",
      "type": "function"
    },
    {
      "inputs": [],
      "name": "getStudios",
      "outputs": [
        {
          "internalType": "bytes32[]",
          "name": "",
          "type": "bytes32[]"
        }
      ],
      "stateMutability": "view",
      "type": "function"
    }
  ],
  "bytecode": "0x608060405234801561001057600080fd5b50610b25806100206000396000f3fe608060405234801561001057600080fd5b50600436106100365760003560e01c80635664d69c1461003b5780637c78c1cb14610057575b600080fd5b6100556004803603810190610050919061065d565b610075565b005b61005f6103aa565b60405161006c91906107b0565b60405180910390f35b6000838383600143610087919061080b565b4060405160200161009b9493929190610922565b6040516020818303038152906040528051906020012090506000801b600080838152602001908152602001600020600001541461010d576040517f08c379a0000000000000000000000000000000000000000000000000000000008152600401610104906109c5565b60405180910390fd5b6000806000838152602001908152602001600020905081816000018190555084816001019080519060200190610144929190610402565b508381600201908051906020019061015d929190610402565b50828160030160006101000a81548173ffffffffffffffffffffffffffffffffffffffff021916908373ffffffffffffffffffffffffffffffffffffffff16021790555080600401339080600181540180825580915050600190039060005260206000200160009091909190916101000a81548173ffffffffffffffffffffffffffffffffffffffff021916908373ffffffffffffffffffffffffffffffffffffffff16021790555080600501339080600181540180825580915050600190039060005260206000200160009091909190916101000a81548173ffffffffffffffffffffffffffffffffffffffff021916908373ffffffffffffffffffffffffffffffffffffffff160217905550600182908060018154018082558091505060019003906000526020600020016000909190919091505560016002600084815260200190815260200160002060003373ffffffffffffffffffffffffffffffffffffffff1673ffffffffffffffffffffffffffffffffffffffff16815260200190815260200160002060006101000a81548160ff02191690831515021790555060016003600084815260200190815260200160002060003373ffffffffffffffffffffffffffffffffffffffff1673ffffffffffffffffffffffffffffffffffffffff16815260200190815260200160002060006101000a81548160ff0219169083151502179055507ff08ac2deb9fbc9662b1cf91d5c9b47a07f836d568081aa0c088064a4ad71e07b8286868660405161039b9493929190610a3c565b60405180910390a15050505050565b606060018054806020026020016040519081016040528092919081815260200182805480156103f857602002820191906000526020600020905b8154815260200190600101908083116103e4575b5050505050905090565b82805461040e90610abe565b90600052602060002090601f0160209004810192826104305760008555610477565b82601f1061044957805160ff1916838001178555610477565b82800160010185558215610477579182015b8281111561047657825182559160200191906001019061045b565b5b5090506104849190610488565b5090565b5b808211156104a1576000816000905550600101610489565b5090565b6000604051905090565b600080fd5b600080fd5b600080fd5b600080fd5b6000601f19601f8301169050919050565b7f4e487b7100000000000000000000000000000000000000000000000000000000600052604160045260246000fd5b61050c826104c3565b810181811067ffffffffffffffff8211171561052b5761052a6104d4565b5b80604052505050565b600061053e6104a5565b905061054a8282610503565b919050565b600067ffffffffffffffff82111561056a576105696104d4565b5b610573826104c3565b9050602081019050919050565b82818337600083830152505050565b60006105a261059d8461054f565b610534565b9050828152602081018484840111156105be576105bd6104be565b5b6105c9848285610580565b509392505050565b600082601f8301126105e6576105e56104b9565b5b81356105f684826020860161058f565b91505092915050565b600073ffffffffffffffffffffffffffffffffffffffff82169050919050565b600061062a826105ff565b9050919050565b61063a8161061f565b811461064557600080fd5b50565b60008135905061065781610631565b92915050565b600080600060608486031215610676576106756104af565b5b600084013567ffffffffffffffff811115610694576106936104b4565b5b6106a0868287016105d1565b935050602084013567ffffffffffffffff8111156106c1576106c06104b4565b5b6106cd868287016105d1565b92505060406106de86828701610648565b9150509250925092565b600081519050919050565b600082825260208201905092915050565b6000819050602082019050919050565b6000819050919050565b61072781610714565b82525050565b6000610739838361071e565b60208301905092915050565b6000602082019050919050565b600061075d826106e8565b61076781856106f3565b935061077283610704565b8060005b838110156107a357815161078a888261072d565b975061079583610745565b925050600181019050610776565b5085935050505092915050565b600060208201905081810360008301526107ca8184610752565b905092915050565b6000819050919050565b7f4e487b7100000000000000000000000000000000000000000000000000000000600052601160045260246000fd5b6000610816826107d2565b9150610821836107d2565b925082821015610834576108336107dc565b5b828203905092915050565b600081519050919050565b600081905092915050565b60005b83811015610873578082015181840152602081019050610858565b83811115610882576000848401525b50505050565b60006108938261083f565b61089d818561084a565b93506108ad818560208601610855565b80840191505092915050565b60008160601b9050919050565b60006108d1826108b9565b9050919050565b60006108e3826108c6565b9050919050565b6108fb6108f68261061f565b6108d8565b82525050565b6000819050919050565b61091c61091782610714565b610901565b82525050565b600061092e8287610888565b915061093a8286610888565b915061094682856108ea565b601482019150610956828461090b565b60208201915081905095945050505050565b600082825260208201905092915050565b7f53747564696f20616c7265616479206578697374730000000000000000000000600082015250565b60006109af601583610968565b91506109ba82610979565b602082019050919050565b600060208201905081810360008301526109de816109a2565b9050919050565b6109ee81610714565b82525050565b60006109ff8261083f565b610a098185610968565b9350610a19818560208601610855565b610a22816104c3565b840191505092915050565b610a368161061f565b82525050565b6000608082019050610a5160008301876109e5565b8181036020830152610a6381866109f4565b90508181036040830152610a7781856109f4565b9050610a866060830184610a2d565b95945050505050565b7f4e487b7100000000000000000000000000000000000000000000000000000000600052602260045260246000fd5b60006002820490506001821680610ad657607f821691505b602082108103610ae957610ae8610a8f565b5b5091905056fea26469706673582212204fbf309a0454b0255f9bf665f4ef3a9fa4bd9530f3e1ee2af63f55f39b6685f664736f6c634300080d0033",
  "immutableReferences": {},
  "source": "// SPDX-License-Identifier: MIT\npragma solidity ^0.8.13;\n\nimport \"./lib/SupportLib.sol\";\n\ncontract JeskeiStudio {\n\n    enum StudioType { Incorporated, Digital, Other }\n\n    struct Studio {\n        bytes32 id;\n        string name;\n        string description;\n        address logoNft;\n        address[] associates;\n        address[] administrators;\n        bytes32[] productions;\n    }\n\n    mapping(bytes32 => Studio) private studios;\n    bytes32[] private studioIds;\n    mapping(bytes32 => mapping(address => bool)) private isAssociate;\n    mapping(bytes32 => mapping(address => bool)) private isAdministrator;\n\n    event StudioRegistered(bytes32 id, string name, string description, address logoNft);\n\n    function register(string memory name, string memory description, address logoNft) public {\n        bytes32 id = keccak256(abi.encodePacked(name, description, logoNft, blockhash(block.number - 1)));\n\n        require(studios[id].id == 0, \"Studio already exists\");\n\n        Studio storage newStudio = studios[id];\n        newStudio.id = id;\n        newStudio.name = name;\n        newStudio.description = description;\n        newStudio.logoNft = logoNft;\n        newStudio.associates.push(msg.sender);\n        newStudio.administrators.push(msg.sender);\n\n        studioIds.push(id);\n        isAssociate[id][msg.sender] = true;\n        isAdministrator[id][msg.sender] = true;\n\n        emit StudioRegistered(id, name, description, logoNft);\n    }\n\n    function getStudios() public view returns (bytes32[] memory) {\n        return studioIds;\n    }\n\n    modifier checkStudioAssociate(bytes32 studio) {\n        require(isAssociate[studio][msg.sender], \"Not an associate\");\n        _;\n    }\n\n    modifier checkStudioAdministrator(bytes32 studio) {\n        require(isAdministrator[studio][msg.sender], \"Not an administrator\");\n        _;\n    }\n}\n",
  "sourcePath": "/home/eagle/Source/Jeskei/Jeskei-Solidity/contracts/Studio.sol",
  "compiler": {
    "name": "solc",
    "version": "0.8.13+commit.abaa5c0e.Emscripten.clang"
  },
  "schemaVersion": "3.4.16",
  "updatedAt": "2024-07-22T08:18:30.338Z",
  "devdoc": {
    "kind": "dev",
    "methods": {},
    "version": 1
  },
  "userdoc": {
    "kind": "user",
    "methods": {},
    "version": 1
  }
}