{
  "contractName": "Production",
  "abi": [
    {
      "inputs": [
        {
          "internalType": "string",
          "name": "name_",
          "type": "string"
        },
        {
          "internalType": "string",
          "name": "symbol_",
          "type": "string"
        }
      ],
      "stateMutability": "nonpayable",
      "type": "constructor"
    },
    {
      "inputs": [
        {
          "internalType": "address",
          "name": "sender",
          "type": "address"
        },
        {
          "internalType": "uint256",
          "name": "tokenId",
          "type": "uint256"
        },
        {
          "internalType": "address",
          "name": "owner",
          "type": "address"
        }
      ],
      "name": "ERC721IncorrectOwner",
      "type": "error"
    },
    {
      "inputs": [
        {
          "internalType": "address",
          "name": "operator",
          "type": "address"
        },
        {
          "internalType": "uint256",
          "name": "tokenId",
          "type": "uint256"
        }
      ],
      "name": "ERC721InsufficientApproval",
      "type": "error"
    },
    {
      "inputs": [
        {
          "internalType": "address",
          "name": "approver",
          "type": "address"
        }
      ],
      "name": "ERC721InvalidApprover",
      "type": "error"
    },
    {
      "inputs": [
        {
          "internalType": "address",
          "name": "operator",
          "type": "address"
        }
      ],
      "name": "ERC721InvalidOperator",
      "type": "error"
    },
    {
      "inputs": [
        {
          "internalType": "address",
          "name": "owner",
          "type": "address"
        }
      ],
      "name": "ERC721InvalidOwner",
      "type": "error"
    },
    {
      "inputs": [
        {
          "internalType": "address",
          "name": "receiver",
          "type": "address"
        }
      ],
      "name": "ERC721InvalidReceiver",
      "type": "error"
    },
    {
      "inputs": [
        {
          "internalType": "address",
          "name": "sender",
          "type": "address"
        }
      ],
      "name": "ERC721InvalidSender",
      "type": "error"
    },
    {
      "inputs": [
        {
          "internalType": "uint256",
          "name": "tokenId",
          "type": "uint256"
        }
      ],
      "name": "ERC721NonexistentToken",
      "type": "error"
    },
    {
      "inputs": [
        {
          "internalType": "address",
          "name": "owner",
          "type": "address"
        }
      ],
      "name": "OwnableInvalidOwner",
      "type": "error"
    },
    {
      "inputs": [
        {
          "internalType": "address",
          "name": "account",
          "type": "address"
        }
      ],
      "name": "OwnableUnauthorizedAccount",
      "type": "error"
    },
    {
      "anonymous": false,
      "inputs": [
        {
          "indexed": true,
          "internalType": "address",
          "name": "owner",
          "type": "address"
        },
        {
          "indexed": true,
          "internalType": "address",
          "name": "approved",
          "type": "address"
        },
        {
          "indexed": true,
          "internalType": "uint256",
          "name": "tokenId",
          "type": "uint256"
        }
      ],
      "name": "Approval",
      "type": "event"
    },
    {
      "anonymous": false,
      "inputs": [
        {
          "indexed": true,
          "internalType": "address",
          "name": "owner",
          "type": "address"
        },
        {
          "indexed": true,
          "internalType": "address",
          "name": "operator",
          "type": "address"
        },
        {
          "indexed": false,
          "internalType": "bool",
          "name": "approved",
          "type": "bool"
        }
      ],
      "name": "ApprovalForAll",
      "type": "event"
    },
    {
      "anonymous": false,
      "inputs": [
        {
          "indexed": false,
          "internalType": "uint256",
          "name": "_fromTokenId",
          "type": "uint256"
        },
        {
          "indexed": false,
          "internalType": "uint256",
          "name": "_toTokenId",
          "type": "uint256"
        }
      ],
      "name": "BatchMetadataUpdate",
      "type": "event"
    },
    {
      "anonymous": false,
      "inputs": [
        {
          "indexed": false,
          "internalType": "string",
          "name": "oldDescription",
          "type": "string"
        },
        {
          "indexed": false,
          "internalType": "string",
          "name": "newDescription",
          "type": "string"
        }
      ],
      "name": "DescriptionUpdated",
      "type": "event"
    },
    {
      "anonymous": false,
      "inputs": [
        {
          "indexed": false,
          "internalType": "enum Production.FilmRatingEnum",
          "name": "oldRating",
          "type": "uint8"
        },
        {
          "indexed": false,
          "internalType": "enum Production.FilmRatingEnum",
          "name": "newRating",
          "type": "uint8"
        }
      ],
      "name": "FilmRatingUpdated",
      "type": "event"
    },
    {
      "anonymous": false,
      "inputs": [
        {
          "indexed": false,
          "internalType": "uint256",
          "name": "_tokenId",
          "type": "uint256"
        }
      ],
      "name": "MetadataUpdate",
      "type": "event"
    },
    {
      "anonymous": false,
      "inputs": [
        {
          "indexed": true,
          "internalType": "address",
          "name": "previousOwner",
          "type": "address"
        },
        {
          "indexed": true,
          "internalType": "address",
          "name": "newOwner",
          "type": "address"
        }
      ],
      "name": "OwnershipTransferred",
      "type": "event"
    },
    {
      "anonymous": false,
      "inputs": [
        {
          "indexed": false,
          "internalType": "uint256",
          "name": "tokenId",
          "type": "uint256"
        },
        {
          "indexed": true,
          "internalType": "address",
          "name": "creator",
          "type": "address"
        },
        {
          "indexed": false,
          "internalType": "string",
          "name": "tokenURI",
          "type": "string"
        },
        {
          "indexed": false,
          "internalType": "string",
          "name": "description",
          "type": "string"
        },
        {
          "indexed": false,
          "internalType": "enum Production.FilmRatingEnum",
          "name": "filmRating",
          "type": "uint8"
        },
        {
          "indexed": false,
          "internalType": "uint256",
          "name": "viewWei",
          "type": "uint256"
        },
        {
          "indexed": false,
          "internalType": "string[]",
          "name": "tags",
          "type": "string[]"
        }
      ],
      "name": "ProductionCreated",
      "type": "event"
    },
    {
      "anonymous": false,
      "inputs": [
        {
          "indexed": false,
          "internalType": "string[]",
          "name": "oldTags",
          "type": "string[]"
        },
        {
          "indexed": false,
          "internalType": "string[]",
          "name": "newTags",
          "type": "string[]"
        }
      ],
      "name": "TagsUpdated",
      "type": "event"
    },
    {
      "anonymous": false,
      "inputs": [
        {
          "indexed": true,
          "internalType": "address",
          "name": "from",
          "type": "address"
        },
        {
          "indexed": true,
          "internalType": "address",
          "name": "to",
          "type": "address"
        },
        {
          "indexed": true,
          "internalType": "uint256",
          "name": "tokenId",
          "type": "uint256"
        }
      ],
      "name": "Transfer",
      "type": "event"
    },
    {
      "anonymous": false,
      "inputs": [
        {
          "indexed": false,
          "internalType": "uint256",
          "name": "oldViewWei",
          "type": "uint256"
        },
        {
          "indexed": false,
          "internalType": "uint256",
          "name": "newViewWei",
          "type": "uint256"
        }
      ],
      "name": "ViewWeiUpdated",
      "type": "event"
    },
    {
      "inputs": [
        {
          "internalType": "address",
          "name": "to",
          "type": "address"
        },
        {
          "internalType": "uint256",
          "name": "tokenId",
          "type": "uint256"
        }
      ],
      "name": "approve",
      "outputs": [],
      "stateMutability": "nonpayable",
      "type": "function"
    },
    {
      "inputs": [
        {
          "internalType": "address",
          "name": "owner",
          "type": "address"
        }
      ],
      "name": "balanceOf",
      "outputs": [
        {
          "internalType": "uint256",
          "name": "",
          "type": "uint256"
        }
      ],
      "stateMutability": "view",
      "type": "function"
    },
    {
      "inputs": [
        {
          "internalType": "uint256",
          "name": "tokenId",
          "type": "uint256"
        }
      ],
      "name": "getApproved",
      "outputs": [
        {
          "internalType": "address",
          "name": "",
          "type": "address"
        }
      ],
      "stateMutability": "view",
      "type": "function"
    },
    {
      "inputs": [
        {
          "internalType": "address",
          "name": "owner",
          "type": "address"
        },
        {
          "internalType": "address",
          "name": "operator",
          "type": "address"
        }
      ],
      "name": "isApprovedForAll",
      "outputs": [
        {
          "internalType": "bool",
          "name": "",
          "type": "bool"
        }
      ],
      "stateMutability": "view",
      "type": "function"
    },
    {
      "inputs": [],
      "name": "name",
      "outputs": [
        {
          "internalType": "string",
          "name": "",
          "type": "string"
        }
      ],
      "stateMutability": "view",
      "type": "function"
    },
    {
      "inputs": [],
      "name": "owner",
      "outputs": [
        {
          "internalType": "address",
          "name": "",
          "type": "address"
        }
      ],
      "stateMutability": "view",
      "type": "function"
    },
    {
      "inputs": [
        {
          "internalType": "uint256",
          "name": "tokenId",
          "type": "uint256"
        }
      ],
      "name": "ownerOf",
      "outputs": [
        {
          "internalType": "address",
          "name": "",
          "type": "address"
        }
      ],
      "stateMutability": "view",
      "type": "function"
    },
    {
      "inputs": [],
      "name": "renounceOwnership",
      "outputs": [],
      "stateMutability": "nonpayable",
      "type": "function"
    },
    {
      "inputs": [
        {
          "internalType": "address",
          "name": "from",
          "type": "address"
        },
        {
          "internalType": "address",
          "name": "to",
          "type": "address"
        },
        {
          "internalType": "uint256",
          "name": "tokenId",
          "type": "uint256"
        }
      ],
      "name": "safeTransferFrom",
      "outputs": [],
      "stateMutability": "nonpayable",
      "type": "function"
    },
    {
      "inputs": [
        {
          "internalType": "address",
          "name": "from",
          "type": "address"
        },
        {
          "internalType": "address",
          "name": "to",
          "type": "address"
        },
        {
          "internalType": "uint256",
          "name": "tokenId",
          "type": "uint256"
        },
        {
          "internalType": "bytes",
          "name": "data",
          "type": "bytes"
        }
      ],
      "name": "safeTransferFrom",
      "outputs": [],
      "stateMutability": "nonpayable",
      "type": "function"
    },
    {
      "inputs": [
        {
          "internalType": "address",
          "name": "operator",
          "type": "address"
        },
        {
          "internalType": "bool",
          "name": "approved",
          "type": "bool"
        }
      ],
      "name": "setApprovalForAll",
      "outputs": [],
      "stateMutability": "nonpayable",
      "type": "function"
    },
    {
      "inputs": [
        {
          "internalType": "bytes4",
          "name": "interfaceId",
          "type": "bytes4"
        }
      ],
      "name": "supportsInterface",
      "outputs": [
        {
          "internalType": "bool",
          "name": "",
          "type": "bool"
        }
      ],
      "stateMutability": "view",
      "type": "function"
    },
    {
      "inputs": [],
      "name": "symbol",
      "outputs": [
        {
          "internalType": "string",
          "name": "",
          "type": "string"
        }
      ],
      "stateMutability": "view",
      "type": "function"
    },
    {
      "inputs": [
        {
          "internalType": "uint256",
          "name": "tokenId",
          "type": "uint256"
        }
      ],
      "name": "tokenURI",
      "outputs": [
        {
          "internalType": "string",
          "name": "",
          "type": "string"
        }
      ],
      "stateMutability": "view",
      "type": "function"
    },
    {
      "inputs": [
        {
          "internalType": "address",
          "name": "from",
          "type": "address"
        },
        {
          "internalType": "address",
          "name": "to",
          "type": "address"
        },
        {
          "internalType": "uint256",
          "name": "tokenId",
          "type": "uint256"
        }
      ],
      "name": "transferFrom",
      "outputs": [],
      "stateMutability": "nonpayable",
      "type": "function"
    },
    {
      "inputs": [
        {
          "internalType": "address",
          "name": "newOwner",
          "type": "address"
        }
      ],
      "name": "transferOwnership",
      "outputs": [],
      "stateMutability": "nonpayable",
      "type": "function"
    },
    {
      "inputs": [
        {
          "internalType": "address",
          "name": "productionCreator_",
          "type": "address"
        },
        {
          "internalType": "string",
          "name": "tokenURI_",
          "type": "string"
        },
        {
          "internalType": "string",
          "name": "description_",
          "type": "string"
        },
        {
          "internalType": "enum Production.FilmRatingEnum",
          "name": "filmRating_",
          "type": "uint8"
        },
        {
          "internalType": "uint256",
          "name": "viewWei_",
          "type": "uint256"
        },
        {
          "internalType": "string[]",
          "name": "tags_",
          "type": "string[]"
        }
      ],
      "name": "createProduction",
      "outputs": [
        {
          "internalType": "uint256",
          "name": "",
          "type": "uint256"
        }
      ],
      "stateMutability": "nonpayable",
      "type": "function"
    },
    {
      "inputs": [],
      "name": "getDescription",
      "outputs": [
        {
          "internalType": "string",
          "name": "",
          "type": "string"
        }
      ],
      "stateMutability": "view",
      "type": "function"
    },
    {
      "inputs": [],
      "name": "getFilmRating",
      "outputs": [
        {
          "internalType": "enum Production.FilmRatingEnum",
          "name": "",
          "type": "uint8"
        }
      ],
      "stateMutability": "view",
      "type": "function"
    },
    {
      "inputs": [],
      "name": "getTags",
      "outputs": [
        {
          "internalType": "string[]",
          "name": "",
          "type": "string[]"
        }
      ],
      "stateMutability": "view",
      "type": "function"
    },
    {
      "inputs": [],
      "name": "getViewWei",
      "outputs": [
        {
          "internalType": "uint256",
          "name": "",
          "type": "uint256"
        }
      ],
      "stateMutability": "view",
      "type": "function"
    },
    {
      "inputs": [
        {
          "internalType": "string",
          "name": "newDescription",
          "type": "string"
        }
      ],
      "name": "updateDescription",
      "outputs": [],
      "stateMutability": "nonpayable",
      "type": "function"
    },
    {
      "inputs": [
        {
          "internalType": "enum Production.FilmRatingEnum",
          "name": "newFilmRating",
          "type": "uint8"
        }
      ],
      "name": "updateFilmRating",
      "outputs": [],
      "stateMutability": "nonpayable",
      "type": "function"
    },
    {
      "inputs": [
        {
          "internalType": "string[]",
          "name": "newTags",
          "type": "string[]"
        }
      ],
      "name": "updateTags",
      "outputs": [],
      "stateMutability": "nonpayable",
      "type": "function"
    },
    {
      "inputs": [
        {
          "internalType": "uint256",
          "name": "newViewWei",
          "type": "uint256"
        }
      ],
      "name": "updateViewWei",
      "outputs": [],
      "stateMutability": "nonpayable",
      "type": "function"
    }
  ],
  "bytecode": "0x608060405234801562000010575f80fd5b5060405162003bca38038062003bca8339818101604052810190620000369190620004ac565b338282815f908162000049919062000766565b5080600190816200005b919062000766565b5050505f73ffffffffffffffffffffffffffffffffffffffff168173ffffffffffffffffffffffffffffffffffffffff1603620000d1575f6040517f1e4fbdf7000000000000000000000000000000000000000000000000000000008152600401620000c891906200088d565b60405180910390fd5b620000e281620000fc60201b60201c565b50620000f433620001bf60201b60201c565b5050620008a8565b5f60075f9054906101000a900473ffffffffffffffffffffffffffffffffffffffff1690508160075f6101000a81548173ffffffffffffffffffffffffffffffffffffffff021916908373ffffffffffffffffffffffffffffffffffffffff1602179055508173ffffffffffffffffffffffffffffffffffffffff168173ffffffffffffffffffffffffffffffffffffffff167f8be0079c531659141344cd1fd0a4f28419497f9722a3daafe3b4186f6b6457e060405160405180910390a35050565b620001cf6200025660201b60201c565b5f73ffffffffffffffffffffffffffffffffffffffff168173ffffffffffffffffffffffffffffffffffffffff160362000242575f6040517f1e4fbdf70000000000000000000000000000000000000000000000000000000081526004016200023991906200088d565b60405180910390fd5b6200025381620000fc60201b60201c565b50565b62000266620002f860201b60201c565b73ffffffffffffffffffffffffffffffffffffffff166200028c620002ff60201b60201c565b73ffffffffffffffffffffffffffffffffffffffff1614620002f657620002b8620002f860201b60201c565b6040517f118cdaa7000000000000000000000000000000000000000000000000000000008152600401620002ed91906200088d565b60405180910390fd5b565b5f33905090565b5f60075f9054906101000a900473ffffffffffffffffffffffffffffffffffffffff16905090565b5f604051905090565b5f80fd5b5f80fd5b5f80fd5b5f80fd5b5f601f19601f8301169050919050565b7f4e487b71000000000000000000000000000000000000000000000000000000005f52604160045260245ffd5b620003888262000340565b810181811067ffffffffffffffff82111715620003aa57620003a962000350565b5b80604052505050565b5f620003be62000327565b9050620003cc82826200037d565b919050565b5f67ffffffffffffffff821115620003ee57620003ed62000350565b5b620003f98262000340565b9050602081019050919050565b5f5b838110156200042557808201518184015260208101905062000408565b5f8484015250505050565b5f620004466200044084620003d1565b620003b3565b9050828152602081018484840111156200046557620004646200033c565b5b6200047284828562000406565b509392505050565b5f82601f83011262000491576200049062000338565b5b8151620004a384826020860162000430565b91505092915050565b5f8060408385031215620004c557620004c462000330565b5b5f83015167ffffffffffffffff811115620004e557620004e462000334565b5b620004f3858286016200047a565b925050602083015167ffffffffffffffff81111562000517576200051662000334565b5b62000525858286016200047a565b9150509250929050565b5f81519050919050565b7f4e487b71000000000000000000000000000000000000000000000000000000005f52602260045260245ffd5b5f60028204905060018216806200057e57607f821691505b60208210810362000594576200059362000539565b5b50919050565b5f819050815f5260205f209050919050565b5f6020601f8301049050919050565b5f82821b905092915050565b5f60088302620005f87fffffffffffffffffffffffffffffffffffffffffffffffffffffffffffffffff82620005bb565b620006048683620005bb565b95508019841693508086168417925050509392505050565b5f819050919050565b5f819050919050565b5f6200064e6200064862000642846200061c565b62000625565b6200061c565b9050919050565b5f819050919050565b62000669836200062e565b62000681620006788262000655565b848454620005c7565b825550505050565b5f90565b6200069762000689565b620006a48184846200065e565b505050565b5b81811015620006cb57620006bf5f826200068d565b600181019050620006aa565b5050565b601f8211156200071a57620006e4816200059a565b620006ef84620005ac565b81016020851015620006ff578190505b620007176200070e85620005ac565b830182620006a9565b50505b505050565b5f82821c905092915050565b5f6200073c5f19846008026200071f565b1980831691505092915050565b5f6200075683836200072b565b9150826002028217905092915050565b62000771826200052f565b67ffffffffffffffff8111156200078d576200078c62000350565b5b62000799825462000566565b620007a6828285620006cf565b5f60209050601f831160018114620007dc575f8415620007c7578287015190505b620007d3858262000749565b86555062000842565b601f198416620007ec866200059a565b5f5b828110156200081557848901518255600182019150602085019450602081019050620007ee565b8683101562000835578489015162000831601f8916826200072b565b8355505b6001600288020188555050505b505050505050565b5f73ffffffffffffffffffffffffffffffffffffffff82169050919050565b5f62000875826200084a565b9050919050565b620008878162000869565b82525050565b5f602082019050620008a25f8301846200087c565b92915050565b61331480620008b65f395ff3fe608060405234801561000f575f80fd5b5060043610610171575f3560e01c8063715018a6116100dc578063a6f4059511610095578063d7d2ae7a1161006f578063d7d2ae7a14610433578063e735b48a14610451578063e985e9c51461046d578063f2fde38b1461049d57610171565b8063a6f40595146103c9578063b88d4fde146103e7578063c87b56dd1461040357610171565b8063715018a6146103195780638da5cb5b1461032357806395d89b4114610341578063995d9ab71461035f578063a22cb4651461037d578063a55e7f751461039957610171565b806323b872dd1161012e57806323b872dd146102495780633fe7c4521461026557806342842e0e146102815780634e08ad041461029d5780636352211e146102b957806370a08231146102e957610171565b806301ffc9a71461017557806306fdde03146101a5578063081812fc146101c3578063095ea7b3146101f35780631a0925411461020f5780631ae750be1461022d575b5f80fd5b61018f600480360381019061018a9190612074565b6104b9565b60405161019c91906120b9565b60405180910390f35b6101ad610519565b6040516101ba919061215c565b60405180910390f35b6101dd60048036038101906101d891906121af565b6105a8565b6040516101ea9190612219565b60405180910390f35b61020d6004803603810190610208919061225c565b6105c3565b005b6102176105d9565b604051610224919061215c565b60405180910390f35b610247600480360381019061024291906121af565b610669565b005b610263600480360381019061025e919061229a565b6106f8565b005b61027f600480360381019061027a919061230d565b6107f7565b005b61029b6004803603810190610296919061229a565b610872565b005b6102b760048036038101906102b29190612546565b610891565b005b6102d360048036038101906102ce91906121af565b6108ed565b6040516102e09190612219565b60405180910390f35b61030360048036038101906102fe919061258d565b6108fe565b60405161031091906125c7565b60405180910390f35b6103216109b4565b005b61032b6109c7565b6040516103389190612219565b60405180910390f35b6103496109ef565b604051610356919061215c565b60405180910390f35b610367610a7f565b60405161037491906126e3565b60405180910390f35b6103976004803603810190610392919061272d565b610b53565b005b6103b360048036038101906103ae919061276b565b610b69565b6040516103c091906125c7565b60405180910390f35b6103d1610c9e565b6040516103de91906125c7565b60405180910390f35b61040160048036038101906103fc91906128e6565b610ca7565b005b61041d600480360381019061041891906121af565b610cc4565b60405161042a919061215c565b60405180910390f35b61043b610dcf565b60405161044891906129d9565b60405180910390f35b61046b600480360381019061046691906129f2565b610de4565b005b61048760048036038101906104829190612a39565b610e39565b60405161049491906120b9565b60405180910390f35b6104b760048036038101906104b2919061258d565b610ec7565b005b5f634906490660e01b7bffffffffffffffffffffffffffffffffffffffffffffffffffffffff1916827bffffffffffffffffffffffffffffffffffffffffffffffffffffffff19161480610512575061051182610f4b565b5b9050919050565b60605f805461052790612aa4565b80601f016020809104026020016040519081016040528092919081815260200182805461055390612aa4565b801561059e5780601f106105755761010080835404028352916020019161059e565b820191905f5260205f20905b81548152906001019060200180831161058157829003601f168201915b5050505050905090565b5f6105b28261102c565b506105bc826110b2565b9050919050565b6105d582826105d06110eb565b6110f2565b5050565b6060600980546105e890612aa4565b80601f016020809104026020016040519081016040528092919081815260200182805461061490612aa4565b801561065f5780601f106106365761010080835404028352916020019161065f565b820191905f5260205f20905b81548152906001019060200180831161064257829003601f168201915b5050505050905090565b610671611104565b5f81116106b3576040517f08c379a00000000000000000000000000000000000000000000000000000000081526004016106aa90612b44565b60405180910390fd5b7f93dd8db802a58d2e2ea086008226799de7943aaf1a8c2b86caff4144cd3262a9600c54826040516106e6929190612b62565b60405180910390a180600c8190555050565b5f73ffffffffffffffffffffffffffffffffffffffff168273ffffffffffffffffffffffffffffffffffffffff1603610768575f6040517f64a0ae9200000000000000000000000000000000000000000000000000000000815260040161075f9190612219565b60405180910390fd5b5f61077b83836107766110eb565b61118b565b90508373ffffffffffffffffffffffffffffffffffffffff168173ffffffffffffffffffffffffffffffffffffffff16146107f1578382826040517f64283d7b0000000000000000000000000000000000000000000000000000000081526004016107e893929190612b89565b60405180910390fd5b50505050565b6107ff611104565b7f0f71e0b41e5248faae03f3927d52e9e8264f17dfb00eba9c4aad3add9821a22c600a5f9054906101000a900460ff168260405161083e929190612bbe565b60405180910390a180600a5f6101000a81548160ff0219169083600481111561086a57610869612966565b5b021790555050565b61088c83838360405180602001604052805f815250610ca7565b505050565b610899611104565b7f7efdf63cb93b00cf5f12f3ddd1f10db4548ad93837d7f768a5e16c8aca0e7a26600b826040516108cb929190612d25565b60405180910390a180600b90805190602001906108e9929190611f3c565b5050565b5f6108f78261102c565b9050919050565b5f8073ffffffffffffffffffffffffffffffffffffffff168273ffffffffffffffffffffffffffffffffffffffff160361096f575f6040517f89c62b640000000000000000000000000000000000000000000000000000000081526004016109669190612219565b60405180910390fd5b60035f8373ffffffffffffffffffffffffffffffffffffffff1673ffffffffffffffffffffffffffffffffffffffff1681526020019081526020015f20549050919050565b6109bc611104565b6109c55f611396565b565b5f60075f9054906101000a900473ffffffffffffffffffffffffffffffffffffffff16905090565b6060600180546109fe90612aa4565b80601f0160208091040260200160405190810160405280929190818152602001828054610a2a90612aa4565b8015610a755780601f10610a4c57610100808354040283529160200191610a75565b820191905f5260205f20905b815481529060010190602001808311610a5857829003601f168201915b5050505050905090565b6060600b805480602002602001604051908101604052809291908181526020015f905b82821015610b4a578382905f5260205f20018054610abf90612aa4565b80601f0160208091040260200160405190810160405280929190818152602001828054610aeb90612aa4565b8015610b365780601f10610b0d57610100808354040283529160200191610b36565b820191905f5260205f20905b815481529060010190602001808311610b1957829003601f168201915b505050505081526020019060010190610aa2565b50505050905090565b610b65610b5e6110eb565b8383611459565b5050565b5f610b72611104565b5f8311610bb4576040517f08c379a0000000000000000000000000000000000000000000000000000000008152600401610bab90612b44565b60405180910390fd5b5f60085f815480929190610bc790612d87565b919050559050610bd788826115c2565b610be181886116b5565b8560099081610bf09190612f59565b5084600a5f6101000a81548160ff02191690836004811115610c1557610c14612966565b5b021790555082600b9080519060200190610c30929190611f3c565b5083600c819055508773ffffffffffffffffffffffffffffffffffffffff167fbbe7f2c647c1acb723d88f74844a3eb1d27c9694d8ad3733c3d057a3d9ef3243828989898989604051610c8896959493929190613028565b60405180910390a2809150509695505050505050565b5f600c54905090565b610cb28484846106f8565b610cbe8484848461170f565b50505050565b6060610ccf8261102c565b505f60065f8481526020019081526020015f208054610ced90612aa4565b80601f0160208091040260200160405190810160405280929190818152602001828054610d1990612aa4565b8015610d645780601f10610d3b57610100808354040283529160200191610d64565b820191905f5260205f20905b815481529060010190602001808311610d4757829003601f168201915b505050505090505f610d746118c1565b90505f815103610d88578192505050610dca565b5f82511115610dbc578082604051602001610da49291906130d6565b60405160208183030381529060405292505050610dca565b610dc5846118d7565b925050505b919050565b5f600a5f9054906101000a900460ff16905090565b610dec611104565b7fe21432e1fe2b572d5803dd7316b7a854952317b42017f920a616ec70cdb8a5c1600982604051610e1e92919061317a565b60405180910390a18060099081610e359190612f59565b5050565b5f60055f8473ffffffffffffffffffffffffffffffffffffffff1673ffffffffffffffffffffffffffffffffffffffff1681526020019081526020015f205f8373ffffffffffffffffffffffffffffffffffffffff1673ffffffffffffffffffffffffffffffffffffffff1681526020019081526020015f205f9054906101000a900460ff16905092915050565b610ecf611104565b5f73ffffffffffffffffffffffffffffffffffffffff168173ffffffffffffffffffffffffffffffffffffffff1603610f3f575f6040517f1e4fbdf7000000000000000000000000000000000000000000000000000000008152600401610f369190612219565b60405180910390fd5b610f4881611396565b50565b5f7f80ac58cd000000000000000000000000000000000000000000000000000000007bffffffffffffffffffffffffffffffffffffffffffffffffffffffff1916827bffffffffffffffffffffffffffffffffffffffffffffffffffffffff1916148061101557507f5b5e139f000000000000000000000000000000000000000000000000000000007bffffffffffffffffffffffffffffffffffffffffffffffffffffffff1916827bffffffffffffffffffffffffffffffffffffffffffffffffffffffff1916145b8061102557506110248261193d565b5b9050919050565b5f80611037836119a6565b90505f73ffffffffffffffffffffffffffffffffffffffff168173ffffffffffffffffffffffffffffffffffffffff16036110a957826040517f7e2732890000000000000000000000000000000000000000000000000000000081526004016110a091906125c7565b60405180910390fd5b80915050919050565b5f60045f8381526020019081526020015f205f9054906101000a900473ffffffffffffffffffffffffffffffffffffffff169050919050565b5f33905090565b6110ff83838360016119df565b505050565b61110c6110eb565b73ffffffffffffffffffffffffffffffffffffffff1661112a6109c7565b73ffffffffffffffffffffffffffffffffffffffff16146111895761114d6110eb565b6040517f118cdaa70000000000000000000000000000000000000000000000000000000081526004016111809190612219565b60405180910390fd5b565b5f80611196846119a6565b90505f73ffffffffffffffffffffffffffffffffffffffff168373ffffffffffffffffffffffffffffffffffffffff16146111d7576111d6818486611b9e565b5b5f73ffffffffffffffffffffffffffffffffffffffff168173ffffffffffffffffffffffffffffffffffffffff1614611262576112165f855f806119df565b600160035f8373ffffffffffffffffffffffffffffffffffffffff1673ffffffffffffffffffffffffffffffffffffffff1681526020019081526020015f205f82825403925050819055505b5f73ffffffffffffffffffffffffffffffffffffffff168573ffffffffffffffffffffffffffffffffffffffff16146112e157600160035f8773ffffffffffffffffffffffffffffffffffffffff1673ffffffffffffffffffffffffffffffffffffffff1681526020019081526020015f205f82825401925050819055505b8460025f8681526020019081526020015f205f6101000a81548173ffffffffffffffffffffffffffffffffffffffff021916908373ffffffffffffffffffffffffffffffffffffffff160217905550838573ffffffffffffffffffffffffffffffffffffffff168273ffffffffffffffffffffffffffffffffffffffff167fddf252ad1be2c89b69c2b068fc378daa952ba7f163c4a11628f55a4df523b3ef60405160405180910390a4809150509392505050565b5f60075f9054906101000a900473ffffffffffffffffffffffffffffffffffffffff1690508160075f6101000a81548173ffffffffffffffffffffffffffffffffffffffff021916908373ffffffffffffffffffffffffffffffffffffffff1602179055508173ffffffffffffffffffffffffffffffffffffffff168173ffffffffffffffffffffffffffffffffffffffff167f8be0079c531659141344cd1fd0a4f28419497f9722a3daafe3b4186f6b6457e060405160405180910390a35050565b5f73ffffffffffffffffffffffffffffffffffffffff168273ffffffffffffffffffffffffffffffffffffffff16036114c957816040517f5b08ba180000000000000000000000000000000000000000000000000000000081526004016114c09190612219565b60405180910390fd5b8060055f8573ffffffffffffffffffffffffffffffffffffffff1673ffffffffffffffffffffffffffffffffffffffff1681526020019081526020015f205f8473ffffffffffffffffffffffffffffffffffffffff1673ffffffffffffffffffffffffffffffffffffffff1681526020019081526020015f205f6101000a81548160ff0219169083151502179055508173ffffffffffffffffffffffffffffffffffffffff168373ffffffffffffffffffffffffffffffffffffffff167f17307eab39ab6107e8899845ad3d59bd9653f200f220920489ca2b5937696c31836040516115b591906120b9565b60405180910390a3505050565b5f73ffffffffffffffffffffffffffffffffffffffff168273ffffffffffffffffffffffffffffffffffffffff1603611632575f6040517f64a0ae920000000000000000000000000000000000000000000000000000000081526004016116299190612219565b60405180910390fd5b5f61163e83835f61118b565b90505f73ffffffffffffffffffffffffffffffffffffffff168173ffffffffffffffffffffffffffffffffffffffff16146116b0575f6040517f73c6ac6e0000000000000000000000000000000000000000000000000000000081526004016116a79190612219565b60405180910390fd5b505050565b8060065f8481526020019081526020015f2090816116d39190612f59565b507ff8e1a15aba9398e019f0b49df1a4fde98ee17ae345cb5f6b5e2c27f5033e8ce78260405161170391906125c7565b60405180910390a15050565b5f8373ffffffffffffffffffffffffffffffffffffffff163b11156118bb578273ffffffffffffffffffffffffffffffffffffffff1663150b7a026117526110eb565b8685856040518563ffffffff1660e01b81526004016117749493929190613201565b6020604051808303815f875af19250505080156117af57506040513d601f19601f820116820180604052508101906117ac919061325f565b60015b611830573d805f81146117dd576040519150601f19603f3d011682016040523d82523d5f602084013e6117e2565b606091505b505f81510361182857836040517f64a0ae9200000000000000000000000000000000000000000000000000000000815260040161181f9190612219565b60405180910390fd5b805181602001fd5b63150b7a0260e01b7bffffffffffffffffffffffffffffffffffffffffffffffffffffffff1916817bffffffffffffffffffffffffffffffffffffffffffffffffffffffff1916146118b957836040517f64a0ae920000000000000000000000000000000000000000000000000000000081526004016118b09190612219565b60405180910390fd5b505b50505050565b606060405180602001604052805f815250905090565b60606118e28261102c565b505f6118ec6118c1565b90505f81511161190a5760405180602001604052805f815250611935565b8061191484611c61565b6040516020016119259291906130d6565b6040516020818303038152906040525b915050919050565b5f7f01ffc9a7000000000000000000000000000000000000000000000000000000007bffffffffffffffffffffffffffffffffffffffffffffffffffffffff1916827bffffffffffffffffffffffffffffffffffffffffffffffffffffffff1916149050919050565b5f60025f8381526020019081526020015f205f9054906101000a900473ffffffffffffffffffffffffffffffffffffffff169050919050565b8080611a1757505f73ffffffffffffffffffffffffffffffffffffffff168273ffffffffffffffffffffffffffffffffffffffff1614155b15611b49575f611a268461102c565b90505f73ffffffffffffffffffffffffffffffffffffffff168373ffffffffffffffffffffffffffffffffffffffff1614158015611a9057508273ffffffffffffffffffffffffffffffffffffffff168173ffffffffffffffffffffffffffffffffffffffff1614155b8015611aa35750611aa18184610e39565b155b15611ae557826040517fa9fbf51f000000000000000000000000000000000000000000000000000000008152600401611adc9190612219565b60405180910390fd5b8115611b4757838573ffffffffffffffffffffffffffffffffffffffff168273ffffffffffffffffffffffffffffffffffffffff167f8c5be1e5ebec7d5bd14f71427d1e84f3dd0314c0f7b2291e5b200ac8c7c3b92560405160405180910390a45b505b8360045f8581526020019081526020015f205f6101000a81548173ffffffffffffffffffffffffffffffffffffffff021916908373ffffffffffffffffffffffffffffffffffffffff16021790555050505050565b611ba9838383611d2b565b611c5c575f73ffffffffffffffffffffffffffffffffffffffff168373ffffffffffffffffffffffffffffffffffffffff1603611c1d57806040517f7e273289000000000000000000000000000000000000000000000000000000008152600401611c1491906125c7565b60405180910390fd5b81816040517f177e802f000000000000000000000000000000000000000000000000000000008152600401611c5392919061328a565b60405180910390fd5b505050565b60605f6001611c6f84611deb565b0190505f8167ffffffffffffffff811115611c8d57611c8c61233c565b5b6040519080825280601f01601f191660200182016040528015611cbf5781602001600182028036833780820191505090505b5090505f82602001820190505b600115611d20578080600190039150507f3031323334353637383961626364656600000000000000000000000000000000600a86061a8153600a8581611d1557611d146132b1565b5b0494505f8503611ccc575b819350505050919050565b5f8073ffffffffffffffffffffffffffffffffffffffff168373ffffffffffffffffffffffffffffffffffffffff1614158015611de257508273ffffffffffffffffffffffffffffffffffffffff168473ffffffffffffffffffffffffffffffffffffffff161480611da35750611da28484610e39565b5b80611de157508273ffffffffffffffffffffffffffffffffffffffff16611dc9836110b2565b73ffffffffffffffffffffffffffffffffffffffff16145b5b90509392505050565b5f805f90507a184f03e93ff9f4daa797ed6e38ed64bf6a1f0100000000000000008310611e47577a184f03e93ff9f4daa797ed6e38ed64bf6a1f0100000000000000008381611e3d57611e3c6132b1565b5b0492506040810190505b6d04ee2d6d415b85acef81000000008310611e84576d04ee2d6d415b85acef81000000008381611e7a57611e796132b1565b5b0492506020810190505b662386f26fc100008310611eb357662386f26fc100008381611ea957611ea86132b1565b5b0492506010810190505b6305f5e1008310611edc576305f5e1008381611ed257611ed16132b1565b5b0492506008810190505b6127108310611f01576127108381611ef757611ef66132b1565b5b0492506004810190505b60648310611f245760648381611f1a57611f196132b1565b5b0492506002810190505b600a8310611f33576001810190505b80915050919050565b828054828255905f5260205f20908101928215611f82579160200282015b82811115611f81578251829081611f719190612f59565b5091602001919060010190611f5a565b5b509050611f8f9190611f93565b5090565b5b80821115611fb2575f8181611fa99190611fb6565b50600101611f94565b5090565b508054611fc290612aa4565b5f825580601f10611fd35750611ff0565b601f0160209004905f5260205f2090810190611fef9190611ff3565b5b50565b5b8082111561200a575f815f905550600101611ff4565b5090565b5f604051905090565b5f80fd5b5f80fd5b5f7fffffffff0000000000000000000000000000000000000000000000000000000082169050919050565b6120538161201f565b811461205d575f80fd5b50565b5f8135905061206e8161204a565b92915050565b5f6020828403121561208957612088612017565b5b5f61209684828501612060565b91505092915050565b5f8115159050919050565b6120b38161209f565b82525050565b5f6020820190506120cc5f8301846120aa565b92915050565b5f81519050919050565b5f82825260208201905092915050565b5f5b838110156121095780820151818401526020810190506120ee565b5f8484015250505050565b5f601f19601f8301169050919050565b5f61212e826120d2565b61213881856120dc565b93506121488185602086016120ec565b61215181612114565b840191505092915050565b5f6020820190508181035f8301526121748184612124565b905092915050565b5f819050919050565b61218e8161217c565b8114612198575f80fd5b50565b5f813590506121a981612185565b92915050565b5f602082840312156121c4576121c3612017565b5b5f6121d18482850161219b565b91505092915050565b5f73ffffffffffffffffffffffffffffffffffffffff82169050919050565b5f612203826121da565b9050919050565b612213816121f9565b82525050565b5f60208201905061222c5f83018461220a565b92915050565b61223b816121f9565b8114612245575f80fd5b50565b5f8135905061225681612232565b92915050565b5f806040838503121561227257612271612017565b5b5f61227f85828601612248565b92505060206122908582860161219b565b9150509250929050565b5f805f606084860312156122b1576122b0612017565b5b5f6122be86828701612248565b93505060206122cf86828701612248565b92505060406122e08682870161219b565b9150509250925092565b600581106122f6575f80fd5b50565b5f81359050612307816122ea565b92915050565b5f6020828403121561232257612321612017565b5b5f61232f848285016122f9565b91505092915050565b5f80fd5b7f4e487b71000000000000000000000000000000000000000000000000000000005f52604160045260245ffd5b61237282612114565b810181811067ffffffffffffffff821117156123915761239061233c565b5b80604052505050565b5f6123a361200e565b90506123af8282612369565b919050565b5f67ffffffffffffffff8211156123ce576123cd61233c565b5b602082029050602081019050919050565b5f80fd5b5f80fd5b5f67ffffffffffffffff8211156124015761240061233c565b5b61240a82612114565b9050602081019050919050565b828183375f83830152505050565b5f612437612432846123e7565b61239a565b905082815260208101848484011115612453576124526123e3565b5b61245e848285612417565b509392505050565b5f82601f83011261247a57612479612338565b5b813561248a848260208601612425565b91505092915050565b5f6124a56124a0846123b4565b61239a565b905080838252602082019050602084028301858111156124c8576124c76123df565b5b835b8181101561250f57803567ffffffffffffffff8111156124ed576124ec612338565b5b8086016124fa8982612466565b855260208501945050506020810190506124ca565b5050509392505050565b5f82601f83011261252d5761252c612338565b5b813561253d848260208601612493565b91505092915050565b5f6020828403121561255b5761255a612017565b5b5f82013567ffffffffffffffff8111156125785761257761201b565b5b61258484828501612519565b91505092915050565b5f602082840312156125a2576125a1612017565b5b5f6125af84828501612248565b91505092915050565b6125c18161217c565b82525050565b5f6020820190506125da5f8301846125b8565b92915050565b5f81519050919050565b5f82825260208201905092915050565b5f819050602082019050919050565b5f82825260208201905092915050565b5f612623826120d2565b61262d8185612609565b935061263d8185602086016120ec565b61264681612114565b840191505092915050565b5f61265c8383612619565b905092915050565b5f602082019050919050565b5f61267a826125e0565b61268481856125ea565b935083602082028501612696856125fa565b805f5b858110156126d157848403895281516126b28582612651565b94506126bd83612664565b925060208a01995050600181019050612699565b50829750879550505050505092915050565b5f6020820190508181035f8301526126fb8184612670565b905092915050565b61270c8161209f565b8114612716575f80fd5b50565b5f8135905061272781612703565b92915050565b5f806040838503121561274357612742612017565b5b5f61275085828601612248565b925050602061276185828601612719565b9150509250929050565b5f805f805f8060c0878903121561278557612784612017565b5b5f61279289828a01612248565b965050602087013567ffffffffffffffff8111156127b3576127b261201b565b5b6127bf89828a01612466565b955050604087013567ffffffffffffffff8111156127e0576127df61201b565b5b6127ec89828a01612466565b94505060606127fd89828a016122f9565b935050608061280e89828a0161219b565b92505060a087013567ffffffffffffffff81111561282f5761282e61201b565b5b61283b89828a01612519565b9150509295509295509295565b5f67ffffffffffffffff8211156128625761286161233c565b5b61286b82612114565b9050602081019050919050565b5f61288a61288584612848565b61239a565b9050828152602081018484840111156128a6576128a56123e3565b5b6128b1848285612417565b509392505050565b5f82601f8301126128cd576128cc612338565b5b81356128dd848260208601612878565b91505092915050565b5f805f80608085870312156128fe576128fd612017565b5b5f61290b87828801612248565b945050602061291c87828801612248565b935050604061292d8782880161219b565b925050606085013567ffffffffffffffff81111561294e5761294d61201b565b5b61295a878288016128b9565b91505092959194509250565b7f4e487b71000000000000000000000000000000000000000000000000000000005f52602160045260245ffd5b600581106129a4576129a3612966565b5b50565b5f8190506129b482612993565b919050565b5f6129c3826129a7565b9050919050565b6129d3816129b9565b82525050565b5f6020820190506129ec5f8301846129ca565b92915050565b5f60208284031215612a0757612a06612017565b5b5f82013567ffffffffffffffff811115612a2457612a2361201b565b5b612a3084828501612466565b91505092915050565b5f8060408385031215612a4f57612a4e612017565b5b5f612a5c85828601612248565b9250506020612a6d85828601612248565b9150509250929050565b7f4e487b71000000000000000000000000000000000000000000000000000000005f52602260045260245ffd5b5f6002820490506001821680612abb57607f821691505b602082108103612ace57612acd612a77565b5b50919050565b7f5669657720636f7374206d7573742062652067726561746572207468616e207a5f8201527f65726f0000000000000000000000000000000000000000000000000000000000602082015250565b5f612b2e6023836120dc565b9150612b3982612ad4565b604082019050919050565b5f6020820190508181035f830152612b5b81612b22565b9050919050565b5f604082019050612b755f8301856125b8565b612b8260208301846125b8565b9392505050565b5f606082019050612b9c5f83018661220a565b612ba960208301856125b8565b612bb6604083018461220a565b949350505050565b5f604082019050612bd15f8301856129ca565b612bde60208301846129ca565b9392505050565b5f81549050919050565b5f819050815f5260205f209050919050565b5f819050815f5260205f209050919050565b5f8154612c1f81612aa4565b612c298186612609565b9450600182165f8114612c435760018114612c5957612c8b565b60ff198316865281151560200286019350612c8b565b612c6285612c01565b5f5b83811015612c8357815481890152600182019150602081019050612c64565b808801955050505b50505092915050565b5f612c9f8383612c13565b905092915050565b5f600182019050919050565b5f612cbd82612be5565b612cc781856125ea565b935083602082028501612cd985612bef565b805f5b85811015612d1357848403895281612cf48582612c94565b9450612cff83612ca7565b925060208a01995050600181019050612cdc565b50829750879550505050505092915050565b5f6040820190508181035f830152612d3d8185612cb3565b90508181036020830152612d518184612670565b90509392505050565b7f4e487b71000000000000000000000000000000000000000000000000000000005f52601160045260245ffd5b5f612d918261217c565b91507fffffffffffffffffffffffffffffffffffffffffffffffffffffffffffffffff8203612dc357612dc2612d5a565b5b600182019050919050565b5f6020601f8301049050919050565b5f82821b905092915050565b5f60088302612e187fffffffffffffffffffffffffffffffffffffffffffffffffffffffffffffffff82612ddd565b612e228683612ddd565b95508019841693508086168417925050509392505050565b5f819050919050565b5f612e5d612e58612e538461217c565b612e3a565b61217c565b9050919050565b5f819050919050565b612e7683612e43565b612e8a612e8282612e64565b848454612de9565b825550505050565b5f90565b612e9e612e92565b612ea9818484612e6d565b505050565b5b81811015612ecc57612ec15f82612e96565b600181019050612eaf565b5050565b601f821115612f1157612ee281612c01565b612eeb84612dce565b81016020851015612efa578190505b612f0e612f0685612dce565b830182612eae565b50505b505050565b5f82821c905092915050565b5f612f315f1984600802612f16565b1980831691505092915050565b5f612f498383612f22565b9150826002028217905092915050565b612f62826120d2565b67ffffffffffffffff811115612f7b57612f7a61233c565b5b612f858254612aa4565b612f90828285612ed0565b5f60209050601f831160018114612fc1575f8415612faf578287015190505b612fb98582612f3e565b865550613020565b601f198416612fcf86612c01565b5f5b82811015612ff657848901518255600182019150602085019450602081019050612fd1565b86831015613013578489015161300f601f891682612f22565b8355505b6001600288020188555050505b505050505050565b5f60c08201905061303b5f8301896125b8565b818103602083015261304d8188612124565b905081810360408301526130618187612124565b905061307060608301866129ca565b61307d60808301856125b8565b81810360a083015261308f8184612670565b9050979650505050505050565b5f81905092915050565b5f6130b0826120d2565b6130ba818561309c565b93506130ca8185602086016120ec565b80840191505092915050565b5f6130e182856130a6565b91506130ed82846130a6565b91508190509392505050565b5f815461310581612aa4565b61310f81866120dc565b9450600182165f8114613129576001811461313f57613171565b60ff198316865281151560200286019350613171565b61314885612c01565b5f5b838110156131695781548189015260018201915060208101905061314a565b808801955050505b50505092915050565b5f6040820190508181035f83015261319281856130f9565b905081810360208301526131a68184612124565b90509392505050565b5f81519050919050565b5f82825260208201905092915050565b5f6131d3826131af565b6131dd81856131b9565b93506131ed8185602086016120ec565b6131f681612114565b840191505092915050565b5f6080820190506132145f83018761220a565b613221602083018661220a565b61322e60408301856125b8565b818103606083015261324081846131c9565b905095945050505050565b5f815190506132598161204a565b92915050565b5f6020828403121561327457613273612017565b5b5f6132818482850161324b565b91505092915050565b5f60408201905061329d5f83018561220a565b6132aa60208301846125b8565b9392505050565b7f4e487b71000000000000000000000000000000000000000000000000000000005f52601260045260245ffdfea26469706673582212207dd30c3eb02973030df999e76e25c4c9d98cd53038616b9f49b57b02e35abe5e64736f6c63430008140033",
  "immutableReferences": {},
  "source": "// contracts/JeskeiAsset.sol\n// SPDX-License-Identifier: MIT\npragma solidity ^0.8.20;\n\nimport \"@openzeppelin/contracts/token/ERC721/extensions/ERC721URIStorage.sol\";\nimport \"@openzeppelin/contracts/access/Ownable.sol\";\n\ncontract Production is ERC721URIStorage, Ownable {\n    enum FilmRatingEnum { G, PG, PG13, R, NC17 }\n\n    struct ProductionAssets {\n        bytes32 id;\n        address assetAddress; // 0x000.. for assets without an address\n        uint256 view_Wei;\n    }\n\n    uint256 private _nextTokenId;\n    string private _description;\n    FilmRatingEnum private _filmRating;\n    string[] private _tags;\n    uint256 private _view_Wei; // Must be at least the sum of all listed assets\n\n    ProductionAssets[] private assets;\n    \n    event ProductionCreated(uint256 tokenId, address indexed creator, string tokenURI, string description, FilmRatingEnum filmRating, uint256 viewWei, string[] tags);\n    event DescriptionUpdated(string oldDescription, string newDescription);\n    event FilmRatingUpdated(FilmRatingEnum oldRating, FilmRatingEnum newRating);\n    event TagsUpdated(string[] oldTags, string[] newTags);\n    event ViewWeiUpdated(uint256 oldViewWei, uint256 newViewWei);\n\n    constructor(string memory name_, string memory symbol_) ERC721(name_, symbol_) Ownable(msg.sender) {\n        transferOwnership(msg.sender);\n    }\n\n    function createProduction(\n        address productionCreator_,\n        string memory tokenURI_,\n        string memory description_,\n        FilmRatingEnum filmRating_,\n        uint256 viewWei_,\n        string[] memory tags_\n    ) public onlyOwner returns (uint256) {\n        require(viewWei_ > 0, \"View cost must be greater than zero\");\n\n        uint256 tokenId = _nextTokenId++;\n        _mint(productionCreator_, tokenId);\n        _setTokenURI(tokenId, tokenURI_);\n        _description = description_;\n        _filmRating = filmRating_;\n        _tags = tags_;\n        _view_Wei = viewWei_;\n        \n        emit ProductionCreated(tokenId, productionCreator_, tokenURI_, description_, filmRating_, viewWei_, tags_);\n\n        return tokenId;\n    }\n\n    // Getter functions to make the properties publicly viewable\n    function getDescription() public view returns (string memory) {\n        return _description;\n    }\n\n    function getFilmRating() public view returns (FilmRatingEnum) {\n        return _filmRating;\n    }\n\n    function getTags() public view returns (string[] memory) {\n        return _tags;\n    }\n\n    function getViewWei() public view returns (uint256) {\n        return _view_Wei;\n    }\n\n    // Owner-only functions to update the properties\n    function updateDescription(string memory newDescription) public onlyOwner {\n        emit DescriptionUpdated(_description, newDescription);\n        _description = newDescription;\n    }\n\n    function updateFilmRating(FilmRatingEnum newFilmRating) public onlyOwner {\n        emit FilmRatingUpdated(_filmRating, newFilmRating);\n        _filmRating = newFilmRating;\n    }\n\n    function updateTags(string[] memory newTags) public onlyOwner {\n        emit TagsUpdated(_tags, newTags);\n        _tags = newTags;\n    }\n\n    function updateViewWei(uint256 newViewWei) public onlyOwner {\n        require(newViewWei > 0, \"View cost must be greater than zero\");\n        emit ViewWeiUpdated(_view_Wei, newViewWei);\n        _view_Wei = newViewWei;\n    }\n\n    // Additional functions to manage ProductionAssets can be added here\n}\n",
  "sourcePath": "/home/eagle/Source/Jeskei/Jeskei-Solidity/contracts/JeskeiProduction.sol",
  "compiler": {
    "name": "solc",
    "version": "0.8.20+commit.a1b79de6.Emscripten.clang"
  },
  "schemaVersion": "3.4.16",
  "updatedAt": "2024-08-02T15:03:25.667Z",
  "devdoc": {
    "errors": {
      "ERC721IncorrectOwner(address,uint256,address)": [
        {
          "details": "Indicates an error related to the ownership over a particular token. Used in transfers.",
          "params": {
            "owner": "Address of the current owner of a token.",
            "sender": "Address whose tokens are being transferred.",
            "tokenId": "Identifier number of a token."
          }
        }
      ],
      "ERC721InsufficientApproval(address,uint256)": [
        {
          "details": "Indicates a failure with the `operator`s approval. Used in transfers.",
          "params": {
            "operator": "Address that may be allowed to operate on tokens without being their owner.",
            "tokenId": "Identifier number of a token."
          }
        }
      ],
      "ERC721InvalidApprover(address)": [
        {
          "details": "Indicates a failure with the `approver` of a token to be approved. Used in approvals.",
          "params": {
            "approver": "Address initiating an approval operation."
          }
        }
      ],
      "ERC721InvalidOperator(address)": [
        {
          "details": "Indicates a failure with the `operator` to be approved. Used in approvals.",
          "params": {
            "operator": "Address that may be allowed to operate on tokens without being their owner."
          }
        }
      ],
      "ERC721InvalidOwner(address)": [
        {
          "details": "Indicates that an address can't be an owner. For example, `address(0)` is a forbidden owner in EIP-20. Used in balance queries.",
          "params": {
            "owner": "Address of the current owner of a token."
          }
        }
      ],
      "ERC721InvalidReceiver(address)": [
        {
          "details": "Indicates a failure with the token `receiver`. Used in transfers.",
          "params": {
            "receiver": "Address to which tokens are being transferred."
          }
        }
      ],
      "ERC721InvalidSender(address)": [
        {
          "details": "Indicates a failure with the token `sender`. Used in transfers.",
          "params": {
            "sender": "Address whose tokens are being transferred."
          }
        }
      ],
      "ERC721NonexistentToken(uint256)": [
        {
          "details": "Indicates a `tokenId` whose `owner` is the zero address.",
          "params": {
            "tokenId": "Identifier number of a token."
          }
        }
      ],
      "OwnableInvalidOwner(address)": [
        {
          "details": "The owner is not a valid owner account. (eg. `address(0)`)"
        }
      ],
      "OwnableUnauthorizedAccount(address)": [
        {
          "details": "The caller account is not authorized to perform an operation."
        }
      ]
    },
    "events": {
      "Approval(address,address,uint256)": {
        "details": "Emitted when `owner` enables `approved` to manage the `tokenId` token."
      },
      "ApprovalForAll(address,address,bool)": {
        "details": "Emitted when `owner` enables or disables (`approved`) `operator` to manage all of its assets."
      },
      "BatchMetadataUpdate(uint256,uint256)": {
        "details": "This event emits when the metadata of a range of tokens is changed. So that the third-party platforms such as NFT market could timely update the images and related attributes of the NFTs."
      },
      "MetadataUpdate(uint256)": {
        "details": "This event emits when the metadata of a token is changed. So that the third-party platforms such as NFT market could timely update the images and related attributes of the NFT."
      },
      "Transfer(address,address,uint256)": {
        "details": "Emitted when `tokenId` token is transferred from `from` to `to`."
      }
    },
    "kind": "dev",
    "methods": {
      "approve(address,uint256)": {
        "details": "See {IERC721-approve}."
      },
      "balanceOf(address)": {
        "details": "See {IERC721-balanceOf}."
      },
      "getApproved(uint256)": {
        "details": "See {IERC721-getApproved}."
      },
      "isApprovedForAll(address,address)": {
        "details": "See {IERC721-isApprovedForAll}."
      },
      "name()": {
        "details": "See {IERC721Metadata-name}."
      },
      "owner()": {
        "details": "Returns the address of the current owner."
      },
      "ownerOf(uint256)": {
        "details": "See {IERC721-ownerOf}."
      },
      "renounceOwnership()": {
        "details": "Leaves the contract without owner. It will not be possible to call `onlyOwner` functions. Can only be called by the current owner. NOTE: Renouncing ownership will leave the contract without an owner, thereby disabling any functionality that is only available to the owner."
      },
      "safeTransferFrom(address,address,uint256)": {
        "details": "See {IERC721-safeTransferFrom}."
      },
      "safeTransferFrom(address,address,uint256,bytes)": {
        "details": "See {IERC721-safeTransferFrom}."
      },
      "setApprovalForAll(address,bool)": {
        "details": "See {IERC721-setApprovalForAll}."
      },
      "supportsInterface(bytes4)": {
        "details": "See {IERC165-supportsInterface}"
      },
      "symbol()": {
        "details": "See {IERC721Metadata-symbol}."
      },
      "tokenURI(uint256)": {
        "details": "See {IERC721Metadata-tokenURI}."
      },
      "transferFrom(address,address,uint256)": {
        "details": "See {IERC721-transferFrom}."
      },
      "transferOwnership(address)": {
        "details": "Transfers ownership of the contract to a new account (`newOwner`). Can only be called by the current owner."
      }
    },
    "version": 1
  },
  "userdoc": {
    "kind": "user",
    "methods": {},
    "version": 1
  }
}