{
  "contractName": "Production",
  "abi": [
    {
      "inputs": [
        {
          "internalType": "string",
          "name": "name_",
          "type": "string"
        },
        {
          "internalType": "string",
          "name": "symbol_",
          "type": "string"
        }
      ],
      "stateMutability": "nonpayable",
      "type": "constructor"
    },
    {
      "inputs": [
        {
          "internalType": "address",
          "name": "sender",
          "type": "address"
        },
        {
          "internalType": "uint256",
          "name": "tokenId",
          "type": "uint256"
        },
        {
          "internalType": "address",
          "name": "owner",
          "type": "address"
        }
      ],
      "name": "ERC721IncorrectOwner",
      "type": "error"
    },
    {
      "inputs": [
        {
          "internalType": "address",
          "name": "operator",
          "type": "address"
        },
        {
          "internalType": "uint256",
          "name": "tokenId",
          "type": "uint256"
        }
      ],
      "name": "ERC721InsufficientApproval",
      "type": "error"
    },
    {
      "inputs": [
        {
          "internalType": "address",
          "name": "approver",
          "type": "address"
        }
      ],
      "name": "ERC721InvalidApprover",
      "type": "error"
    },
    {
      "inputs": [
        {
          "internalType": "address",
          "name": "operator",
          "type": "address"
        }
      ],
      "name": "ERC721InvalidOperator",
      "type": "error"
    },
    {
      "inputs": [
        {
          "internalType": "address",
          "name": "owner",
          "type": "address"
        }
      ],
      "name": "ERC721InvalidOwner",
      "type": "error"
    },
    {
      "inputs": [
        {
          "internalType": "address",
          "name": "receiver",
          "type": "address"
        }
      ],
      "name": "ERC721InvalidReceiver",
      "type": "error"
    },
    {
      "inputs": [
        {
          "internalType": "address",
          "name": "sender",
          "type": "address"
        }
      ],
      "name": "ERC721InvalidSender",
      "type": "error"
    },
    {
      "inputs": [
        {
          "internalType": "uint256",
          "name": "tokenId",
          "type": "uint256"
        }
      ],
      "name": "ERC721NonexistentToken",
      "type": "error"
    },
    {
      "inputs": [
        {
          "internalType": "address",
          "name": "owner",
          "type": "address"
        }
      ],
      "name": "OwnableInvalidOwner",
      "type": "error"
    },
    {
      "inputs": [
        {
          "internalType": "address",
          "name": "account",
          "type": "address"
        }
      ],
      "name": "OwnableUnauthorizedAccount",
      "type": "error"
    },
    {
      "anonymous": false,
      "inputs": [
        {
          "indexed": true,
          "internalType": "address",
          "name": "owner",
          "type": "address"
        },
        {
          "indexed": true,
          "internalType": "address",
          "name": "approved",
          "type": "address"
        },
        {
          "indexed": true,
          "internalType": "uint256",
          "name": "tokenId",
          "type": "uint256"
        }
      ],
      "name": "Approval",
      "type": "event"
    },
    {
      "anonymous": false,
      "inputs": [
        {
          "indexed": true,
          "internalType": "address",
          "name": "owner",
          "type": "address"
        },
        {
          "indexed": true,
          "internalType": "address",
          "name": "operator",
          "type": "address"
        },
        {
          "indexed": false,
          "internalType": "bool",
          "name": "approved",
          "type": "bool"
        }
      ],
      "name": "ApprovalForAll",
      "type": "event"
    },
    {
      "anonymous": false,
      "inputs": [
        {
          "indexed": false,
          "internalType": "uint256",
          "name": "_fromTokenId",
          "type": "uint256"
        },
        {
          "indexed": false,
          "internalType": "uint256",
          "name": "_toTokenId",
          "type": "uint256"
        }
      ],
      "name": "BatchMetadataUpdate",
      "type": "event"
    },
    {
      "anonymous": false,
      "inputs": [
        {
          "indexed": false,
          "internalType": "string",
          "name": "oldDescription",
          "type": "string"
        },
        {
          "indexed": false,
          "internalType": "string",
          "name": "newDescription",
          "type": "string"
        }
      ],
      "name": "DescriptionUpdated",
      "type": "event"
    },
    {
      "anonymous": false,
      "inputs": [
        {
          "indexed": false,
          "internalType": "enum Production.FilmRatingEnum",
          "name": "oldRating",
          "type": "uint8"
        },
        {
          "indexed": false,
          "internalType": "enum Production.FilmRatingEnum",
          "name": "newRating",
          "type": "uint8"
        }
      ],
      "name": "FilmRatingUpdated",
      "type": "event"
    },
    {
      "anonymous": false,
      "inputs": [
        {
          "indexed": false,
          "internalType": "uint256",
          "name": "_tokenId",
          "type": "uint256"
        }
      ],
      "name": "MetadataUpdate",
      "type": "event"
    },
    {
      "anonymous": false,
      "inputs": [
        {
          "indexed": true,
          "internalType": "address",
          "name": "previousOwner",
          "type": "address"
        },
        {
          "indexed": true,
          "internalType": "address",
          "name": "newOwner",
          "type": "address"
        }
      ],
      "name": "OwnershipTransferred",
      "type": "event"
    },
    {
      "anonymous": false,
      "inputs": [
        {
          "indexed": false,
          "internalType": "uint256",
          "name": "tokenId",
          "type": "uint256"
        },
        {
          "indexed": true,
          "internalType": "address",
          "name": "creator",
          "type": "address"
        },
        {
          "indexed": false,
          "internalType": "string",
          "name": "tokenURI",
          "type": "string"
        },
        {
          "indexed": false,
          "internalType": "string",
          "name": "description",
          "type": "string"
        },
        {
          "indexed": false,
          "internalType": "enum Production.FilmRatingEnum",
          "name": "filmRating",
          "type": "uint8"
        },
        {
          "indexed": false,
          "internalType": "uint256",
          "name": "viewWei",
          "type": "uint256"
        },
        {
          "indexed": false,
          "internalType": "string[]",
          "name": "tags",
          "type": "string[]"
        }
      ],
      "name": "ProductionCreated",
      "type": "event"
    },
    {
      "anonymous": false,
      "inputs": [
        {
          "indexed": false,
          "internalType": "string[]",
          "name": "tagsAdded",
          "type": "string[]"
        }
      ],
      "name": "TagsAdded",
      "type": "event"
    },
    {
      "anonymous": false,
      "inputs": [
        {
          "indexed": false,
          "internalType": "string[]",
          "name": "oldTags",
          "type": "string[]"
        },
        {
          "indexed": false,
          "internalType": "string[]",
          "name": "newTags",
          "type": "string[]"
        }
      ],
      "name": "TagsUpdated",
      "type": "event"
    },
    {
      "anonymous": false,
      "inputs": [
        {
          "indexed": true,
          "internalType": "address",
          "name": "from",
          "type": "address"
        },
        {
          "indexed": true,
          "internalType": "address",
          "name": "to",
          "type": "address"
        },
        {
          "indexed": true,
          "internalType": "uint256",
          "name": "tokenId",
          "type": "uint256"
        }
      ],
      "name": "Transfer",
      "type": "event"
    },
    {
      "anonymous": false,
      "inputs": [
        {
          "indexed": false,
          "internalType": "uint256",
          "name": "oldViewWei",
          "type": "uint256"
        },
        {
          "indexed": false,
          "internalType": "uint256",
          "name": "newViewWei",
          "type": "uint256"
        }
      ],
      "name": "ViewWeiUpdated",
      "type": "event"
    },
    {
      "inputs": [
        {
          "internalType": "address",
          "name": "to",
          "type": "address"
        },
        {
          "internalType": "uint256",
          "name": "tokenId",
          "type": "uint256"
        }
      ],
      "name": "approve",
      "outputs": [],
      "stateMutability": "nonpayable",
      "type": "function"
    },
    {
      "inputs": [
        {
          "internalType": "address",
          "name": "owner",
          "type": "address"
        }
      ],
      "name": "balanceOf",
      "outputs": [
        {
          "internalType": "uint256",
          "name": "",
          "type": "uint256"
        }
      ],
      "stateMutability": "view",
      "type": "function"
    },
    {
      "inputs": [
        {
          "internalType": "uint256",
          "name": "tokenId",
          "type": "uint256"
        }
      ],
      "name": "getApproved",
      "outputs": [
        {
          "internalType": "address",
          "name": "",
          "type": "address"
        }
      ],
      "stateMutability": "view",
      "type": "function"
    },
    {
      "inputs": [
        {
          "internalType": "address",
          "name": "owner",
          "type": "address"
        },
        {
          "internalType": "address",
          "name": "operator",
          "type": "address"
        }
      ],
      "name": "isApprovedForAll",
      "outputs": [
        {
          "internalType": "bool",
          "name": "",
          "type": "bool"
        }
      ],
      "stateMutability": "view",
      "type": "function"
    },
    {
      "inputs": [],
      "name": "name",
      "outputs": [
        {
          "internalType": "string",
          "name": "",
          "type": "string"
        }
      ],
      "stateMutability": "view",
      "type": "function"
    },
    {
      "inputs": [],
      "name": "owner",
      "outputs": [
        {
          "internalType": "address",
          "name": "",
          "type": "address"
        }
      ],
      "stateMutability": "view",
      "type": "function"
    },
    {
      "inputs": [
        {
          "internalType": "uint256",
          "name": "tokenId",
          "type": "uint256"
        }
      ],
      "name": "ownerOf",
      "outputs": [
        {
          "internalType": "address",
          "name": "",
          "type": "address"
        }
      ],
      "stateMutability": "view",
      "type": "function"
    },
    {
      "inputs": [],
      "name": "renounceOwnership",
      "outputs": [],
      "stateMutability": "nonpayable",
      "type": "function"
    },
    {
      "inputs": [
        {
          "internalType": "address",
          "name": "from",
          "type": "address"
        },
        {
          "internalType": "address",
          "name": "to",
          "type": "address"
        },
        {
          "internalType": "uint256",
          "name": "tokenId",
          "type": "uint256"
        }
      ],
      "name": "safeTransferFrom",
      "outputs": [],
      "stateMutability": "nonpayable",
      "type": "function"
    },
    {
      "inputs": [
        {
          "internalType": "address",
          "name": "from",
          "type": "address"
        },
        {
          "internalType": "address",
          "name": "to",
          "type": "address"
        },
        {
          "internalType": "uint256",
          "name": "tokenId",
          "type": "uint256"
        },
        {
          "internalType": "bytes",
          "name": "data",
          "type": "bytes"
        }
      ],
      "name": "safeTransferFrom",
      "outputs": [],
      "stateMutability": "nonpayable",
      "type": "function"
    },
    {
      "inputs": [
        {
          "internalType": "address",
          "name": "operator",
          "type": "address"
        },
        {
          "internalType": "bool",
          "name": "approved",
          "type": "bool"
        }
      ],
      "name": "setApprovalForAll",
      "outputs": [],
      "stateMutability": "nonpayable",
      "type": "function"
    },
    {
      "inputs": [
        {
          "internalType": "bytes4",
          "name": "interfaceId",
          "type": "bytes4"
        }
      ],
      "name": "supportsInterface",
      "outputs": [
        {
          "internalType": "bool",
          "name": "",
          "type": "bool"
        }
      ],
      "stateMutability": "view",
      "type": "function"
    },
    {
      "inputs": [],
      "name": "symbol",
      "outputs": [
        {
          "internalType": "string",
          "name": "",
          "type": "string"
        }
      ],
      "stateMutability": "view",
      "type": "function"
    },
    {
      "inputs": [
        {
          "internalType": "uint256",
          "name": "tokenId",
          "type": "uint256"
        }
      ],
      "name": "tokenURI",
      "outputs": [
        {
          "internalType": "string",
          "name": "",
          "type": "string"
        }
      ],
      "stateMutability": "view",
      "type": "function"
    },
    {
      "inputs": [
        {
          "internalType": "address",
          "name": "from",
          "type": "address"
        },
        {
          "internalType": "address",
          "name": "to",
          "type": "address"
        },
        {
          "internalType": "uint256",
          "name": "tokenId",
          "type": "uint256"
        }
      ],
      "name": "transferFrom",
      "outputs": [],
      "stateMutability": "nonpayable",
      "type": "function"
    },
    {
      "inputs": [
        {
          "internalType": "address",
          "name": "newOwner",
          "type": "address"
        }
      ],
      "name": "transferOwnership",
      "outputs": [],
      "stateMutability": "nonpayable",
      "type": "function"
    },
    {
      "inputs": [
        {
          "internalType": "address",
          "name": "productionCreator_",
          "type": "address"
        },
        {
          "internalType": "string",
          "name": "tokenURI_",
          "type": "string"
        },
        {
          "internalType": "string",
          "name": "description_",
          "type": "string"
        },
        {
          "internalType": "enum Production.FilmRatingEnum",
          "name": "filmRating_",
          "type": "uint8"
        },
        {
          "internalType": "uint256",
          "name": "viewWei_",
          "type": "uint256"
        },
        {
          "internalType": "string[]",
          "name": "tags_",
          "type": "string[]"
        }
      ],
      "name": "createProduction",
      "outputs": [
        {
          "internalType": "uint256",
          "name": "",
          "type": "uint256"
        }
      ],
      "stateMutability": "nonpayable",
      "type": "function"
    },
    {
      "inputs": [],
      "name": "getDescription",
      "outputs": [
        {
          "internalType": "string",
          "name": "",
          "type": "string"
        }
      ],
      "stateMutability": "view",
      "type": "function"
    },
    {
      "inputs": [],
      "name": "getFilmRating",
      "outputs": [
        {
          "internalType": "enum Production.FilmRatingEnum",
          "name": "",
          "type": "uint8"
        }
      ],
      "stateMutability": "view",
      "type": "function"
    },
    {
      "inputs": [],
      "name": "getTags",
      "outputs": [
        {
          "internalType": "string[]",
          "name": "",
          "type": "string[]"
        }
      ],
      "stateMutability": "view",
      "type": "function"
    },
    {
      "inputs": [],
      "name": "getViewWei",
      "outputs": [
        {
          "internalType": "uint256",
          "name": "",
          "type": "uint256"
        }
      ],
      "stateMutability": "view",
      "type": "function"
    },
    {
      "inputs": [
        {
          "internalType": "string",
          "name": "newDescription",
          "type": "string"
        }
      ],
      "name": "updateDescription",
      "outputs": [],
      "stateMutability": "nonpayable",
      "type": "function"
    },
    {
      "inputs": [
        {
          "internalType": "enum Production.FilmRatingEnum",
          "name": "newFilmRating",
          "type": "uint8"
        }
      ],
      "name": "updateFilmRating",
      "outputs": [],
      "stateMutability": "nonpayable",
      "type": "function"
    },
    {
      "inputs": [
        {
          "internalType": "string[]",
          "name": "newTags",
          "type": "string[]"
        }
      ],
      "name": "updateTags",
      "outputs": [],
      "stateMutability": "nonpayable",
      "type": "function"
    },
    {
      "inputs": [
        {
          "internalType": "string[]",
          "name": "newTags",
          "type": "string[]"
        }
      ],
      "name": "addTags",
      "outputs": [],
      "stateMutability": "nonpayable",
      "type": "function"
    },
    {
      "inputs": [
        {
          "internalType": "uint256",
          "name": "newViewWei",
          "type": "uint256"
        }
      ],
      "name": "updateViewWei",
      "outputs": [],
      "stateMutability": "nonpayable",
      "type": "function"
    },
    {
      "inputs": [
        {
          "internalType": "uint256",
          "name": "tokenId",
          "type": "uint256"
        }
      ],
      "name": "viewProduction",
      "outputs": [
        {
          "internalType": "string",
          "name": "",
          "type": "string"
        }
      ],
      "stateMutability": "payable",
      "type": "function"
    }
  ],
  "bytecode": "0x608060405234801562000010575f80fd5b5060405162004327380380620043278339818101604052810190620000369190620004ac565b338282815f908162000049919062000766565b5080600190816200005b919062000766565b5050505f73ffffffffffffffffffffffffffffffffffffffff168173ffffffffffffffffffffffffffffffffffffffff1603620000d1575f6040517f1e4fbdf7000000000000000000000000000000000000000000000000000000008152600401620000c891906200088d565b60405180910390fd5b620000e281620000fc60201b60201c565b50620000f433620001bf60201b60201c565b5050620008a8565b5f60075f9054906101000a900473ffffffffffffffffffffffffffffffffffffffff1690508160075f6101000a81548173ffffffffffffffffffffffffffffffffffffffff021916908373ffffffffffffffffffffffffffffffffffffffff1602179055508173ffffffffffffffffffffffffffffffffffffffff168173ffffffffffffffffffffffffffffffffffffffff167f8be0079c531659141344cd1fd0a4f28419497f9722a3daafe3b4186f6b6457e060405160405180910390a35050565b620001cf6200025660201b60201c565b5f73ffffffffffffffffffffffffffffffffffffffff168173ffffffffffffffffffffffffffffffffffffffff160362000242575f6040517f1e4fbdf70000000000000000000000000000000000000000000000000000000081526004016200023991906200088d565b60405180910390fd5b6200025381620000fc60201b60201c565b50565b62000266620002f860201b60201c565b73ffffffffffffffffffffffffffffffffffffffff166200028c620002ff60201b60201c565b73ffffffffffffffffffffffffffffffffffffffff1614620002f657620002b8620002f860201b60201c565b6040517f118cdaa7000000000000000000000000000000000000000000000000000000008152600401620002ed91906200088d565b60405180910390fd5b565b5f33905090565b5f60075f9054906101000a900473ffffffffffffffffffffffffffffffffffffffff16905090565b5f604051905090565b5f80fd5b5f80fd5b5f80fd5b5f80fd5b5f601f19601f8301169050919050565b7f4e487b71000000000000000000000000000000000000000000000000000000005f52604160045260245ffd5b620003888262000340565b810181811067ffffffffffffffff82111715620003aa57620003a962000350565b5b80604052505050565b5f620003be62000327565b9050620003cc82826200037d565b919050565b5f67ffffffffffffffff821115620003ee57620003ed62000350565b5b620003f98262000340565b9050602081019050919050565b5f5b838110156200042557808201518184015260208101905062000408565b5f8484015250505050565b5f620004466200044084620003d1565b620003b3565b9050828152602081018484840111156200046557620004646200033c565b5b6200047284828562000406565b509392505050565b5f82601f83011262000491576200049062000338565b5b8151620004a384826020860162000430565b91505092915050565b5f8060408385031215620004c557620004c462000330565b5b5f83015167ffffffffffffffff811115620004e557620004e462000334565b5b620004f3858286016200047a565b925050602083015167ffffffffffffffff81111562000517576200051662000334565b5b62000525858286016200047a565b9150509250929050565b5f81519050919050565b7f4e487b71000000000000000000000000000000000000000000000000000000005f52602260045260245ffd5b5f60028204905060018216806200057e57607f821691505b60208210810362000594576200059362000539565b5b50919050565b5f819050815f5260205f209050919050565b5f6020601f8301049050919050565b5f82821b905092915050565b5f60088302620005f87fffffffffffffffffffffffffffffffffffffffffffffffffffffffffffffffff82620005bb565b620006048683620005bb565b95508019841693508086168417925050509392505050565b5f819050919050565b5f819050919050565b5f6200064e6200064862000642846200061c565b62000625565b6200061c565b9050919050565b5f819050919050565b62000669836200062e565b62000681620006788262000655565b848454620005c7565b825550505050565b5f90565b6200069762000689565b620006a48184846200065e565b505050565b5b81811015620006cb57620006bf5f826200068d565b600181019050620006aa565b5050565b601f8211156200071a57620006e4816200059a565b620006ef84620005ac565b81016020851015620006ff578190505b620007176200070e85620005ac565b830182620006a9565b50505b505050565b5f82821c905092915050565b5f6200073c5f19846008026200071f565b1980831691505092915050565b5f6200075683836200072b565b9150826002028217905092915050565b62000771826200052f565b67ffffffffffffffff8111156200078d576200078c62000350565b5b62000799825462000566565b620007a6828285620006cf565b5f60209050601f831160018114620007dc575f8415620007c7578287015190505b620007d3858262000749565b86555062000842565b601f198416620007ec866200059a565b5f5b828110156200081557848901518255600182019150602085019450602081019050620007ee565b8683101562000835578489015162000831601f8916826200072b565b8355505b6001600288020188555050505b505050505050565b5f73ffffffffffffffffffffffffffffffffffffffff82169050919050565b5f62000875826200084a565b9050919050565b620008878162000869565b82525050565b5f602082019050620008a25f8301846200087c565b92915050565b613a7180620008b65f395ff3fe60806040526004361061019b575f3560e01c8063715018a6116100eb578063a6f4059511610089578063d7d2ae7a11610063578063d7d2ae7a146105b1578063e735b48a146105db578063e985e9c514610603578063f2fde38b1461063f5761019b565b8063a6f4059514610523578063b88d4fde1461054d578063c87b56dd146105755761019b565b806395d89b41116100c557806395d89b411461046b578063995d9ab714610495578063a22cb465146104bf578063a55e7f75146104e75761019b565b8063715018a6146104035780637ef524cc146104195780638da5cb5b146104415761019b565b806323b872dd116101585780634e08ad04116101325780634e08ad04146103335780634e4ce2351461035b5780636352211e1461038b57806370a08231146103c75761019b565b806323b872dd146102bb5780633fe7c452146102e357806342842e0e1461030b5761019b565b806301ffc9a71461019f57806306fdde03146101db578063081812fc14610205578063095ea7b3146102415780631a092541146102695780631ae750be14610293575b5f80fd5b3480156101aa575f80fd5b506101c560048036038101906101c09190612564565b610667565b6040516101d291906125a9565b60405180910390f35b3480156101e6575f80fd5b506101ef6106c7565b6040516101fc919061264c565b60405180910390f35b348015610210575f80fd5b5061022b6004803603810190610226919061269f565b610756565b6040516102389190612709565b60405180910390f35b34801561024c575f80fd5b506102676004803603810190610262919061274c565b610771565b005b348015610274575f80fd5b5061027d610787565b60405161028a919061264c565b60405180910390f35b34801561029e575f80fd5b506102b960048036038101906102b4919061269f565b610817565b005b3480156102c6575f80fd5b506102e160048036038101906102dc919061278a565b6109c2565b005b3480156102ee575f80fd5b50610309600480360381019061030491906127fd565b610ac1565b005b348015610316575f80fd5b50610331600480360381019061032c919061278a565b610b3c565b005b34801561033e575f80fd5b5061035960048036038101906103549190612a36565b610b5b565b005b6103756004803603810190610370919061269f565b610bb7565b604051610382919061264c565b60405180910390f35b348015610396575f80fd5b506103b160048036038101906103ac919061269f565b610bd7565b6040516103be9190612709565b60405180910390f35b3480156103d2575f80fd5b506103ed60048036038101906103e89190612a7d565b610be8565b6040516103fa9190612ab7565b60405180910390f35b34801561040e575f80fd5b50610417610c9e565b005b348015610424575f80fd5b5061043f600480360381019061043a9190612a36565b610cb1565b005b34801561044c575f80fd5b50610455610d5e565b6040516104629190612709565b60405180910390f35b348015610476575f80fd5b5061047f610d86565b60405161048c919061264c565b60405180910390f35b3480156104a0575f80fd5b506104a9610e16565b6040516104b69190612bd3565b60405180910390f35b3480156104ca575f80fd5b506104e560048036038101906104e09190612c1d565b610eea565b005b3480156104f2575f80fd5b5061050d60048036038101906105089190612c5b565b610f00565b60405161051a9190612ab7565b60405180910390f35b34801561052e575f80fd5b50610537611035565b6040516105449190612ab7565b60405180910390f35b348015610558575f80fd5b50610573600480360381019061056e9190612dd6565b61103e565b005b348015610580575f80fd5b5061059b6004803603810190610596919061269f565b61105b565b6040516105a8919061264c565b60405180910390f35b3480156105bc575f80fd5b506105c5611166565b6040516105d29190612ec9565b60405180910390f35b3480156105e6575f80fd5b5061060160048036038101906105fc9190612ee2565b61117b565b005b34801561060e575f80fd5b5061062960048036038101906106249190612f29565b6111d0565b60405161063691906125a9565b60405180910390f35b34801561064a575f80fd5b5061066560048036038101906106609190612a7d565b61125e565b005b5f634906490660e01b7bffffffffffffffffffffffffffffffffffffffffffffffffffffffff1916827bffffffffffffffffffffffffffffffffffffffffffffffffffffffff191614806106c057506106bf826112e2565b5b9050919050565b60605f80546106d590612f94565b80601f016020809104026020016040519081016040528092919081815260200182805461070190612f94565b801561074c5780601f106107235761010080835404028352916020019161074c565b820191905f5260205f20905b81548152906001019060200180831161072f57829003601f168201915b5050505050905090565b5f610760826113c3565b5061076a82611449565b9050919050565b610783828261077e611482565b611489565b5050565b60606009805461079690612f94565b80601f01602080910402602001604051908101604052809291908181526020018280546107c290612f94565b801561080d5780601f106107e45761010080835404028352916020019161080d565b820191905f5260205f20905b8154815290600101906020018083116107f057829003601f168201915b5050505050905090565b61081f61149b565b5f8111610861576040517f08c379a000000000000000000000000000000000000000000000000000000000815260040161085890613034565b60405180910390fd5b5f805b600d805490508110156108b557600d818154811061088557610884613052565b5b905f5260205f20906003020160020154826108a091906130ac565b915080806108ad906130df565b915050610864565b5080821173__HelperLib_____________________________63266001d36108dc84611522565b6040518263ffffffff1660e01b81526004016108f891906131b8565b5f60405180830381865af4158015610912573d5f803e3d5ffd5b505050506040513d5f823e3d601f19601f8201168201806040525081019061093a9190613259565b9061097b576040517f08c379a0000000000000000000000000000000000000000000000000000000008152600401610972919061264c565b60405180910390fd5b507f93dd8db802a58d2e2ea086008226799de7943aaf1a8c2b86caff4144cd3262a9600c54836040516109af9291906132a0565b60405180910390a181600c819055505050565b5f73ffffffffffffffffffffffffffffffffffffffff168273ffffffffffffffffffffffffffffffffffffffff1603610a32575f6040517f64a0ae92000000000000000000000000000000000000000000000000000000008152600401610a299190612709565b60405180910390fd5b5f610a458383610a40611482565b61167b565b90508373ffffffffffffffffffffffffffffffffffffffff168173ffffffffffffffffffffffffffffffffffffffff1614610abb578382826040517f64283d7b000000000000000000000000000000000000000000000000000000008152600401610ab2939291906132c7565b60405180910390fd5b50505050565b610ac961149b565b7f0f71e0b41e5248faae03f3927d52e9e8264f17dfb00eba9c4aad3add9821a22c600a5f9054906101000a900460ff1682604051610b089291906132fc565b60405180910390a180600a5f6101000a81548160ff02191690836004811115610b3457610b33612e56565b5b021790555050565b610b5683838360405180602001604052805f81525061103e565b505050565b610b6361149b565b7f7efdf63cb93b00cf5f12f3ddd1f10db4548ad93837d7f768a5e16c8aca0e7a26600b82604051610b95929190613463565b60405180910390a180600b9080519060200190610bb392919061242c565b5050565b6060600c54341015610bc7575f80fd5b610bd08261105b565b9050919050565b5f610be1826113c3565b9050919050565b5f8073ffffffffffffffffffffffffffffffffffffffff168273ffffffffffffffffffffffffffffffffffffffff1603610c59575f6040517f89c62b64000000000000000000000000000000000000000000000000000000008152600401610c509190612709565b60405180910390fd5b60035f8373ffffffffffffffffffffffffffffffffffffffff1673ffffffffffffffffffffffffffffffffffffffff1681526020019081526020015f20549050919050565b610ca661149b565b610caf5f611886565b565b610cb961149b565b7f69956f5ee94d619c543303819a972506e5844abe96b794ff7f1707f8123372b581604051610ce89190612bd3565b60405180910390a15f5b8151811015610d5a57600b828281518110610d1057610d0f613052565b5b6020026020010151908060018154018082558091505060019003905f5260205f20015f909190919091509081610d469190613623565b508080610d52906130df565b915050610cf2565b5050565b5f60075f9054906101000a900473ffffffffffffffffffffffffffffffffffffffff16905090565b606060018054610d9590612f94565b80601f0160208091040260200160405190810160405280929190818152602001828054610dc190612f94565b8015610e0c5780601f10610de357610100808354040283529160200191610e0c565b820191905f5260205f20905b815481529060010190602001808311610def57829003601f168201915b5050505050905090565b6060600b805480602002602001604051908101604052809291908181526020015f905b82821015610ee1578382905f5260205f20018054610e5690612f94565b80601f0160208091040260200160405190810160405280929190818152602001828054610e8290612f94565b8015610ecd5780601f10610ea457610100808354040283529160200191610ecd565b820191905f5260205f20905b815481529060010190602001808311610eb057829003601f168201915b505050505081526020019060010190610e39565b50505050905090565b610efc610ef5611482565b8383611949565b5050565b5f610f0961149b565b5f8311610f4b576040517f08c379a0000000000000000000000000000000000000000000000000000000008152600401610f4290613034565b60405180910390fd5b5f60085f815480929190610f5e906130df565b919050559050610f6e8882611ab2565b610f788188611ba5565b8560099081610f879190613623565b5084600a5f6101000a81548160ff02191690836004811115610fac57610fab612e56565b5b021790555082600b9080519060200190610fc792919061242c565b5083600c819055508773ffffffffffffffffffffffffffffffffffffffff167fbbe7f2c647c1acb723d88f74844a3eb1d27c9694d8ad3733c3d057a3d9ef324382898989898960405161101f969594939291906136f2565b60405180910390a2809150509695505050505050565b5f600c54905090565b6110498484846109c2565b61105584848484611bff565b50505050565b6060611066826113c3565b505f60065f8481526020019081526020015f20805461108490612f94565b80601f01602080910402602001604051908101604052809291908181526020018280546110b090612f94565b80156110fb5780601f106110d2576101008083540402835291602001916110fb565b820191905f5260205f20905b8154815290600101906020018083116110de57829003601f168201915b505050505090505f61110b611db1565b90505f81510361111f578192505050611161565b5f8251111561115357808260405160200161113b9291906137a0565b60405160208183030381529060405292505050611161565b61115c84611dc7565b925050505b919050565b5f600a5f9054906101000a900460ff16905090565b61118361149b565b7fe21432e1fe2b572d5803dd7316b7a854952317b42017f920a616ec70cdb8a5c16009826040516111b5929190613844565b60405180910390a180600990816111cc9190613623565b5050565b5f60055f8473ffffffffffffffffffffffffffffffffffffffff1673ffffffffffffffffffffffffffffffffffffffff1681526020019081526020015f205f8373ffffffffffffffffffffffffffffffffffffffff1673ffffffffffffffffffffffffffffffffffffffff1681526020019081526020015f205f9054906101000a900460ff16905092915050565b61126661149b565b5f73ffffffffffffffffffffffffffffffffffffffff168173ffffffffffffffffffffffffffffffffffffffff16036112d6575f6040517f1e4fbdf70000000000000000000000000000000000000000000000000000000081526004016112cd9190612709565b60405180910390fd5b6112df81611886565b50565b5f7f80ac58cd000000000000000000000000000000000000000000000000000000007bffffffffffffffffffffffffffffffffffffffffffffffffffffffff1916827bffffffffffffffffffffffffffffffffffffffffffffffffffffffff191614806113ac57507f5b5e139f000000000000000000000000000000000000000000000000000000007bffffffffffffffffffffffffffffffffffffffffffffffffffffffff1916827bffffffffffffffffffffffffffffffffffffffffffffffffffffffff1916145b806113bc57506113bb82611e2d565b5b9050919050565b5f806113ce83611e96565b90505f73ffffffffffffffffffffffffffffffffffffffff168173ffffffffffffffffffffffffffffffffffffffff160361144057826040517f7e2732890000000000000000000000000000000000000000000000000000000081526004016114379190612ab7565b60405180910390fd5b80915050919050565b5f60045f8381526020019081526020015f205f9054906101000a900473ffffffffffffffffffffffffffffffffffffffff169050919050565b5f33905090565b6114968383836001611ecf565b505050565b6114a3611482565b73ffffffffffffffffffffffffffffffffffffffff166114c1610d5e565b73ffffffffffffffffffffffffffffffffffffffff1614611520576114e4611482565b6040517f118cdaa70000000000000000000000000000000000000000000000000000000081526004016115179190612709565b60405180910390fd5b565b60605f8203611568576040518060400160405280600181526020017f30000000000000000000000000000000000000000000000000000000000000008152509050611676565b5f8290505f5b5f8214611597578080611580906130df565b915050600a8261159091906138a6565b915061156e565b5f8167ffffffffffffffff8111156115b2576115b161282c565b5b6040519080825280601f01601f1916602001820160405280156115e45781602001600182028036833780820191505090505b5090505b5f851461166f576001826115fc91906138d6565b9150600a8561160b9190613909565b603061161791906130ac565b60f81b81838151811061162d5761162c613052565b5b60200101907effffffffffffffffffffffffffffffffffffffffffffffffffffffffffffff191690815f1a905350600a8561166891906138a6565b94506115e8565b8093505050505b919050565b5f8061168684611e96565b90505f73ffffffffffffffffffffffffffffffffffffffff168373ffffffffffffffffffffffffffffffffffffffff16146116c7576116c681848661208e565b5b5f73ffffffffffffffffffffffffffffffffffffffff168173ffffffffffffffffffffffffffffffffffffffff1614611752576117065f855f80611ecf565b600160035f8373ffffffffffffffffffffffffffffffffffffffff1673ffffffffffffffffffffffffffffffffffffffff1681526020019081526020015f205f82825403925050819055505b5f73ffffffffffffffffffffffffffffffffffffffff168573ffffffffffffffffffffffffffffffffffffffff16146117d157600160035f8773ffffffffffffffffffffffffffffffffffffffff1673ffffffffffffffffffffffffffffffffffffffff1681526020019081526020015f205f82825401925050819055505b8460025f8681526020019081526020015f205f6101000a81548173ffffffffffffffffffffffffffffffffffffffff021916908373ffffffffffffffffffffffffffffffffffffffff160217905550838573ffffffffffffffffffffffffffffffffffffffff168273ffffffffffffffffffffffffffffffffffffffff167fddf252ad1be2c89b69c2b068fc378daa952ba7f163c4a11628f55a4df523b3ef60405160405180910390a4809150509392505050565b5f60075f9054906101000a900473ffffffffffffffffffffffffffffffffffffffff1690508160075f6101000a81548173ffffffffffffffffffffffffffffffffffffffff021916908373ffffffffffffffffffffffffffffffffffffffff1602179055508173ffffffffffffffffffffffffffffffffffffffff168173ffffffffffffffffffffffffffffffffffffffff167f8be0079c531659141344cd1fd0a4f28419497f9722a3daafe3b4186f6b6457e060405160405180910390a35050565b5f73ffffffffffffffffffffffffffffffffffffffff168273ffffffffffffffffffffffffffffffffffffffff16036119b957816040517f5b08ba180000000000000000000000000000000000000000000000000000000081526004016119b09190612709565b60405180910390fd5b8060055f8573ffffffffffffffffffffffffffffffffffffffff1673ffffffffffffffffffffffffffffffffffffffff1681526020019081526020015f205f8473ffffffffffffffffffffffffffffffffffffffff1673ffffffffffffffffffffffffffffffffffffffff1681526020019081526020015f205f6101000a81548160ff0219169083151502179055508173ffffffffffffffffffffffffffffffffffffffff168373ffffffffffffffffffffffffffffffffffffffff167f17307eab39ab6107e8899845ad3d59bd9653f200f220920489ca2b5937696c3183604051611aa591906125a9565b60405180910390a3505050565b5f73ffffffffffffffffffffffffffffffffffffffff168273ffffffffffffffffffffffffffffffffffffffff1603611b22575f6040517f64a0ae92000000000000000000000000000000000000000000000000000000008152600401611b199190612709565b60405180910390fd5b5f611b2e83835f61167b565b90505f73ffffffffffffffffffffffffffffffffffffffff168173ffffffffffffffffffffffffffffffffffffffff1614611ba0575f6040517f73c6ac6e000000000000000000000000000000000000000000000000000000008152600401611b979190612709565b60405180910390fd5b505050565b8060065f8481526020019081526020015f209081611bc39190613623565b507ff8e1a15aba9398e019f0b49df1a4fde98ee17ae345cb5f6b5e2c27f5033e8ce782604051611bf39190612ab7565b60405180910390a15050565b5f8373ffffffffffffffffffffffffffffffffffffffff163b1115611dab578273ffffffffffffffffffffffffffffffffffffffff1663150b7a02611c42611482565b8685856040518563ffffffff1660e01b8152600401611c64949392919061398b565b6020604051808303815f875af1925050508015611c9f57506040513d601f19601f82011682018060405250810190611c9c91906139e9565b60015b611d20573d805f8114611ccd576040519150601f19603f3d011682016040523d82523d5f602084013e611cd2565b606091505b505f815103611d1857836040517f64a0ae92000000000000000000000000000000000000000000000000000000008152600401611d0f9190612709565b60405180910390fd5b805181602001fd5b63150b7a0260e01b7bffffffffffffffffffffffffffffffffffffffffffffffffffffffff1916817bffffffffffffffffffffffffffffffffffffffffffffffffffffffff191614611da957836040517f64a0ae92000000000000000000000000000000000000000000000000000000008152600401611da09190612709565b60405180910390fd5b505b50505050565b606060405180602001604052805f815250905090565b6060611dd2826113c3565b505f611ddc611db1565b90505f815111611dfa5760405180602001604052805f815250611e25565b80611e0484612151565b604051602001611e159291906137a0565b6040516020818303038152906040525b915050919050565b5f7f01ffc9a7000000000000000000000000000000000000000000000000000000007bffffffffffffffffffffffffffffffffffffffffffffffffffffffff1916827bffffffffffffffffffffffffffffffffffffffffffffffffffffffff1916149050919050565b5f60025f8381526020019081526020015f205f9054906101000a900473ffffffffffffffffffffffffffffffffffffffff169050919050565b8080611f0757505f73ffffffffffffffffffffffffffffffffffffffff168273ffffffffffffffffffffffffffffffffffffffff1614155b15612039575f611f16846113c3565b90505f73ffffffffffffffffffffffffffffffffffffffff168373ffffffffffffffffffffffffffffffffffffffff1614158015611f8057508273ffffffffffffffffffffffffffffffffffffffff168173ffffffffffffffffffffffffffffffffffffffff1614155b8015611f935750611f9181846111d0565b155b15611fd557826040517fa9fbf51f000000000000000000000000000000000000000000000000000000008152600401611fcc9190612709565b60405180910390fd5b811561203757838573ffffffffffffffffffffffffffffffffffffffff168273ffffffffffffffffffffffffffffffffffffffff167f8c5be1e5ebec7d5bd14f71427d1e84f3dd0314c0f7b2291e5b200ac8c7c3b92560405160405180910390a45b505b8360045f8581526020019081526020015f205f6101000a81548173ffffffffffffffffffffffffffffffffffffffff021916908373ffffffffffffffffffffffffffffffffffffffff16021790555050505050565b61209983838361221b565b61214c575f73ffffffffffffffffffffffffffffffffffffffff168373ffffffffffffffffffffffffffffffffffffffff160361210d57806040517f7e2732890000000000000000000000000000000000000000000000000000000081526004016121049190612ab7565b60405180910390fd5b81816040517f177e802f000000000000000000000000000000000000000000000000000000008152600401612143929190613a14565b60405180910390fd5b505050565b60605f600161215f846122db565b0190505f8167ffffffffffffffff81111561217d5761217c61282c565b5b6040519080825280601f01601f1916602001820160405280156121af5781602001600182028036833780820191505090505b5090505f82602001820190505b600115612210578080600190039150507f3031323334353637383961626364656600000000000000000000000000000000600a86061a8153600a858161220557612204613879565b5b0494505f85036121bc575b819350505050919050565b5f8073ffffffffffffffffffffffffffffffffffffffff168373ffffffffffffffffffffffffffffffffffffffff16141580156122d257508273ffffffffffffffffffffffffffffffffffffffff168473ffffffffffffffffffffffffffffffffffffffff161480612293575061229284846111d0565b5b806122d157508273ffffffffffffffffffffffffffffffffffffffff166122b983611449565b73ffffffffffffffffffffffffffffffffffffffff16145b5b90509392505050565b5f805f90507a184f03e93ff9f4daa797ed6e38ed64bf6a1f0100000000000000008310612337577a184f03e93ff9f4daa797ed6e38ed64bf6a1f010000000000000000838161232d5761232c613879565b5b0492506040810190505b6d04ee2d6d415b85acef81000000008310612374576d04ee2d6d415b85acef8100000000838161236a57612369613879565b5b0492506020810190505b662386f26fc1000083106123a357662386f26fc10000838161239957612398613879565b5b0492506010810190505b6305f5e10083106123cc576305f5e10083816123c2576123c1613879565b5b0492506008810190505b61271083106123f15761271083816123e7576123e6613879565b5b0492506004810190505b60648310612414576064838161240a57612409613879565b5b0492506002810190505b600a8310612423576001810190505b80915050919050565b828054828255905f5260205f20908101928215612472579160200282015b828111156124715782518290816124619190613623565b509160200191906001019061244a565b5b50905061247f9190612483565b5090565b5b808211156124a2575f818161249991906124a6565b50600101612484565b5090565b5080546124b290612f94565b5f825580601f106124c357506124e0565b601f0160209004905f5260205f20908101906124df91906124e3565b5b50565b5b808211156124fa575f815f9055506001016124e4565b5090565b5f604051905090565b5f80fd5b5f80fd5b5f7fffffffff0000000000000000000000000000000000000000000000000000000082169050919050565b6125438161250f565b811461254d575f80fd5b50565b5f8135905061255e8161253a565b92915050565b5f6020828403121561257957612578612507565b5b5f61258684828501612550565b91505092915050565b5f8115159050919050565b6125a38161258f565b82525050565b5f6020820190506125bc5f83018461259a565b92915050565b5f81519050919050565b5f82825260208201905092915050565b5f5b838110156125f95780820151818401526020810190506125de565b5f8484015250505050565b5f601f19601f8301169050919050565b5f61261e826125c2565b61262881856125cc565b93506126388185602086016125dc565b61264181612604565b840191505092915050565b5f6020820190508181035f8301526126648184612614565b905092915050565b5f819050919050565b61267e8161266c565b8114612688575f80fd5b50565b5f8135905061269981612675565b92915050565b5f602082840312156126b4576126b3612507565b5b5f6126c18482850161268b565b91505092915050565b5f73ffffffffffffffffffffffffffffffffffffffff82169050919050565b5f6126f3826126ca565b9050919050565b612703816126e9565b82525050565b5f60208201905061271c5f8301846126fa565b92915050565b61272b816126e9565b8114612735575f80fd5b50565b5f8135905061274681612722565b92915050565b5f806040838503121561276257612761612507565b5b5f61276f85828601612738565b92505060206127808582860161268b565b9150509250929050565b5f805f606084860312156127a1576127a0612507565b5b5f6127ae86828701612738565b93505060206127bf86828701612738565b92505060406127d08682870161268b565b9150509250925092565b600581106127e6575f80fd5b50565b5f813590506127f7816127da565b92915050565b5f6020828403121561281257612811612507565b5b5f61281f848285016127e9565b91505092915050565b5f80fd5b7f4e487b71000000000000000000000000000000000000000000000000000000005f52604160045260245ffd5b61286282612604565b810181811067ffffffffffffffff821117156128815761288061282c565b5b80604052505050565b5f6128936124fe565b905061289f8282612859565b919050565b5f67ffffffffffffffff8211156128be576128bd61282c565b5b602082029050602081019050919050565b5f80fd5b5f80fd5b5f67ffffffffffffffff8211156128f1576128f061282c565b5b6128fa82612604565b9050602081019050919050565b828183375f83830152505050565b5f612927612922846128d7565b61288a565b905082815260208101848484011115612943576129426128d3565b5b61294e848285612907565b509392505050565b5f82601f83011261296a57612969612828565b5b813561297a848260208601612915565b91505092915050565b5f612995612990846128a4565b61288a565b905080838252602082019050602084028301858111156129b8576129b76128cf565b5b835b818110156129ff57803567ffffffffffffffff8111156129dd576129dc612828565b5b8086016129ea8982612956565b855260208501945050506020810190506129ba565b5050509392505050565b5f82601f830112612a1d57612a1c612828565b5b8135612a2d848260208601612983565b91505092915050565b5f60208284031215612a4b57612a4a612507565b5b5f82013567ffffffffffffffff811115612a6857612a6761250b565b5b612a7484828501612a09565b91505092915050565b5f60208284031215612a9257612a91612507565b5b5f612a9f84828501612738565b91505092915050565b612ab18161266c565b82525050565b5f602082019050612aca5f830184612aa8565b92915050565b5f81519050919050565b5f82825260208201905092915050565b5f819050602082019050919050565b5f82825260208201905092915050565b5f612b13826125c2565b612b1d8185612af9565b9350612b2d8185602086016125dc565b612b3681612604565b840191505092915050565b5f612b4c8383612b09565b905092915050565b5f602082019050919050565b5f612b6a82612ad0565b612b748185612ada565b935083602082028501612b8685612aea565b805f5b85811015612bc15784840389528151612ba28582612b41565b9450612bad83612b54565b925060208a01995050600181019050612b89565b50829750879550505050505092915050565b5f6020820190508181035f830152612beb8184612b60565b905092915050565b612bfc8161258f565b8114612c06575f80fd5b50565b5f81359050612c1781612bf3565b92915050565b5f8060408385031215612c3357612c32612507565b5b5f612c4085828601612738565b9250506020612c5185828601612c09565b9150509250929050565b5f805f805f8060c08789031215612c7557612c74612507565b5b5f612c8289828a01612738565b965050602087013567ffffffffffffffff811115612ca357612ca261250b565b5b612caf89828a01612956565b955050604087013567ffffffffffffffff811115612cd057612ccf61250b565b5b612cdc89828a01612956565b9450506060612ced89828a016127e9565b9350506080612cfe89828a0161268b565b92505060a087013567ffffffffffffffff811115612d1f57612d1e61250b565b5b612d2b89828a01612a09565b9150509295509295509295565b5f67ffffffffffffffff821115612d5257612d5161282c565b5b612d5b82612604565b9050602081019050919050565b5f612d7a612d7584612d38565b61288a565b905082815260208101848484011115612d9657612d956128d3565b5b612da1848285612907565b509392505050565b5f82601f830112612dbd57612dbc612828565b5b8135612dcd848260208601612d68565b91505092915050565b5f805f8060808587031215612dee57612ded612507565b5b5f612dfb87828801612738565b9450506020612e0c87828801612738565b9350506040612e1d8782880161268b565b925050606085013567ffffffffffffffff811115612e3e57612e3d61250b565b5b612e4a87828801612da9565b91505092959194509250565b7f4e487b71000000000000000000000000000000000000000000000000000000005f52602160045260245ffd5b60058110612e9457612e93612e56565b5b50565b5f819050612ea482612e83565b919050565b5f612eb382612e97565b9050919050565b612ec381612ea9565b82525050565b5f602082019050612edc5f830184612eba565b92915050565b5f60208284031215612ef757612ef6612507565b5b5f82013567ffffffffffffffff811115612f1457612f1361250b565b5b612f2084828501612956565b91505092915050565b5f8060408385031215612f3f57612f3e612507565b5b5f612f4c85828601612738565b9250506020612f5d85828601612738565b9150509250929050565b7f4e487b71000000000000000000000000000000000000000000000000000000005f52602260045260245ffd5b5f6002820490506001821680612fab57607f821691505b602082108103612fbe57612fbd612f67565b5b50919050565b7f5669657720636f7374206d7573742062652067726561746572207468616e207a5f8201527f65726f0000000000000000000000000000000000000000000000000000000000602082015250565b5f61301e6023836125cc565b915061302982612fc4565b604082019050919050565b5f6020820190508181035f83015261304b81613012565b9050919050565b7f4e487b71000000000000000000000000000000000000000000000000000000005f52603260045260245ffd5b7f4e487b71000000000000000000000000000000000000000000000000000000005f52601160045260245ffd5b5f6130b68261266c565b91506130c18361266c565b92508282019050808211156130d9576130d861307f565b5b92915050565b5f6130e98261266c565b91507fffffffffffffffffffffffffffffffffffffffffffffffffffffffffffffffff820361311b5761311a61307f565b5b600182019050919050565b5f82825260208201905092915050565b7f5669657720636f7374206d7573742062652067726561746572207468616e20005f82015250565b5f61316a601f83613126565b915061317582613136565b602082019050919050565b5f61318a826125c2565b6131948185613126565b93506131a48185602086016125dc565b6131ad81612604565b840191505092915050565b5f6040820190508181035f8301526131cf8161315e565b905081810360208301526131e38184613180565b905092915050565b5f6131fd6131f8846128d7565b61288a565b905082815260208101848484011115613219576132186128d3565b5b6132248482856125dc565b509392505050565b5f82601f8301126132405761323f612828565b5b81516132508482602086016131eb565b91505092915050565b5f6020828403121561326e5761326d612507565b5b5f82015167ffffffffffffffff81111561328b5761328a61250b565b5b6132978482850161322c565b91505092915050565b5f6040820190506132b35f830185612aa8565b6132c06020830184612aa8565b9392505050565b5f6060820190506132da5f8301866126fa565b6132e76020830185612aa8565b6132f460408301846126fa565b949350505050565b5f60408201905061330f5f830185612eba565b61331c6020830184612eba565b9392505050565b5f81549050919050565b5f819050815f5260205f209050919050565b5f819050815f5260205f209050919050565b5f815461335d81612f94565b6133678186612af9565b9450600182165f81146133815760018114613397576133c9565b60ff1983168652811515602002860193506133c9565b6133a08561333f565b5f5b838110156133c1578154818901526001820191506020810190506133a2565b808801955050505b50505092915050565b5f6133dd8383613351565b905092915050565b5f600182019050919050565b5f6133fb82613323565b6134058185612ada565b9350836020820285016134178561332d565b805f5b858110156134515784840389528161343285826133d2565b945061343d836133e5565b925060208a0199505060018101905061341a565b50829750879550505050505092915050565b5f6040820190508181035f83015261347b81856133f1565b9050818103602083015261348f8184612b60565b90509392505050565b5f6020601f8301049050919050565b5f82821b905092915050565b5f600883026134e27fffffffffffffffffffffffffffffffffffffffffffffffffffffffffffffffff826134a7565b6134ec86836134a7565b95508019841693508086168417925050509392505050565b5f819050919050565b5f61352761352261351d8461266c565b613504565b61266c565b9050919050565b5f819050919050565b6135408361350d565b61355461354c8261352e565b8484546134b3565b825550505050565b5f90565b61356861355c565b613573818484613537565b505050565b5b818110156135965761358b5f82613560565b600181019050613579565b5050565b601f8211156135db576135ac8161333f565b6135b584613498565b810160208510156135c4578190505b6135d86135d085613498565b830182613578565b50505b505050565b5f82821c905092915050565b5f6135fb5f19846008026135e0565b1980831691505092915050565b5f61361383836135ec565b9150826002028217905092915050565b61362c826125c2565b67ffffffffffffffff8111156136455761364461282c565b5b61364f8254612f94565b61365a82828561359a565b5f60209050601f83116001811461368b575f8415613679578287015190505b6136838582613608565b8655506136ea565b601f1984166136998661333f565b5f5b828110156136c05784890151825560018201915060208501945060208101905061369b565b868310156136dd57848901516136d9601f8916826135ec565b8355505b6001600288020188555050505b505050505050565b5f60c0820190506137055f830189612aa8565b81810360208301526137178188612614565b9050818103604083015261372b8187612614565b905061373a6060830186612eba565b6137476080830185612aa8565b81810360a08301526137598184612b60565b9050979650505050505050565b5f81905092915050565b5f61377a826125c2565b6137848185613766565b93506137948185602086016125dc565b80840191505092915050565b5f6137ab8285613770565b91506137b78284613770565b91508190509392505050565b5f81546137cf81612f94565b6137d981866125cc565b9450600182165f81146137f357600181146138095761383b565b60ff19831686528115156020028601935061383b565b6138128561333f565b5f5b8381101561383357815481890152600182019150602081019050613814565b808801955050505b50505092915050565b5f6040820190508181035f83015261385c81856137c3565b905081810360208301526138708184612614565b90509392505050565b7f4e487b71000000000000000000000000000000000000000000000000000000005f52601260045260245ffd5b5f6138b08261266c565b91506138bb8361266c565b9250826138cb576138ca613879565b5b828204905092915050565b5f6138e08261266c565b91506138eb8361266c565b92508282039050818111156139035761390261307f565b5b92915050565b5f6139138261266c565b915061391e8361266c565b92508261392e5761392d613879565b5b828206905092915050565b5f81519050919050565b5f82825260208201905092915050565b5f61395d82613939565b6139678185613943565b93506139778185602086016125dc565b61398081612604565b840191505092915050565b5f60808201905061399e5f8301876126fa565b6139ab60208301866126fa565b6139b86040830185612aa8565b81810360608301526139ca8184613953565b905095945050505050565b5f815190506139e38161253a565b92915050565b5f602082840312156139fe576139fd612507565b5b5f613a0b848285016139d5565b91505092915050565b5f604082019050613a275f8301856126fa565b613a346020830184612aa8565b939250505056fea2646970667358221220fdeacac0dd5c92c4fbd83e240c16812d656682fd40ad31e94b5f8e97c9a4a11464736f6c63430008140033",
  "immutableReferences": {},
  "source": "// contracts/JeskeiAsset.sol\n// SPDX-License-Identifier: MIT\npragma solidity ^0.8.20;\n\nimport \"@openzeppelin/contracts/token/ERC721/extensions/ERC721URIStorage.sol\";\nimport \"@openzeppelin/contracts/access/Ownable.sol\";\nimport \"./lib/HelperLib.sol\";\n\ncontract Production is ERC721URIStorage, Ownable {\n    enum FilmRatingEnum { G, PG, PG13, R, NC17 }\n\n    struct ProductionAssets {\n        bytes32 id;\n        address assetAddress; // 0x000.. for assets without an address\n        uint256 view_Wei;\n    }\n\n    uint256 private _nextTokenId;\n    string private _description;\n    FilmRatingEnum private _filmRating;\n    string[] private _tags;\n    uint256 private _view_Wei; // Must be at least the sum of all listed assets\n\n    ProductionAssets[] private assets;\n    \n    event ProductionCreated(uint256 tokenId, address indexed creator, string tokenURI, string description, FilmRatingEnum filmRating, uint256 viewWei, string[] tags);\n    event DescriptionUpdated(string oldDescription, string newDescription);\n    event FilmRatingUpdated(FilmRatingEnum oldRating, FilmRatingEnum newRating);\n    event TagsUpdated(string[] oldTags, string[] newTags);\n    event TagsAdded(string[] tagsAdded);\n    event ViewWeiUpdated(uint256 oldViewWei, uint256 newViewWei);\n\n    constructor(string memory name_, string memory symbol_) ERC721(name_, symbol_) Ownable(msg.sender) {\n        transferOwnership(msg.sender);\n    }\n\n    function createProduction(\n        address productionCreator_,\n        string memory tokenURI_,\n        string memory description_,\n        FilmRatingEnum filmRating_,\n        uint256 viewWei_,\n        string[] memory tags_\n    ) public onlyOwner returns (uint256) {\n        require(viewWei_ > 0, \"View cost must be greater than zero\");\n\n        uint256 tokenId = _nextTokenId++;\n        _mint(productionCreator_, tokenId);\n        _setTokenURI(tokenId, tokenURI_);\n        _description = description_;\n        _filmRating = filmRating_;\n        _tags = tags_;\n        _view_Wei = viewWei_;\n        \n        emit ProductionCreated(tokenId, productionCreator_, tokenURI_, description_, filmRating_, viewWei_, tags_);\n\n        return tokenId;\n    }\n\n    // Getter functions to make the properties publicly viewable\n    function getDescription() public view returns (string memory) {\n        return _description;\n    }\n\n    function getFilmRating() public view returns (FilmRatingEnum) {\n        return _filmRating;\n    }\n\n    function getTags() public view returns (string[] memory) {\n        return _tags;\n    }\n\n    function getViewWei() public view returns (uint256) {\n        return _view_Wei;\n    }\n\n    // Owner-only functions to update the properties\n    function updateDescription(string memory newDescription) public onlyOwner {\n        emit DescriptionUpdated(_description, newDescription);\n        _description = newDescription;\n    }\n\n    function updateFilmRating(FilmRatingEnum newFilmRating) public onlyOwner {\n        emit FilmRatingUpdated(_filmRating, newFilmRating);\n        _filmRating = newFilmRating;\n    }\n\n    function updateTags(string[] memory newTags) public onlyOwner {\n        emit TagsUpdated(_tags, newTags);\n        _tags = newTags;\n    }\n\n    function addTags(string[] memory newTags) public onlyOwner {\n        emit TagsAdded(newTags);\n\n        for (uint i=0; i < newTags.length; i++) {\n            _tags.push(newTags[i]);\n        }\n    }\n\n    function updateViewWei(uint256 newViewWei) public onlyOwner {\n        require(newViewWei > 0, \"View cost must be greater than zero\");\n\n        uint256 minimumFee = 0;\n        for (uint i=0; i < assets.length; i++) {\n            minimumFee = minimumFee + assets[i].view_Wei;\n        }\n\n        require(newViewWei > minimumFee, HelperLib.concatenate(\"View cost must be greater than \", HelperLib.toString(minimumFee)));\n\n        emit ViewWeiUpdated(_view_Wei, newViewWei);\n        _view_Wei = newViewWei;\n    }\n\n     function viewProduction(uint256 tokenId) public valueProvided payable returns (string memory) {\n        return tokenURI(tokenId);\n    }\n\n    modifier valueProvided() {\n        require(msg.value >= _view_Wei);\n        _;\n    }\n}\n",
  "sourcePath": "/home/eagle/Source/Jeskei/Jeskei-Solidity/contracts/JeskeiProduction.sol",
  "compiler": {
    "name": "solc",
    "version": "0.8.20+commit.a1b79de6.Emscripten.clang"
  },
  "schemaVersion": "3.4.16",
  "updatedAt": "2024-08-02T20:39:35.967Z",
  "devdoc": {
    "errors": {
      "ERC721IncorrectOwner(address,uint256,address)": [
        {
          "details": "Indicates an error related to the ownership over a particular token. Used in transfers.",
          "params": {
            "owner": "Address of the current owner of a token.",
            "sender": "Address whose tokens are being transferred.",
            "tokenId": "Identifier number of a token."
          }
        }
      ],
      "ERC721InsufficientApproval(address,uint256)": [
        {
          "details": "Indicates a failure with the `operator`s approval. Used in transfers.",
          "params": {
            "operator": "Address that may be allowed to operate on tokens without being their owner.",
            "tokenId": "Identifier number of a token."
          }
        }
      ],
      "ERC721InvalidApprover(address)": [
        {
          "details": "Indicates a failure with the `approver` of a token to be approved. Used in approvals.",
          "params": {
            "approver": "Address initiating an approval operation."
          }
        }
      ],
      "ERC721InvalidOperator(address)": [
        {
          "details": "Indicates a failure with the `operator` to be approved. Used in approvals.",
          "params": {
            "operator": "Address that may be allowed to operate on tokens without being their owner."
          }
        }
      ],
      "ERC721InvalidOwner(address)": [
        {
          "details": "Indicates that an address can't be an owner. For example, `address(0)` is a forbidden owner in EIP-20. Used in balance queries.",
          "params": {
            "owner": "Address of the current owner of a token."
          }
        }
      ],
      "ERC721InvalidReceiver(address)": [
        {
          "details": "Indicates a failure with the token `receiver`. Used in transfers.",
          "params": {
            "receiver": "Address to which tokens are being transferred."
          }
        }
      ],
      "ERC721InvalidSender(address)": [
        {
          "details": "Indicates a failure with the token `sender`. Used in transfers.",
          "params": {
            "sender": "Address whose tokens are being transferred."
          }
        }
      ],
      "ERC721NonexistentToken(uint256)": [
        {
          "details": "Indicates a `tokenId` whose `owner` is the zero address.",
          "params": {
            "tokenId": "Identifier number of a token."
          }
        }
      ],
      "OwnableInvalidOwner(address)": [
        {
          "details": "The owner is not a valid owner account. (eg. `address(0)`)"
        }
      ],
      "OwnableUnauthorizedAccount(address)": [
        {
          "details": "The caller account is not authorized to perform an operation."
        }
      ]
    },
    "events": {
      "Approval(address,address,uint256)": {
        "details": "Emitted when `owner` enables `approved` to manage the `tokenId` token."
      },
      "ApprovalForAll(address,address,bool)": {
        "details": "Emitted when `owner` enables or disables (`approved`) `operator` to manage all of its assets."
      },
      "BatchMetadataUpdate(uint256,uint256)": {
        "details": "This event emits when the metadata of a range of tokens is changed. So that the third-party platforms such as NFT market could timely update the images and related attributes of the NFTs."
      },
      "MetadataUpdate(uint256)": {
        "details": "This event emits when the metadata of a token is changed. So that the third-party platforms such as NFT market could timely update the images and related attributes of the NFT."
      },
      "Transfer(address,address,uint256)": {
        "details": "Emitted when `tokenId` token is transferred from `from` to `to`."
      }
    },
    "kind": "dev",
    "methods": {
      "approve(address,uint256)": {
        "details": "See {IERC721-approve}."
      },
      "balanceOf(address)": {
        "details": "See {IERC721-balanceOf}."
      },
      "getApproved(uint256)": {
        "details": "See {IERC721-getApproved}."
      },
      "isApprovedForAll(address,address)": {
        "details": "See {IERC721-isApprovedForAll}."
      },
      "name()": {
        "details": "See {IERC721Metadata-name}."
      },
      "owner()": {
        "details": "Returns the address of the current owner."
      },
      "ownerOf(uint256)": {
        "details": "See {IERC721-ownerOf}."
      },
      "renounceOwnership()": {
        "details": "Leaves the contract without owner. It will not be possible to call `onlyOwner` functions. Can only be called by the current owner. NOTE: Renouncing ownership will leave the contract without an owner, thereby disabling any functionality that is only available to the owner."
      },
      "safeTransferFrom(address,address,uint256)": {
        "details": "See {IERC721-safeTransferFrom}."
      },
      "safeTransferFrom(address,address,uint256,bytes)": {
        "details": "See {IERC721-safeTransferFrom}."
      },
      "setApprovalForAll(address,bool)": {
        "details": "See {IERC721-setApprovalForAll}."
      },
      "supportsInterface(bytes4)": {
        "details": "See {IERC165-supportsInterface}"
      },
      "symbol()": {
        "details": "See {IERC721Metadata-symbol}."
      },
      "tokenURI(uint256)": {
        "details": "See {IERC721Metadata-tokenURI}."
      },
      "transferFrom(address,address,uint256)": {
        "details": "See {IERC721-transferFrom}."
      },
      "transferOwnership(address)": {
        "details": "Transfers ownership of the contract to a new account (`newOwner`). Can only be called by the current owner."
      }
    },
    "version": 1
  },
  "userdoc": {
    "kind": "user",
    "methods": {},
    "version": 1
  }
}